:020000040800F2
:10000000285900209D020008E3350008292E000829
:10001000E13500087F1000080141000800000000E1
:10002000000000000000000000000000DD010008EA
:10003000311100080000000039020008B939000839
:10004000B7020008B7020008B7020008B7020008AC
:10005000B7020008B7020008B7020008B70200089C
:10006000B7020008B7020008B7020008B70200088C
:10007000B7020008B7020008B7020008B70200087C
:1000800081100008B7020008B7020008B702000894
:10009000B7020008B7020008B7020008B70200085C
:1000A000B7020008893A0008B7020008B702000842
:1000B000B7020008B7020008B7020008B70200083C
:1000C000B7020008B7020008B7020008B70200082C
:1000D000B7020008B7020008F5400008B7020008A0
:1000E000B7020008B7020008B7020008B70200080C
:1000F000B7020008B7020008B7020008B7020008FC
:10010000B7020008B7020008B7020008B7020008EB
:10011000B7020008B7020008B7020008B7020008DB
:10012000B7020008B7020008B7020008B7020008CB
:10013000B70200080000000000000000B70200083D
:10014000B7020008B7020008B7020008B7020008AB
:10015000B7020008B7020008B7020008B70200089B
:10016000B7020008B7020008B7020008B70200088B
:10017000B7020008B7020008B7020008000000003C
:1001800000000000B70200080000000000000000AE
:10019000B70200080000000000000000B7020008DD
:1001A000000000000000000000000000B70200088E
:1001B000B7020008B7020008B7020008B70200083B
:1001C000B7020008DFF810D000F000FD004800473B
:1001D000F5540008AFF30080285900202C4B196813
:1001E0000868B0E8F04F80F30988BFF36F8F4FF0D5
:1001F000000080F311887047000000000848006884
:10020000006880F308884FF0000080F3148862B61D
:1002100061B6BFF34F8FBFF36F8F00DF00BF00BF2A
:1002200008ED00E0DFF80C00016841F470010160A6
:10023000704700BF88ED00E0EFF30980BFF36F8FD8
:10024000134B1A681EF0100F08BF20ED108A20E92A
:10025000F04F106009B44FF0500080F31188BFF3E5
:100260004F8FBFF36F8F06F0D5FE4FF0000080F385
:10027000118809BC19680868B0E8F04F1EF0100F2B
:1002800008BFB0EC108A80F30988BFF36F8F704706
:100290004C000020EFF305807047000006488047BF
:1002A00006480047FEE7FEE7FEE7FEE7FEE7FEE75B
:1002B000FEE7FEE7FEE7FEE76D3A0008C50100082D
:1002C0002DE9F05F0546002092469B46884606468B
:1002D000814640241BE0284641464746224600F01E
:1002E000ACFA53465A46C01A914110D311461846EB
:1002F000224600F093FA2D1A67EB01084F4622467A
:100300000120002100F08AFA17EB00094E41201E5F
:10031000A4F10104DFDC484631462A464346BDE8E5
:10032000F09F40EA01039B0703D009E008C9121FB0
:1003300008C0042AFAD203E011F8013B00F8013B9F
:10034000521EF9D27047D2B201E000F8012B491ECB
:10035000FBD270470022F6E710B513460A46044662
:100360001946FFF7F0FF204610BD421C10F8011B94
:100370000029FBD1801A704770B50F4D00B928686D
:10038000002412E00A4602E09E4203D0521C137879
:10039000002BF9D1DAB2224305D02BB124B10021D0
:1003A00000F8011B04E00446401C0678002EE9D149
:1003B0002860204670BD0000C400002070B50646CD
:1003C00003F0C4FE046805460A220021304600F00E
:1003D000A5FA2C6070BD2DE9FE4F804681EA03002E
:1003E000C00F0C46009021F0004123F00045B8EB0F
:1003F0000200A94105D24046214690461C460B46C4
:10040000024623F00040104347D0270DC7F30A00EF
:10041000C3F30A510290401A019040286BDAC3F3EB
:10042000130040F4801B0098924620B10023D2EBC9
:10043000030A63EB0B0B01985946C0F1400250468A
:1004400000F0ECF906460D4650465946019A00F078
:1004500004FA10EB08006141002487EA115284EA93
:10046000E7731A4340D0009A62B3019A012A4FEA17
:10047000075215DC001B61EB02014FF0004202EA5B
:100480000752CDE90042001C41F5801132462B464F
:1004900000F0C2FA03B0BDE8F08F40462146F9E70C
:1004A000001B61EB0201001C41F5801300185B4149
:1004B0002018A2F5001747EB030140EAD570B619E2
:1004C0006D4111E06D084FEA360645EAC0754FEA06
:1004D0000752001B61EB0201001C41F58011490825
:1004E0004FEA30000019514132462B4603B0BDE8B7
:1004F000F04F00F082BA0098012240000023D0EBB8
:10050000020263EBE073009821464FEAE074B8EB17
:10051000000061EB0401E9E783F000435BE781F051
:10052000004158E72DE9FE4F81EA030404F000443E
:1005300021F0004100944FF0000B23F0004350EAFB
:1005400001045ED052EA03045BD0C3F30A54C1F342
:100550000A552C44A4F2F3340194A0FB0254C1F3D5
:10056000130141F48011C3F3130343F4801301FB1F
:10057000024400FB034E840A970A44EA815447EA86
:100580008357A4FB076802958D0A05FB07854FEA90
:10059000932C04FB0C542705029D4FEA065847EAAA
:1005A0001637B5EB08056EEB070C870E920E47EA7F
:1005B000811742EA8312A7FB0201B6EB0B0164EB41
:1005C00000042B0D43EA0C335E1844EB1C50DA4652
:1005D0005146E7FB0201C5F313044FEA0B3343EA2C
:1005E00014534FEA0432019C43EA0603A4F10C04BD
:1005F0000294009CCDE900B400F00EFA03B0BDE80F
:10060000F08F00200146F9E72DE9F04D81EA03045F
:1006100004F0004B21F0004514464FF0000A23F08F
:10062000004150EA050220D054EA01021DD0C5F372
:100630000A570246C5F31303C1F31300C1F30A5668
:1006400040F4801543F48013A7EB0608101BD64630
:1006500008F2FD3873EB050002D308F1010801E050
:1006600092185B41B8F1000F03DA00200146BDE8A3
:10067000F08D00204FF48011064684460EE0171BD3
:1006800073EB050705D3121B63EB050306434CEA26
:10069000010C49084FEA300092185B4150EA01070B
:1006A000EDD152EA030012D082EA040083EA050188
:1006B000084305D0101BAB4106D20122002306E0FF
:1006C00000224FF0004302E06FF0010253101AEBDA
:1006D00006004CEB085110EB0A0041EB0B01BDE8A2
:1006E000F04D00F08AB90EB5C10F80EAE070084401
:1006F000CA07002140F233438DE80E000A460B463C
:1007000000F08AF903B000BD0EB540F2334102910A
:100710000021CDE900110A460B4600F07DF903B037
:1007200000BD70B5C1F30A5201F000450024C1F3C9
:10073000130140F2FF3341F480119A4201DA0020A4
:1007400070BD40F233439A42A2F2334203DC52427C
:1007500000F073F800E090402C43F1D0404270BDAF
:10076000C1F30A5210B5C1F3130140F2FF3341F453
:1007700080119A4201DA002010BD40F233439A42C0
:10078000A2F2334203DC524200F057F810BD904011
:1007900010BD00F0004230F000400AD0C10D01F55C
:1007A0006071C0F3160042EA0151C20840071143CC
:1007B000704700200146704701F0004330B421F03B
:1007C000004150EA010206D00A0DA2F56072C1F3A1
:1007D0001301002A02DC30BC00207047440F44EAB9
:1007E000C104C100E01830BC00EBC25000F0CEB82C
:1007F00030B50B46014600202022012409E021FAF1
:1008000002F59D4205D303FA02F5491B04FA02F5ED
:100810002844151EA2F10102F1DC30BD202A04DBC0
:10082000203A00FA02F1002070479140C2F1200303
:1008300020FA03F3194390407047202A04DB203A42
:1008400021FA02F00021704721FA02F3D040C2F1F0
:1008500020029140084319467047202A06DBCB1737
:10086000203A41FA02F043EAE07306E041FA02F36B
:10087000D040C2F120029140084319467047000061
:100880000FB4002300B589B00CA900910B996FF04B
:100890000042CB601E4B06931E4B07930423CDE909
:1008A00001321D4A089202466B46002000F042FACF
:1008B00009B05DF814FB70B586B006464FF0FF3006
:1008C0000091CDE90101002015460C460490324606
:1008D000694604A8FFF7D4FF02460498211825B101
:1008E00008B1084600E020462860049800280DD092
:1008F000002A02DD0098884208D0081B0094CDE948
:1009000001043246694604A8FFF7BAFF06B070BD7D
:100910006D0F00088B0F0008F90B00082DE9F04758
:1009200091460F4680460446002614F8015B2DB11F
:1009300000F05EF90068405DC007F6D12B2D02D0B3
:100940002D2D18D0641E4A463946204600F02EFB55
:1009500027B13968A14201D1C7F8008071054FF075
:1009600002040BD54042002803DD03F0EFFB0460D6
:10097000A007BDE8F08746F48066E4E70028F8DACF
:1009800003F0E4FB04606FF00040F2E70029A8BF29
:100990007047401C490008BF20F00100704710B4A8
:1009A000B0FA80FC00FA0CF050EA010404BF10BC5D
:1009B000704749B1CCF1200421FA04F411FA0CF18A
:1009C00018BF012121430843A3EB0C01CB1D4FEAC3
:1009D00000614FEA102042BF002010BC704700EBBE
:1009E000C35010440029A4BF10BC7047401C4900EC
:1009F00008BF20F0010010BC704710B5141E73F141
:100A0000000408DA401C41F1000192185B411A43CE
:100A100001D120F0010010BD2DE9F04D92469B461A
:100A200011B1B1FA81F202E0B0FA80F220329046C0
:100A3000FFF7F4FE04460F4640EA0A0041EA0B01C4
:100A400053465A46084313D0114653EA010019D0C1
:100A5000C8F140025046FFF7F0FE05460E465046EC
:100A600059464246FFF7DAFE084305D0012004E06C
:100A700020463946BDE8F08D0020054346EAE07681
:100A80002C4337430A986305E40AA0EB08000022D0
:100A9000FD0A44EA47540A3002D500200146E9E73E
:100AA000010510196941DDE9084500196941BDE8F2
:100AB000F04DA2E72DE9F041054621F000400C463B
:100AC000284309D0C4F30A5040F23341884205DD7F
:100AD00028462146BDE8F0812846FBE740F2FE317A
:100AE000884210DC0CDB4FEA043040EA155050EA33
:100AF000053105D0104804F0004101430020E9E72A
:100B000000200146E6E7A0F233404642C6F140022B
:100B100028462146FFF782FE07468846284621469A
:100B20003246FFF78AFE43463A46FFF766FF3246F3
:100B3000BDE8F041FFF772BE0000F03FC1F30A527A
:100B4000C1F3130140F2FF3341F480119A4202DAFB
:100B500000200146704740F233439A42A2F23342EA
:100B600002DC5242FFF769BEFFF758BE30B5041EE3
:100B700071F1000404DB4FF00044404264EB0101DA
:100B8000141E73F1000405DB1C464FF00043524273
:100B900063EB04038B4208BF824230BD30B5041EB4
:100BA00071F1000404DB4FF00044404264EB0101AA
:100BB000141E73F1000405DB1C464FF00043524243
:100BC00063EB0403994208BF904230BD064C074DC9
:100BD00006E0E06840F0010394E80700984710340D
:100BE000AC42F6D3FFF7F2FA707C0008907C000864
:100BF000004870472C7C000810B50446FFF7F8FF4A
:100C00000068005D00F0010010BD00002DE9FF4FFD
:100C1000087883B09946FF2805D0491C2D2804D0B8
:100C20000024002008E000200BE00124F9E700EB9D
:100C3000800003EB4000491C0B78FF2BF7D104B177
:100C4000404200230293147819461D462D2C01D0F2
:100C50002B2C04D1521C2D2C13D000240294AA4614
:100C60001478FF2C0FD00A25A3FB057801FB058122
:100C70004FF0000C03FB0C11521CE3194AEB01016D
:100C8000EEE70124EAE7814453EA010002D019F5B6
:100C9000C87F06DA03980021C0E9001107B0BDE85B
:100CA000F08F0025AE4E2F46DFF8B882184600F0D0
:100CB000DAF9CDE90001B9F1000002DAC9F1000466
:100CC00000E004460023A74A1AEB030B42EB045A48
:100CD00012E0E00707D02A46334638464146FFF780
:100CE00021FC074688462A46334610461946FFF738
:100CF00019FC05460E466410002CEAD1DDE900011E
:100D0000B9F1000F5A46534606DAFFF77DFC3A4622
:100D10004346FFF779FC05E0FFF704FC3A464346FB
:100D2000FFF700FC029A0AB181F00041039AC2E980
:100D30000001B3E72DE9FF4F1F468DB0D7E901460B
:100D40004FF0FF382E2045464FF000090B90B9694F
:100D50006D1C0E988847396A824688470028F6D16C
:100D6000BAF1FF3F0AD024F4D064002E11DDBAF1AD
:100D70002B0F08D0BAF12D0F0BD102E0404611B075
:100D80008DE744F48064B9696D1C0E9888478246EB
:100D9000761E6946600501D52D2000E02B208DF8D8
:100DA000000001F1010B0DF1200809E0B9696D1C8B
:100DB0000E98884782460F9844F40074761E0560AA
:100DC000002E02DDBAF1300FF0D00B998A453ED1EA
:100DD00044F0800406E00F99681CA9F1010944F46D
:100DE00000740860B9696D1C761E0E9888478246AB
:100DF0003028F0D02BE00B998A4505D1200603D48A
:100E000044F08004761E18E0504603F09BFB08B3C4
:100E10000DF11301761E44F400748B4508D2AAF13B
:100E200030000BF8010B200607D5A9F1010003E003
:100E3000200602D409F101008146A00502D50F99D0
:100E4000681C0860B9696D1C0E9888478246002EA0
:100E5000D1DC53E0002E51DDBAF1650F02D0BAF1BA
:100E6000450F4BD1A00549D5B9696D1C24F44074D8
:100E7000761E0E9888478246002E0CDD2B2804D063
:100E8000BAF12D0F07D144F48074B9696D1C0E9826
:100E900088478246761EE00501D52D2100E02B21F2
:100EA00008F8011BCDF82C8021E00DF12901761EF8
:100EB00044F4007488450CD2AAF1300010F0FF0011
:100EC00088F8000002D10B99884509D908F101087A
:100ED00006E0E00501D5244801E042F20F708146AA
:100EE000B9696D1C0E98884782460F980560002EE0
:100EF00004DD504603F026FB0028D6D1F9690E9890
:100F00008847FF208BF8000088F80000002006903A
:100F100007904B466A4608A906A8FFF777FEA0058A
:100F200002D46FF001002AE714F0240F0AD0E00782
:100F300014D1DDE906123868031D3B600068C0E982
:100F400000120BE0DDE90601FFF736FC0146E00781
:100F500004D13868021D3A600068016028460EE737
:100F6000000014400000F03FF1D8FFFF426842B19A
:100F7000016811F8013B23B1521EC0E90012184666
:100F800070470121C160881E704742685AB1C3682A
:100F9000016843B983688B4205D0491E521CC0E9E1
:100FA0000012002070474FF0FF3070472DE9F05FCE
:100FB00082460078002715468B460AF10104B9469F
:100FC000302801D09DB113E014F8010B01277828D7
:100FD00003D0582801D045B10AE00DB1102D07D13A
:100FE0000027102514F8010B02E0082500E00A256F
:100FF0000026B0460EE005FB080005FB06F10127C0
:1010000001EB10461FFA80F8B6F5803F00D3B946D1
:1010100014F8010B294600F018F80028EBDABBF1B0
:10102000000F05D00FB1641E00E05446CBF800401D
:10103000B9F1000F06D003F089F802210160C81E43
:10104000BDE8F09F48EA0640FAE73A2800D2303877
:1010500020F02002412A01D3A2F13700884201D3B7
:101060004FF0FF3070470EB540F23342029200223B
:10107000CDE900221346FFF7CFFC03B000BDFEE729
:10108000014800F069B80000B40B00200168182383
:10109000CAB2103AB2FBF3F2054B6FF30901032A0F
:1010A0009B5CC36500D9091D816508467047000037
:1010B000887B000810B5014600208B698A6A4FF0D2
:1010C000C07453B1B3F5005F15D072B1012A0CD0D2
:1010D000022A0AD0032A09D104E01AB1012A06D053
:1010E000022A03D1C96AC90100D5012010BDC96A0D
:1010F000A142FAD010BD002AF7D0012AF2D0022A6C
:10110000F3D0032AF3D010BD30B50468256825F468
:1011100080252560046863608368402B036803D0E2
:1011200099600068C26030BD9A600068C16030BDDF
:101130007047704790F83510022903D0802141652F
:1011400001207047052180F835100068016821F002
:1011500001010160002070472DE9F84304464FF07B
:101160000009CDF8009063484FF41651A56D006852
:10117000B0FBF1F72E6894F85C10082000FA01F13A
:1011800031420FD021680A6852070BD50A6822F055
:1011900004020A6094F85C108840A860606D40F01A
:1011A0000100606594F85C104FF0010808FA01F046
:1011B000304208D021684969090604D5A860606DED
:1011C00040F00200606594F85C10042088403042D2
:1011D00008D021680968890704D5A860606D40F0CF
:1011E0000400606594F85C1010208840304218D0EC
:1011F00021680968090714D5A860206801684903B7
:1012000004D50068000308D5A16C07E00168C90592
:1012100003D4016821F008010160216C09B1204666
:10122000884794F85C1020208840304231D02168F3
:101230000968C9062DD5A86094F8350005282068EE
:10124000016806D0490347D5006800031DD4616CCE
:101250001CE021F0160101602068416921F0800145
:101260004161206C08B9A06C20B12068016821F0B0
:101270000801016094F85C103F208840A86084F861
:10128000349084F83580216D1FE0E16B09B1204670
:101290008847606D00282BD0606DC00714D00520F2
:1012A00084F835002068016821F001010160009890
:1012B000401C0090B84203D820680068C007F6D1EF
:1012C00084F8349084F83580E16C002910D001B0A6
:1012D0002046BDE8F04308470168C905D5D4016838
:1012E00021F01001016084F8349084F83580CCE757
:1012F000BDE8F883480000202DE9F041044600F0E5
:1013000089F906465CB1002584F83450022084F83F
:1013100035002068016821F0010101600DE0012025
:10132000BDE8F08100F076F9801B052805D9202062
:101330006065032084F83500F2E720680068C00784
:10134000F0D12268116820480140D4E90103184314
:10135000D4E903363343184363691843A369184338
:10136000E3691843236A18430843616A042903D1D7
:10137000D4E90B1319430843106020684069666A7A
:1013800020F0070130460E43012704280CD1A06A43
:101390000643E06A40B12046FFF78CFE20B14020B2
:1013A000606584F83570BAE7206846612046FFF72B
:1013B0006DFE94F85C203F2191408160656584F862
:1013C00035700020ACE700003F8010F02DE9F041BF
:1013D0000446866D90F83400002501280DD00120C8
:1013E00084F8340094F835700020012F07D084F879
:1013F000340002252846BDE8F0810220FBE70227E1
:1014000084F8357060652046FFF77EFE94F85C1026
:101410003F208840B0602068016841F016010160FB
:10142000206C20B12068016841F00801016020684B
:10143000016841F001010160DCE7000070B504467D
:1014400000F0E8F80546601C02D004480078044427
:1014500000F0E0F8401BA042FAD370BD3C00002031
:101460002DE9F84F00224FF0010803254FF00F0E31
:101470000B6808FA02F42340A3426ED14E68012E95
:1014800005D0022E03D0112E01D0122E12D1866863
:101490004FEA420C05FA0CF7BE43CF6807FA0CF787
:1014A000374387604668A6430C79C4F30014944020
:1014B00034434460C668570005FA07FC8C6826EA86
:1014C0000C06BC403443C4604C68022C01D0122C82
:1014D00013D1D40800EB8404A346D4F82090540719
:1014E0004FEAD46A0EFA0AF629EA06090E6906FAE4
:1014F0000AF646EA0906CBF8206006680C7926EA67
:101500000C0604F00304BC40344304604C68E4005F
:1015100060D5334C266846F480462660246822F065
:10152000030604F4804400942E4C3444A446D4F8BA
:1015300008489607370F0EFA07F6B4432A4EB04212
:1015400001D100261FE0294EB04201D101261AE048
:10155000274EB04202D1022615E03BE0254EB042B4
:1015600001D103260FE0244EB04201D104260AE047
:10157000224EB04201D1052605E0214EB04201D1F4
:10158000062600E00726BE402643CCF808681D4E1C
:1015900034684F689C43FF0300D51C433460194EE8
:1015A000361D34684F689C43BF0300D51C4334602C
:1015B000144E083634684F689C43FF0200D51C4324
:1015C0003460104E0C3634684F689C43BF0200D51F
:1015D0001C433460521C102AFFF44AAFBDE8F88F58
:1015E0004438024000300140000002400004024044
:1015F00000080240000C02400010024000140240AB
:1016000000180240003C01400AB1816170470904A2
:10161000FBE7000001488068704700003C000020A4
:1016200070B5040025D094F83D00002520B984F859
:101630003C50204600F0D2FB242084F83D00206876
:10164000016821F0010101602068016841F4004156
:1016500001602068016821F40041016000F0D0FDC4
:101660004D4A6168914201D84C4900E04C4988429A
:1016700001D2012070BD4B492368B0FBF1F15E68D7
:1016800026F03F060E435E606368934206D94FF42E
:10169000967359434FF47A73B1FBF3F12368491CF5
:1016A0001E6A26F03F06314319626168914210D8E4
:1016B0004900401EB0FBF1F2521CC2F30B02042A97
:1016C00001D2042022E0B0FBF1F0401CC0F30B007B
:1016D0001CE0A268F2B301EBC10303EB0116431E49
:1016E000B3FBF6F35B1C43F480431B0549D092B374
:1016F00001EBC10202EB0111401EB0FBF1F0401CF6
:10170000C0F30B0040F4804040F400402168CA69F7
:101710004CF6FF739A431043C861D4E907100143A4
:101720002068026822F0C00211430160D4E903017D
:1017300001432068826848F2FF339A431143816075
:10174000D4E9050108432168CA6822F0FF0210436A
:10175000C86001E00EE016E02068016841F0010178
:1017600001602564202084F83D00256384F83E5004
:10177000002070BD01EB4106431EB3FBF6F35B1C7A
:10178000B3E70120C2E701EB4101401EB0FBF1F0DD
:10179000401CC0F30B00B7E7A086010080841E0048
:1017A00000093D0040420F002DE9F84F1F469046CA
:1017B0008A460446DDF82890FFF72CFF054694F88A
:1017C0003D00202875D1192301226C49204600953F
:1017D00001F0FEFC0028F5D194F83C00012868D007
:1017E000012084F83C0020680168C90703D1016822
:1017F00041F0010101602068016821F4006101608D
:10180000222084F83D00102084F83E000026266443
:10181000C4F824806785608D20855948E0622B4696
:101820004A465146204601F017FB002878D1208D0A
:10183000544F68B1012814D002282068016816D0DE
:1018400041F480610160206841698069009087E00F
:101850002068416981690091016841F4007101606B
:101860007EE02068016821F480610160F0E721F4E6
:10187000806101602068016841F40061E2E70328AB
:1018800048D801280AD0022814D04B4600223946F5
:101890002046009501F09CFCD8BB27E02A4649462B
:1018A000204601F014FDA0BB20680069616A087041
:1018B0004DE061E04B46002239462046009501F09C
:1018C00087FC30BB2068016841F40071016020682A
:1018D0000069616A0870606A401C6062218D491E5F
:1018E0002185618D491E618521682EE0206801688F
:1018F00021F48061016020680069616A0870606A93
:10190000401C6062208D401E2085608D401E6085D9
:10191000D0E705E02A464946204601F0D8FC10B140
:101920000120BDE8F88F20680069616A0870606A6C
:10193000401C6062218D491E2185618D491E618593
:1019400021684A69D24352070AD409690170606A62
:10195000401C6062208D401E2085608D401E608589
:10196000208D00288BD1202084F83D0084F83E6033
:1019700084F83C600020D4E70220D2E70200100087
:101980000000FFFF040001002DE9F84F1F469046BC
:101990008A460446DDF82890FFF73CFE054694F899
:1019A0003D0020287FD1192301224049204600957F
:1019B00001F00EFC002876D194F83C00012872D08A
:1019C000012084F83C0020680168C90703D1016840
:1019D00041F0010101602068016821F400610160AB
:1019E000212084F83D00102084F83E000026266463
:1019F000C4F824806785608D20852D48E0622B46E1
:101A00004A465146204601F09DFA90B92068416946
:101A10008069009036E02A464946204601F08AFC5B
:101A200050B1206C042804D12068016841F4007191
:101A300001600120BDE8F88F606A216800780861C4
:101A4000606A401C6062618D491E6185218D491E5E
:101A500089B2218522685369DB435B070BD451B1FE
:101A600000781061606A401C6062608D401E608575
:101A7000208D401E20852A464946204601F082FBE3
:101A80000028CED1208D0028C5D154F83D0B016827
:101A900041F400710160202004F81E09E6776677A2
:101AA0000020C7E7FFE70220C4E7000002001000A3
:101AB0000000FFFF2DE9FF4F83B09A46DDE9119743
:101AC00093460446DDF84080FFF7A4FD054694F8F0
:101AD0003D00202870D1192301227149204600952C
:101AE00001F076FB0028F5D194F83C00012863D082
:101AF000012084F83C0020680168C90703D101680F
:101B000041F0010101602068016821F40061016079
:101B1000222084F83D00402084F83E000026266400
:101B2000C4F82480A4F82A90608D20855D48E06286
:101B3000CDE9007553465A462046049901F050FA03
:101B400000287CD1208DD0B1012821D00228206826
:101B500024D0416980690090208D032869D801282C
:101B60002BD0514902283B464FF00002009559D036
:101B70008846204601F02CFB002860D13CE020681C
:101B8000416981690091016841F40071016077E069
:101B90002068016821F480610160F0E7016821F4A8
:101BA000806101602068016841F400610160206883
:101BB00041698069009063E06FE02A46394620461B
:101BC00001F085FB98BB20680069616A08704EE0EF
:101BD0002068016841F40071016020680069616A51
:101BE0000870606A401C6062218D491E2185618DEC
:101BF000491E6185216838E02068016821F4806110
:101C0000016020680069616A0870606A401C606257
:101C1000208D401E2085608D401E60853B46002241
:101C200041460095204601F0D3FA00B9D0E706E01E
:101C3000FFE72A463946204601F049FB18B101204A
:101C400007B0BDE8F08F20680069616A0870606ABB
:101C5000401C6062218D491E2185618D491E618570
:101C600021684A69D24352070AD409690170606A3F
:101C7000401C6062208D401E2085608D401E608566
:101C8000208D00287FF468AF202084F83D0084F880
:101C90003E6084F83C600020D2E70220D0E70000DC
:101CA000020010000000FFFF040001002DE9FF4FBB
:101CB00083B09A46DDE9119793460446DDF84080EB
:101CC000FFF7A8FC054694F83D0020287FD1192392
:101CD000012240492046009501F07AFA002876D189
:101CE00094F83C00012872D0012084F83C00206860
:101CF0000168C90703D1016841F001010160206852
:101D0000016821F400610160212084F83D00402039
:101D100084F83E0000262664C4F82480A4F82A90A3
:101D2000608D20852C48E062CDE9007553465A4607
:101D30002046049901F0D2F970B930E02A463946BC
:101D4000204601F0F7FA58B1206C042804D120682D
:101D5000016841F400710160012007B0BDE8F08F17
:101D6000606A216800780861606A401C6062218DA9
:101D7000491E89B22185628D521E6285226853698F
:101D8000DB435B070BD469B100781061606A401CCB
:101D90006062208D401E2085608D401E6085208DF4
:101DA0000028CBD12A463946204601F0EBF900281D
:101DB000CAD154F83D0B016841F400710160202044
:101DC00004F81E09E67766770020C6E7FFE70220E1
:101DD000C3E70000020010000000FFFF2DE9F04102
:101DE00086B0044614216846FEF7B4FA2A4B2268EE
:101DF000DFF8A88029491224012503260427284852
:101E000008F110089A4218D10A6842F002020A60EA
:101E1000096801F00201059131028DE8F20069467E
:101E2000FFF71EFBD8F8001041F40011C8F80010AD
:101E3000D8F8000000F400102AE01A4B9A4228D18A
:101E40000A6842F002020A600A6802F00202059281
:101E50000A6842F004020A60096801F00401059171
:101E600019158DE8F2006946FFF7FAFA4FF4805031
:101E70008DE8F10069460C48FFF7F2FAD8F8001037
:101E800041F48001C8F80010D8F8000000F4800088
:101E9000059006B0BDE8F0810054004030380240A3
:101EA00000040240005800400008024002488168D7
:101EB00002781144816070473C0000200B4810B547
:101EC000016841F400710160016841F480610160C2
:101ED000016841F480710160032000F08DF800205A
:101EE00000F006F800F03EF8002010BD003C024073
:101EF00010B5014688B00022192000F05DF81920C5
:101F000000F04CF813480024016841F00101016021
:101F1000006805A900F001000690684600F050F93D
:101F200000F07EF90C494000B0FBF1F10C480B4A7F
:101F3000491E026040F2E732C0E90324C0E90114FF
:101F400000F0B6FB10B1012008B010BD044800F04D
:101F5000CBFBF9E74438024040420F00000001404B
:101F6000140C00200C4882B0016841F480410160EB
:101F7000006800F4804000900748001F016841F0AD
:101F8000805101600068002200F0805000900F2115
:101F9000901E02B000F010B844380240002809DB5F
:101FA00000F01F02012191404009800000F1E02073
:101FB000C0F8001170470000F0B40E4B1B680C46CF
:101FC000C3F30223C3F10705042D00D90425191D0D
:101FD000072901D2002300E0DB1E012606FA05F1E5
:101FE000491E214099409E40761E16403143F0BC68
:101FF00002F09CB80CED00E0064900F0070208680A
:102000004FF6FF03184040EA0220034A10430860DD
:10201000704700000CED00E00000FA052DE9F843E0
:102020001748016841F0805101600068154F00F0C9
:102030008050012600903E64FFF7ECFA05464FF40D
:102040007A78114C05E000BFFFF7E4FA401B4045E9
:102050000DD86068C003F7D57E64FFF7DBFA05464C
:10206000464607E0FFF7D6FA401BB04202D90320EC
:10207000BDE8F88360688003F4D50020F8E700002D
:102080004038024000000E42007000402DE9F04749
:102090000E46050065D0DFF81481D8F80000F7B2CD
:1020A00000F00F00B04207D288F80070D8F80000A6
:1020B00000F00F00B04254D128683D4C810712D582
:1020C000400703D5206840F4E050206028780007DE
:1020D00003D5206840F4604020602068A96820F0A3
:1020E000F000084320602878C0072DD03049686888
:1020F0000839012812D0022813D0032811D009680A
:10210000890700292DDA216821F0030101432160AC
:10211000FFF780FA814641F2883A0EE009688903A8
:10212000EFE709688901ECE7FFF774FAA0EB090112
:10213000514502D90320BDE8F0872068696800F0A6
:102140000C00B0EB810FEFD1D8F80010404601F041
:102150000F01B14207D90770006800F00F00B042CC
:1021600001D00120E7E72878400705D52068E96815
:1021700020F4E050084320602878000706D5206846
:10218000296920F4604040EAC100206000F058F85E
:102190002168084AC1F30311515CC8400649086030
:1021A00006480068FFF7A4FE0020C4E7003C024098
:1021B00008380240907B00084800002040000020C2
:1021C0000F2202600C4A136803F003034360136894
:1021D00003F0F0038360136803F4E053C3601268F4
:1021E0004FF4E05303EAD20202610448006800F0B1
:1021F0000F0008607047000008380240003C0240B1
:102200000448054900680968044AC1F38221515C09
:10221000C84070474800002008380240A07B0008F2
:102220000448054900680968044AC1F34231515C19
:10223000C84070474800002008380240A07B0008D2
:10224000224810B5006810F00C02214815D0214931
:10225000042A11D01D4C241F082A0FD00C2A0CD19F
:102260002268236802F03F025B0221D52068C0F398
:102270008810A0FB010120E0084610BD22682368F9
:1022800002F03F025B0205D52068C0F38810A0FB76
:10229000010104E02168C1F38811A1FB00010023C2
:1022A000FEF70EF82168C1F30141491C49000AE01C
:1022B0002168C1F38811A1FB00010023FEF700F89B
:1022C0002168C1F30271B0FBF1F010BD0838024083
:1022D0000024F40040787D012DE9F84F0546DFF831
:1022E00028B30078ABF10407C007A7F1040451D06C
:1022F000DBF800105846C1F3810101290FD00168B5
:10230000C1F38101022902D13968490207D400686A
:10231000C0F38100032809D13868400206D520683F
:10232000800337D56868002872D033E06868B0F55C
:10233000803F10D0B0F5A02F206810D020F480305E
:102340002060206820F4802020606868A8B1FFF732
:1023500061F906460DE0206840F48030F4E740F46F
:1023600080202060F7E700BFFFF754F9801B642846
:1023700078D820688003F7D50CE0FFF74BF90646C4
:1023800005E000BFFFF746F9801B6428F0D82068FD
:102390008003F7D42878DFF8749280074FF0000AA2
:1023A00046D5DBF80010584611F00C0F0FD001682D
:1023B000C1F38101022902D13968490207D50068B9
:1023C000C0F38100032809D13868400206D4206890
:1023D000800715D5E86801281AD111E0E868C0B176
:1023E0000120C9F80000FFF715F9064605E000BF17
:1023F000FFF710F9801B0228BAD820688007F7D5AC
:102400002068296920F0F80040EAC10020600FE050
:10241000F7E0C9F800A0FFF7FDF8064605E000BFA9
:10242000FFF7F8F8801B02281CD820688007F7D433
:102430002878000727D5DFF8D0817548696908F149
:102440006C0881B101210160FFF7E4F8064604E061
:10245000FFF7E0F8801B022804D8D8F800008007B6
:10246000F6D510E089E0C0F800A0FFF7D3F80646E3
:1024700005E000BFFFF7CEF8801B02287DD8D8F812
:1024800000008007F6D42878400769D55E484FF0F1
:10249000000838300068C0000BD45B483830016851
:1024A00041F08051016000684FF0010800F0805059
:1024B0000090584E3068C00511D4306840F48070E8
:1024C0003060FFF7A7F8009006E000BFFFF7A2F822
:1024D0000099401A022850D83068C005F6D54A4EF7
:1024E000A868683601280FD00528306810D020F081
:1024F00001003060306820F004003060A868B8B196
:10250000FFF788F800900FE0306840F00100F4E732
:1025100040F004003060F7E7FFF77CF80099411ABB
:1025200041F28830814264D830688007F4D50EE0EB
:10253000FFF770F8009007E0FFF76CF80099411A78
:1025400041F28830814254D830688007F4D4B8F121
:10255000000F05D02C483830016821F0805101600F
:10256000A869A8B3DBF80010C1F38101022948D0A3
:102570000228C9F860A005D000E03AE0FFF74AF869
:10258000054639E0FFF746F8064604E0FFF742F853
:10259000801B02282DD820688001F7D4F5E90701B7
:1025A0000843E9681C4A490802EB0141AA6841EA6C
:1025B00082110843297C40EA0160297D40EA0170CC
:1025C00038600120C9F86000FFF724F8054606E0EE
:1025D00015E000BFFFF71EF8401B022809D820684D
:1025E0008001F7D50BE000BFFFF714F8401B02286D
:1025F00002D90320BDE8F88F20688001F4D40020C0
:10260000F8E70120F6E700000838024000004742E2
:10261000800E4742007000400000FFFF7047704787
:1026200070B590F83C20012A32D0012480F83C405B
:10263000022280F83D2003685A689D6822F07006E7
:102640000A6832435A60134B02689A4214D0B2F1BE
:10265000804F11D0104B9A420ED0104B9A420BD0A3
:102660000F4B9A4208D00F4B9A4205D00E4B9A421C
:1026700002D00E4B9A4204D1496825F080031943D9
:10268000916080F83D40002180F83C10084670BD04
:10269000022070BD0000014000040040000800401E
:1026A000000C0040000401400040014000180040C0
:1026B00010B5040003D094F83D0010B107E00120EC
:1026C00010BD002084F83C00204600F00CF80220E9
:1026D00084F83D00211D206801F0DCF9012084F818
:1026E0003D00002010BD70470168CA6842F0010239
:1026F000CA600068816801F00701062903D00168FB
:1027000041F001010160002070472DE9F0410D46C4
:10271000040003D094F83D0018B108E00120BDE8A2
:10272000F081002084F83C00204600F03BF80220B5
:1027300084F83D002068816844F20702914381607B
:10274000211D206801F0A6F9226890689169166A37
:102750002B68AF69034340F20330814341EA07210C
:10276000A868EF6908434FF6FC418843E96840EAEE
:102770000720014328692F6A000140EA0730084317
:1027800069686D6926F0AA0646EA05152943936033
:102790002268906120680162012084F83D000020D9
:1027A000BDE70000F0B587B0044614216846FDF788
:1027B000D1FD4848236800254649103802240126E7
:1027C000454A464FB3F1804F22D0DFF814E14FF075
:1027D000C00C734545D10B6843F002030B600968D8
:1027E00001F002010591016841F0010101600068FA
:1027F000CDF800C00395CDE9014600F00100CDE918
:10280000044069464FEA0200FEF72AFE07B0F0BD19
:102810000B6843F001030B60096801F001010591A9
:10282000016841F001010160016801F001010591B9
:10283000016841F0020101600068694600F0020091
:10284000059020208DE85100CDE903561046FEF793
:1028500007FE08208DE85100CDE903566946384649
:10286000D2E7DFF880E0734518D10A6842F004022D
:102870000A60096801F004010591016841F0020154
:1028800001600068CDF800C00395CDE9014600F075
:102890000200CDE9044069463846B5E7124FBB4215
:1028A000B4D10B6843F008030B60096801F008011C
:1028B0000591016841F0010101600068694600F07E
:1028C0000100059003208DE85100CDE90354104626
:1028D0009AE7000040380240000002400004024035
:1028E0000004004000080040000C004010B5044601
:1028F000006891B1042904D00122002101F02EF9D1
:10290000206801225FF0040101F028F920680168C5
:1029100041F001010160002010BD01220021F3E718
:10292000704770B50446006801694FF00005C9435F
:10293000890715D4C168C943890711D4E91E01610B
:1029400001202077206880698007204602D0FFF7A9
:10295000E7FF04E000F098F8204600F096F82577AD
:1029600020680169C943490717D4C168C9434907A9
:1029700013D46FF004010161022020772068806980
:1029800010F4407F204602D0FFF7CAFF04E000F0B9
:102990007BF8204600F079F8257720680169C94363
:1029A000090716D4C168C943090712D46FF008019A
:1029B0000161042020772068C0698007204602D08A
:1029C000FFF7AEFF04E000F05FF8204600F05DF88E
:1029D000257720680169C943C90617D4C168C9436E
:1029E000C90613D46FF01001016108202077206818
:1029F000C06910F4407F204602D0FFF791FF04E049
:102A000000F042F8204600F040F825772068016980
:102A1000C943C90708D1C168C943C90704D1891E80
:102A20000161204600F032F820680169C9430906B7
:102A300009D4C168C943090605D46FF0800101615A
:102A40002046FFF7EBFD20680169C943490609D418
:102A5000C168C943490605D46FF0400101612046B1
:102A600000F01EF820680169C94389060BD4C168CB
:102A7000C943890607D46FF0200101612046BDE8F3
:102A80007040FFF7CCBD70BD7047704700680349C8
:102A9000884201D1FFF70ABA7047000000000140E8
:102AA0007047704770B5026804461068D168536972
:102AB00010F00F0F52D003F0010501F490762E4371
:102AC0005FD0C20705D0CA0503D5E26B42F0010210
:102AD000E263420705D5DA0703D0E26B42F0020257
:102AE000E263820705D5DA0703D0E26B42F0040205
:102AF000E263020707D501F020022A4303D0E26B0C
:102B000042F00802E263E26B002A33D0800604D56B
:102B1000880602D5204601F0AAF920684069E16BD9
:102B2000C0F38010090700D428B3204601F088F9CB
:102B30002068416949061AD5416921F04001416187
:102B4000606BA0B11B490165606BFEF7F3FA0028CA
:102B500010D0606B016DBDE870400847830610D54A
:102B60008B060ED52046BDE8704001F080B92046A6
:102B7000FFF797FF70BD2046FFF793FF0020E0634B
:102B800070BD030606D50B0604D52046BDE870408F
:102B900001F04CBA4006F3D54806F1D5D16820467D
:102BA00021F04001D160202184F8391000F03BF978
:102BB00070BD0000A13D000870B5040004D094F879
:102BC0003900002510B106E0012070BD84F83850AE
:102BD000204600F023F8242084F839002068C168DA
:102BE00021F40051C160204601F08CF92068016990
:102BF00021F4904101612068416921F02A0141617D
:102C00002068C16841F40051C160E563202084F868
:102C1000390084F83A00002070BD000070B586B01D
:102C2000064614216846FDF795FB24493068884222
:102C300042D123480025016841F400310160006859
:102C400000F4003005901E481038016841F0010181
:102C500001600068694600F0010005900C200090BA
:102C60000220CDE9010503200390072004901548B8
:102C7000FEF7F6FB154C144820604FF00060C4E9E5
:102C800001054014C4E9035080106561C4E9065091
:102C90004FF44030C4E908052046FEF72DFB08B18B
:102CA000FEF747FA7463002205212620A663FFF78A
:102CB00083F92620FFF772F906B070BD004400408A
:102CC000403802400000024088600240B40B0020FF
:102CD000F8B5044690F83A0020283CD1C1B3BAB305
:102CE00094F83800012836D0012084F83800A16219
:102CF000A2850025E563222084F83A00636B17481B
:102D0000D863636B16481864636B1648D864606BAD
:102D1000134605650846666B216802463046091D64
:102D2000FEF754FB206801684168009184F8385030
:102D3000C16841F48071C1602068416941F00101BE
:102D400041612068416941F0400141610020F8BDC6
:102D5000FFE70120FBE70220F9E70000FB3D000848
:102D6000373E0008B13D0008704770472DE9F84331
:102D7000044690F839001F4616460D46202850D1CB
:102D8000B5B1AEB194F8380001284AD0012084F8DA
:102D900038004FF00008C4F83C80212084F8390046
:102DA000FEF738FCA6848146E68484F8388026E065
:102DB0000120BDE8F883E08C401EE084A0684B460B
:102DC000B0F5805F4FF000024FF080012046009781
:102DD00003D001F05CF9E8B90DE001F058F9C8B989
:102DE00028882168C0F308004860206908B16D1C7C
:102DF00005E0AD1C03E0216815F8010B4860E08C8C
:102E00000028D8D14B46002240212046009701F0EF
:102E10003EF908B10320CCE7202084F839000020D7
:102E2000C7E70220C5E77047FEE701684A69D24359
:102E300052050FD46FF480624A61002140F8301FC0
:102E4000202242738173026942F00402026101731D
:102E500001207047002070472DE9F84F0446C06AF2
:102E60001E4693460D4621680A6842F480620A6055
:102E7000082807D0012805D010F5803F02D0206B2C
:102E8000112804D12068016841F4807101604FF07D
:102E900001195B46002249462046009600F098F949
:102EA0004FF4007840B120680068C00501D5C4F82F
:102EB00040800320BDE8F88F2069DFF884A0B0F5DA
:102EC000804F0FD00620216800EAD51747F0F000A8
:102ED000086133465A460AF10601204600F0ACF973
:102EE00058BB03E0E8B240F001001CE02168E8B202
:102EF000086133465A465146204600F09DF9E0B934
:102F00002068416981690091016841F48071016024
:102F10005B46002249462046009600F059F90028F9
:102F2000C1D147F0F1002168086133465A46514645
:102F3000204600F081F90028BCD00120BAE700004B
:102F400002000100F8B50446C06A1E460D46174649
:102F5000082807D0012805D010F5803F02D0206B4B
:102F6000122804D12068016841F480710160134681
:102F700000224FF001112046009600F029F940B1DF
:102F800020680068C00502D54FF40070206403205B
:102F9000F8BD2069B0F5804F0ED00620216800EA08
:102FA000D51040F0F000086133463A460B49204600
:102FB00000F042F978B902E005F0FE0000E0E8B266
:102FC00021680861054933463A46891F204600F0CA
:102FD00033F90028DCD00120F8BD00000800010012
:102FE0002DE9F84F0446006889460B9D0168984614
:102FF000174641F4806101602068016841F48071E6
:10300000016000954FF0011B0022594620460A9BA3
:1030100000F0DEF84FF4007A40B120680068C00587
:1030200001D5C4F840A00320BDE8F88F216809F05D
:10303000FE0008612B46284920460A9A00F0FCF859
:10304000F0BB20684169806900902A4620460A99B1
:1030500000F070F940B1206C04283AD12068016872
:1030600041F40071016034E0FEB2B8F1010F09D003
:103070002168380A08612A4620460A9900F05AF960
:103080000028E8D1206806612A4620460A9900F007
:1030900051F90028DFD12068016841F48071016096
:1030A00000950022594620460A9B00F091F800281E
:1030B000B3D1216809F0FF0040F00100086100E091
:1030C00007E02B46044920460A9A00F0B5F800288C
:1030D000AAD00120A8E70000020001002DE9F84372
:1030E000044600680D46DDE90897016898461646D3
:1030F00041F4807101604B4600224FF001112046DF
:10310000009700F065F848B120680068C00502D556
:103110004FF4007020640320BDE8F883216805F0B7
:10312000FE0008613B464A461549204600F084F8F7
:1031300088B920684169806900903A46494620462E
:1031400000F0F8F848B1206C042804D12068016828
:1031500041F4007101600120DEE7F5B2B8F1010F22
:1031600009D02168300A08613A464946204600F0F5
:10317000E1F80028E7D1206805610020CCE70000D5
:103180000200010070B516460D4604460DE02046CB
:10319000FFF74BFE08B1012070BD681C05D0FEF79B
:1031A00039FA801BA84207D835B120684069C0436E
:1031B0004007ECD4002070BD002044F8300F2021DF
:1031C0006173A073216941F0200121612073E2E75E
:1031D0002DE9F0471E4690460D460446C1F30747C9
:1031E000DDF8209008E0701C06D0FEF713FAA0EB83
:1031F0000900B0420FD876B12068012F18D080693D
:1032000025EA00000004000C14D000214145EAD05A
:103210000020BDE8F087002044F8300F20216173C2
:10322000A073216941F02001216120730120F0E7A2
:103230004069E5E70121E9E72DE9F0479A46914623
:103240000E46044600254FF02008C1F3074725E04D
:1032500020684069C043400514D42068016841F4E7
:103260000071016021686FF480604861256384F813
:103270003D8084F83E50206C40F00400206484F8C7
:103280003C501FE0B9F1FF3F08D0FEF7C3F9A0EBB7
:103290000A0149450CD8B9F1000F09D02068012F67
:1032A00013D0806926EA00000004000C0BD0CFE7A1
:1032B00044F8305F84F80D80A573206940F0200049
:1032C000206125730120BDE8F0874069EAE72DE918
:1032D000F041002590460E460446202717E040693D
:1032E000C043C0060CD454F8301B6FF01000486186
:1032F00044F810596777A577206A2062257717E090
:10330000FEF788F9A0EB0800B04208D83EB120686B
:103310004169C9434906E2D40020BDE8F08144F880
:10332000305F6773A573206940F02000206125732A
:103330000120F2E770B516460D4604460DE0204622
:10334000FFF773FD08B1012070BD681C05D0FEF7C2
:1033500061F9801BA84207D835B120684069C04395
:103360000006ECD4002070BD002044F8300F20216E
:103370006173A073216941F0200121612073E2E7AC
:103380002DE9F04786B014216846FCF7E3FF30488A
:103390000024016841F080010160016801F08001B2
:1033A0000591016841F004010160016801F0040128
:1033B0000591016841F001010160016801F001011E
:1033C0000591016841F0020101600068DFF8848026
:1033D00000F00200059000228C214046FEF714F90F
:1033E000DFF874904EF20606002231464846FEF79A
:1033F0000BF9DFF868A04FF46347002239465046C6
:10340000FEF702F98C2000900125CDE901546946B0
:1034100040460394FEF724F80096CDE9015469462E
:1034200048460394FEF71CF80097CDE9015469461D
:1034300050460394FEF714F8A802CDE9000469464B
:1034400050460294FEF70CF806B0BDE8F087000085
:1034500030380240000802400004024000000240F0
:1034600010B58CB024216846FCF774FF0024134883
:1034700009944FF080410A94C0E900144FF6FF719F
:10348000C0E902418021046181610320CDE900048B
:103490000120CDE902040A210491CDE90540CDE9DE
:1034A000074169460548FFF730F9099409A903481F
:1034B0000A94FFF7B5F80CB010BD000038020020E8
:1034C00010B58CB024216846FCF744FF0024134853
:1034D000099411490A94C0E900144FF6FF71C0E93C
:1034E00002418021046181610320CDE900040120B3
:1034F000CDE902040A210491CDE90540CDE9074157
:1035000069460648FFF701F9099409A903480A9496
:10351000FFF786F80CB010BD0004004078020020D0
:1035200010B58CB024216846FCF714FF0024134822
:10353000099411490A94C0E900144FF6FF71C0E9DB
:1035400002418021046181610320CDE90004012052
:10355000CDE902040A210491CDE90540CDE90741F6
:1035600069460648FFF7D1F8099409A903480A9467
:10357000FFF756F80CB010BD00080040B80200205C
:1035800010B58CB024216846FCF7E4FE00241348F3
:10359000099411490A94C0E900144FF6FF71C0E97B
:1035A00002418021046181610320CDE900040120F2
:1035B000CDE902040A210491CDE90540CDE9074196
:1035C00069460648FFF7A1F8099409A903480A9437
:1035D000FFF726F80CB010BD000C0040F8020020E8
:1035E000FEE7704702460521002000F017B80000F2
:1035F000064910B5086000F039F9322000F086F86D
:103600000120FFF7EFFF002010BD000000000020A8
:1036100002460721002000F001B800002DE9FF4715
:1036200015000E46824600D0012501240DF10C093B
:103630000A274846DFF850808DE89100234652461D
:103640008021D8F80000FEF735FAC8B904FA06F070
:1036500040F080019DF80C00CDF80090884305F003
:103660000101B14001438DF80C10CDE90147012360
:1036700052468021D8F80000FEF718FB002800D041
:10368000012004B0BDE8F0870000002030B41346EC
:103690004FF48054621EA14200D311466BB139B180
:1036A00091420FD0A1F6FF7149428AB2002101E098
:1036B0000022214630BC00F007B89142F8D009B191
:1036C0000A46F3E72246F1E71FB506238DF80C10F2
:1036D000090A8DF80D108DF80E20110A03EB8000F9
:1036E0008DF80F100A23042203A98DE80E00C0B242
:1036F00002460548012380210068FEF7D7FA00281A
:1037000000D0012004B010BD000000201FB540F221
:10371000F651884201D303202DE0182801D8FF205C
:1037200029E0FCF7F1FF9FED211B53EC112BFCF777
:10373000F9FE41EC100B53EC102B9FED1E0B51ECDE
:10374000100BFCF761FF9FED1D1B53EC112BFCF7D9
:10375000E3FEFDF731F8FDF71CF89FED1A1B53EC63
:10376000112BFCF738FE41EC100B00F011FD51EC71
:10377000100BFCF7F5FF8DF80C00012000F070F83D
:1037800001210A2203A88DE8070010480B46FE22FB
:1037900080210068FEF78AFA002000F061F801201D
:1037A000FFF736FF04B0002010BD0000000000004D
:1037B0000000B0400000000084D777410000000006
:1037C0000000F03F000000000000E03F000000208B
:1037D00010B5B5EEC00A0446F1EE10FA174802D251
:1037E0009FED170A05E010EE101A814201DD9FEDF2
:1037F000150A10EE100AFCF7CCFF9FED131B53ECDB
:10380000112BFCF78FFE9FED121B53EC112BFCF7D5
:10381000FBFE9FED111B53EC112BFCF7DCFDFCF7BD
:10382000CBFF00EE100A0022BCEEC00A10EE100A18
:1038300081B22046BDE81040FFF728BF00003443A6
:1038400000000000000034430000000000A07940A8
:103850000000000000806640000000000080594029
:10386000024604210020FFF7D9BE00001CB5062047
:103870008DF804000A2000900548012301AA0021C8
:103880000068FEF781F8002800D001201CBD000070
:1038900000000020B2B0DFF8D480D8F80C00FCF7AC
:1038A00078FF06460F46D8F80800FCF772FF04467A
:1038B0000D46D8F80400FCF76CFFCDE90401D8F8F8
:1038C0000000FCF766FFCDE90201A8F15000C068D6
:1038D000FCF75FFFCDE90001A8F150008068FCF71C
:1038E00058FF8246A8F150008B464068FCF751FF14
:1038F00080461E48894650380068FCF74AFF41EC74
:10390000100B1B48B0F804C04388028817484038A1
:10391000C168CDE91112CDE9133C07C80EAB83E8AD
:1039200007000AA853EC102B80E8F000DDE9040141
:10393000CDE90801DDE90201CDE90601DDE900017B
:10394000CDE904018DE8000F0AA115A800F0DAFB0B
:1039500015A8FCF70AFD82B24FF6FF7315A91548AA
:10396000FFF704FA0A2001F0F5FF94E71C0100209C
:1039700014000020252E32662C252E32662C252E92
:1039800032662C252E32662C252E32662C252E32C0
:10399000662C252E32662C252E32662C25642C258D
:1039A000642C25642C25642C25642C25642C25642A
:1039B000230000003803002010B5502080F3118848
:1039C000BFF34F8FBFF36F8F03F0F4FE18B10449BC
:1039D0004FF080500860002080F3118810BD000077
:1039E00004ED00E030B593B034216846FCF7B2FC3A
:1039F00014210DA8FCF7AEFC1A480025016841F01F
:103A000080510160006800F08050129016480168F3
:103A100041F4404101600068022400F440401290EB
:103A20000120039010200490009406940820CDE912
:103A30000750B420CDE909040B9468460C94FEF7B6
:103A40004BFCFEF7EBFA0DA90F2081E831004FF493
:103A5000A0501090E002119005210DA8FEF716FB72
:103A600013B030BD40380240007000400548016886
:103A700041F47001016003494FF000608039086033
:103A80007047000088ED00E00148FEF74ABF0000E3
:103A9000140C0020F0B50268254C264D264E274F09
:103AA000274B4FF0804CA04209D0604507D0A84278
:103AB00005D0B04203D0B84201D0984204D122F0E0
:103AC000700E4A6842EA0E02A0421BD0604519D02F
:103AD000A84217D0B04215D0B84213D0984211D0A6
:103AE000184DA8420ED0184DA8420BD0174DA84231
:103AF00008D0174DA84205D0164DA84202D0164D49
:103B0000A84203D122F44075CA682A434D6922F0C5
:103B100080022A4302608A68C2620A688262A04206
:103B200001D0984201D10969016301214161F0BDD1
:103B3000000001400004004000080040000C00406C
:103B400000040140004001400044014000480140A1
:103B500000180040001C00400020004010B501F09B
:103B60001F030121046A99408C430462016A9A4050
:103B70001143016210BD000000242DED028BA6B0A0
:103B8000DFF81492254626462746A34672B6D9F892
:103B9000343018684068C0F5006062B6A0426ED04C
:103BA000844224D27C4ADC46403269461CE016B18D
:103BB000012E05D007E0165D0D2E04D1012603E08D
:103BC000165D0A2E08D0002612F8048001F8058040
:103BD0006D1C022E02D006E00226F5E70D440127F7
:103BE00005F801CC0025641C8442E0D346E06A4914
:103BF0004FF4006840316A461CE016B1012E05D032
:103C000007E00E5D0D2E04D1012603E00E5D0A2EA5
:103C100008D0002611F804C002F805C06D1C022E61
:103C200002D006E00226F5E71544012705F801BC9D
:103C30000025641C4445E0D30024DC461CE016B19A
:103C4000012E05D007E00E5D0D2E04D1012603E004
:103C50000E5D0A2E08D0002611F8048002F80580B7
:103C60006D1C022E02D006E00226F5E7154401275E
:103C700005F801CC0025641C8442E0D30446186892
:103C80004068C0F50060A04280D1192001F062FEBA
:103C9000012FF9D10027B84640A16846FCF76CFB1C
:103CA0000DF1700A08E000BF4AF8280008F1010889
:103CB0003AA10020FCF760FB10B1B8F10A0FF3DB6A
:103CC0001C9800786B281CD006DC4B2819D0502893
:103CD0003BD05328D8D103E0702836D07328D3D1F5
:103CE0001D98FCF76BFB80461E9800F035FA51ECEE
:103CF000100BFCF761FD00EE100A404602F0A4FF35
:103D000044E71D9800F028FA51EC100BFCF754FD25
:103D100008EE900A1E9800F01FFA51EC100BFCF709
:103D20004BFD08EE100A1F9800F016FA51EC100B2C
:103D3000FCF742FD01EE100AF0EE480AB0EE680A08
:103D400001F040FB02F0D2FE20E71D98FCF736FBA5
:103D500080461E9800F000FA51EC100BFCF72CFD89
:103D600008EE900A1F9800F0F7F951EC100BFCF7E1
:103D700023FD08EE100A209800F0EEF951EC100B2C
:103D8000FCF71AFD01EE100AF0EE480AB0EE680AE0
:103D9000404602F041FFF9E6380300202C00000005
:103DA00010B5806B0021C185C184FEF77AFE10BD7D
:103DB00070B5846B2068406994F83910C0F3C01066
:103DC0000025212904D118B1E584204600F046F8E9
:103DD0002068406994F83A10C0F38010222904D179
:103DE00018B1E585204600F02BF8E06B40F010009C
:103DF000E0632046FEF755FE70BD10B50146806BAE
:103E000009680968C90513D40021C1850168CA6819
:103E100022F48072CA6001684A6922F001024A6194
:103E200001684A6922F040024A61202180F83A1074
:103E3000FEF79AFF10BD10B5806BFEF796FF10BD20
:103E40000168CA6822F49072CA6001684A6922F067
:103E500001024A61202180F83A1070470168CA685F
:103E600022F0C002CA60202180F83910704710B5D6
:103E700090F83A10222901D0022010BD8168B1F5D6
:103E8000805F11D00169002901681FD0496801F0E5
:103E90007F03816A4A1C82620B70C18D491E09042E
:103EA000090CC18518D02BE00269816A002A0268DA
:103EB000526805D0D2B20A80816A491C8162ECE75F
:103EC000C2F308020A80816A891CF7E74A68816A9E
:103ED0004B1C83620A70E0E70168CA6822F0200286
:103EE000CA600168CA6822F48072CA6001684A69BF
:103EF00022F001024A61202180F83A10FEF734FFD7
:103F0000002010BD2DE9F041044600680169E26817
:103F100021F44051114301612169A068E26908431D
:103F20006169114308432168CA6849F20C639A43E6
:103F30000243CA6020684169A26921F440711143BB
:103F40004161E069192764253226B0F5004F354AF2
:103F5000354920684FF0000806D0884201D09042D1
:103F600036D1FEF75DF935E0884201D0904202D1AA
:103F7000FEF756F901E0FEF743F961684A18A0FB25
:103F8000070148EB0803FCF79BF90146B0FBF5F08D
:103F90000201B1FBF5F06FF01803584301EB80000C
:103FA00006EBC000B0FBF5F000F0F80002EB4002B9
:103FB000B1FBF5F0584301EB800006EBC000B0FB0D
:103FC000F5F000F00700216810448860BDE8F0813A
:103FD000FEF716F961688B0F8A00A0FB0701FCF75A
:103FE0006FF90146B0FBF5F06FF01802504301EB9A
:103FF000800006EB0010B0FBF5F000F0F002B1FB22
:10400000F5F002EB0012B1FBF5F06FF01803584326
:1040100001EB800006EB0010B0FBF5F000F00F00A4
:10402000D1E70000001401400010014090F8391061
:10403000212901D0022070478168B1F5805F016AB3
:104040000BD04A1C0262026809785160C18C491E7B
:104050000904090CC1840ED017E009880268C1F375
:104060000801516001690029016A02D0491C0162FE
:10407000ECE7891CFBE70168CA6822F08002CA608D
:104080000068C16841F04001C160002070472DE91F
:10409000F041984617460E460446069D1DE0681CF2
:1040A0001BD02DB1FDF7B6FAA0EB0800A84214D939
:1040B0002068C16821F4D071C1602068416921F095
:1040C00001014161202084F8390084F83A00002081
:1040D00084F838000320BDE8F0812068006836EAE3
:1040E000000004D00020B842D9D00020F3E701201E
:1040F000F9E700000148FEF7D5BC000038030020B6
:10410000FEE700000FB4084B10B504A902AA0398FB
:1041100000F020FA044602A9002000F09EFD20468F
:1041200010BC5DF814FB00005B4C00080907090E89
:10413000002804DB00F1E02080F80014704700F054
:104140000F0000F1E02080F8141D70470048704710
:10415000C80000200000000030B583B0044600F025
:1041600013F99FED090B05468DED000B002221464A
:104170006846FCF7A0FB284600F01CF99DED000BFB
:1041800003B030BD0000000000000000000000008F
:104190002DE9F0412DED020B9FED3D0B2DED028B36
:1041A0009FED3D8BDDE90254C4F30A50A0F2FF36C7
:1041B000142E37DA002E18DA53EC102B9DED020B7B
:1041C00051EC100BFCF707F953EC182BFCF7E6FC4D
:1041D00057D2002CA4BF0024254652DA24F0004018
:1041E000284318BF2E4C4CD01AE02E4820FA06F770
:1041F00004EA070028431FD053EC102B9DED020B5F
:1042000051EC100BFCF7E7F853EC182BFCF7C6FC4D
:1042100037D2002C03DA4FF48010F0400444BC4342
:1042200000252EE0332E07DCA6F114004FF0FF31FD
:1042300021FA00F73D4206D19DED020BBDEC028B49
:1042400002B0BDE8F08153EC102B9DED020B51EC58
:10425000100BFCF764F953EC182BFCF79FFC10D201
:10426000002C0DDA142E08BF641C09D0C6F13400EE
:10427000012101FA00F02844A84238BF641C054619
:10428000BD43CDE902549DED020BD7E700000000CD
:104290009C7500883CE4377E0000000000000000B0
:1042A0000000F0BFFFFF0F0010B52DED020B2DED4C
:1042B000088B84B09DED0C0B51EC100BFCF7FAFB56
:1042C00041EC180B9DED0C0B53EC182B51EC100B23
:1042D000FCF722F941EC190B0D989FED290B10F01A
:1042E000004F53EC102B51EC190B9FED21AB9FEDC0
:1042F00022BB0ED0FCF73AFC0ED953EC1B2B51EC31
:10430000190BFCF74BFC1CD214E000BF41EC180B5E
:1043100017E0FCF72BFC06D253EC1A2B51EC180BD0
:10432000FCF7FAF8F2E753EC1B2B51EC190BFCF7F6
:1043300035FC06D853EC1A2B51EC180BFCF74BF854
:10434000E4E78DED028B9DED0C0B18EE901A10EE4C
:10435000900A8DED000B61F31E0003909DED020BA2
:1043600004B0BDEC088B02B010BD000000000000DE
:10437000000000000000F03F000000000000E03FEF
:10438000000000000000E0BF014800687047000026
:10439000C800002002E008C8121F08C1002AFAD194
:1043A00070477047002001E001C1121F002AFBD1B5
:1043B000704700000149086070470000C8000020F5
:1043C0002DE9FF5F82B00021DDE90430020DDDF848
:1043D00040B0034318D044F61050A2F2FF324243DB
:1043E0001514119801281FD0A5EB0B00401C5FEAA3
:1043F000000A4FF000064E4FDFF83891B0465046A5
:1044000015D5CAF1000413E0119801244AA301282C
:1044100001D16FEA0B010298119AC0E90031C0E99D
:10442000024206B0BDE8F09FCBF10000DFE7044692
:104430000021404A491842EB0450CDE9001012E037
:10444000E00707D032463B4640464946FCF76AF84B
:104450008046894632463B4610461946FCF762F8CC
:1044600006460F466410002CEAD1DDE90401DDE9BF
:104470000023BAF1000F06DAFCF754F842464B4627
:10448000FCF750F805E0FCF7BFF842464B46FCF756
:10449000BBF804460E460022284BFCF77FFB03D8EE
:1044A0004FF0FF30014607E00022254B2046314601
:1044B000FBF791FFFCF742FB102409E0002C0ADB1C
:1044C0000A220023FBF7FCFE039B30321A55641EC0
:1044D00050EA0102F2D1641C039AC4F1110314449E
:1044E000119A012A03D0012208430DD10AE00843A2
:1044F00004D000204FF0110B119072E7A3EB0B05D5
:104500006D1E0DE05B4504DD4FF0000205F1010575
:1045100004E003DA4FF00002A5F10105002AECD017
:1045200002981199C0E90231C0E9004579E700001D
:10453000000014400000F03F300000000000F04395
:104540000000E03F30380A2801D2012070470020E7
:10455000704700002DE9FF4F95B09A468846064601
:104560000025EEE1252877D100242746F94A0121CC
:10457000039400E0044316F8013F203B01FA03F0E6
:104580001042F7D130782A2811D06FF02F033078FD
:10459000A0F13002092A16D8039A44F0020402EB73
:1045A000820203EB42021044761C0390EFE758F8B6
:1045B000042B0392002A03DA504244F4005403907F
:1045C00044F00204761C30782E2816D116F8010F1C
:1045D00044F004042A280DD06FF02F023078A0F1A7
:1045E0003003092B09D807EB870302EB4303C718F5
:1045F000761CF3E758F8047B761C30786C280FD0D3
:1046000006DC4C2817D068280DD06A2814D104E0A5
:10461000742810D07A280FD10DE044F400140AE079
:1046200044F4801401E044F440147278824202D1D0
:1046300004F58014761C761C307866280BD013DCC9
:10464000582877D009DC002875D04528F6D04628B0
:10465000F4D047281AD193E118E0632835D06428B4
:1046600079D0652812D18BE1702873D008DC6728D7
:10467000F1D069286FD06E280DD06F2806D1ACE03C
:1046800073282CD0752874D0782853D052461799A7
:1046900090476D1C54E1C4F30250022809D003284E
:1046A0000DD0D8F8001004280DD00D6008F10408D2
:1046B00046E1D8F80010EA17C1E90052F6E7D8F849
:1046C00000100D80F2E70D70F0E718F8041B8DF86C
:1046D000001000208DF80100EB46012003E058F89F
:1046E00004BB4FF0FF3061074FF0000102D40DE032
:1046F00009F101018946B9420FDA8145F8DB1BF85F
:1047000009100029F4D108E009F10101894681422C
:10471000FADB1BF809100029F6D103985346A0EBE9
:10472000090721463846179A00F080FA284400EB22
:10473000090507E044E008E10DE01BF8010B5246D3
:1047400017999047B9F10109F7D2534621463846E7
:10475000179AF2E039E00A21C4F302524FF0000B3D
:104760000091022A06D058F8040BC117032A09D079
:104770000AE023E008F1070020F00702F2E8020156
:10478000904605E000B2C117042A01D140B2C1171A
:10479000002906DA0A460021404261EB02012D227F
:1047A00002E0220504D52B228DF80420012203E02B
:1047B000E20701D02022F7E7914657E00A2100E006
:1047C00010214FF0000B00910BE010214FF0000B77
:1047D00044F004040827009103E008204FF0000B88
:1047E0000090C4F30252022A05D058F8040B0021AD
:1047F000032A08D008E008F1070020F00702F2E8D9
:104800000201904603E080B2042A00D1C0B24FF00A
:10481000000922072AD53278702A07D0DDF800C0B7
:104820008CF0100C5CEA0B0C05D00EE040228DF8E9
:104830000420012208E050EA010306D030238DF85D
:1048400004308DF8052002229146009B83F0080376
:1048500053EA0B030AD150EA010201D1620705D5E0
:1048600030228DF804204FF001097F1E3278582A3B
:1048700004D039A20C920CAA02920BE03BA2F9E7F9
:104880005B46009AFBF71CFD0C9B9B5C029A521E38
:104890000292137050EA0102F2D1029804A9081A98
:1048A00000F1200B600702D524F4803400E00127DA
:1048B0005F4502DDA7EB0B0000E0002000EB0B01E1
:1048C000009003984944401A0390E00306D45346ED
:1048D0002146179A039800F0A9F90544002706E03D
:1048E00001A85246C05D179990476D1C7F1C4F452B
:1048F000F6DBE0030CD553462146179A039800F0E7
:1049000095F9054404E030205246179990476D1CF4
:104910000099481E00900029F5DC08E002980299F1
:1049200052460078491C0291179990476D1CBBF1C3
:104930000001ABF1010BF1DC5BE100F065F905442E
:10494000761C307800287FF40DAE19B02846BDE8FB
:10495000F08F00000928010030313233343536370A
:1049600038396162636465660000000030313233BB
:10497000343536373839414243444546000000005B
:10498000600700D4062708F1070020F00700F0E8D0
:104990000223804603F0004C5FEA0C0001D097A090
:1049A00009E0200501D596A005E0E00701D095A01B
:1049B00001E0AFF24C001390307823F000436528FB
:1049C0000CD006DC452809D046281DD047287FD1C9
:1049D0003BE0662818D067287AD136E00021112FF5
:1049E00001DB112000E0781CCDE9000104A90CA82E
:1049F000FFF7E6FCDDE90D010C9A4FF0000B07F123
:104A00000109109200914EE04FF000400097CDE96F
:104A1000011004A90CA8FFF7D3FCDDE90D020C9BE3
:104A20000F994FF0000B91461093009211B9791C29
:104A300000EB0109B7EB090003D4C0F1FF3B07F11C
:104A40000109A9EB0700019042E0012F00DA0127DC
:104A50000021112F01DD112000E03846CDE90001D1
:104A600004A90CA8FFF7ACFCDDE90D010C9A00913C
:104A70004FF0000BB946109221070FD4009A4A4517
:104A800003DA914601E0A9F10109B9F1010F05DD51
:104A9000109AA9F10101515C3029F4D0B84202DA30
:104AA00010F1040F03DA0121CDE9011010E0002814
:104AB00003DC8344A9EB000102E0411C494500DD11
:104AC0008946A0EB0B00401C01904FF00040029083
:104AD000200705D40198484502DB4FF0FF300190D4
:104AE00000208DF84B0002980DF14B07B0F1004FFC
:104AF00025D002200C902B200D90029800280CDA73
:104B0000404202902D200D9007E00A210298FBF709
:104B10006FFE3031029007F8011D0C99481E0C9071
:104B20000029F2DC02980028EFD1791E0D98087058
:104B3000307800F0200040F0450007F8020D11A881
:104B4000C01BC01D02901398007800B1012000EB3B
:104B50000901019801EBE071029801440398401AA1
:104B6000401E0390E00306D453462146179A03984B
:104B700000F05CF805441398007818B15246179974
:104B800090476D1CE00323D553462146179A03989E
:104B900000F04CF805441BE0BBF1000F07DB009868
:104BA000584504DD1098179910F80B0001E017998B
:104BB00030205246904701980BF1010B401E05F141
:104BC0000105019004D12E205246179990476D1C83
:104BD000B9F10001A9F10109DEDC05E017F8010BCC
:104BE0005246179990476D1C0299481E0290002961
:104BF000F4DC53462146179A03989EE62D000000E8
:104C00002B000000200000002DE9F04104460025A3
:104C10001E461746880404D405E039462020B047D4
:104C20006D1C641EF9D52846BDE8F0812DE9F041E0
:104C3000044600251E469046C80301D5302700E0F3
:104C40002027880404D505E041463846B0476D1C4E
:104C5000641EF9D52846BDE8F0810A68531C0B6034
:104C60001070704710B50446408840B1FCF7D2FC84
:104C7000E188401A6188884201D9012010BD0020D6
:104C800010BDC1B2000A8140491C88B27047400083
:104C9000801CC0B270470021002809D0401E02E0ED
:104CA0004008491C89B2020AFAD161F31F2080B280
:104CB000704730B589B0054640F63634694600F095
:104CC0002DF802AA6946284600F03CF89DF800003D
:104CD00010B1059C04F684549DF8020028B1059893
:104CE00004EB400404F2645406E09DF8010018B19E
:104CF000059804F5257404449DF8030018B106983E
:104D000004F5257404449DF8040018B1079804F2D2
:104D100026240444EC6009B0204630BD10B50C4692
:104D2000012101F08FFBC0F300112170C0F3C0011D
:104D3000A170C0F380016170C0F38011E170C009FF
:104D4000207110BD70B50D4614460646002100F0D6
:104D5000AFF820804621304601F074FB401CA08053
:104D6000217801F060FDE0605121304601F080FBC8
:104D7000FFF787FFE080217801F055FD20610121D8
:104D8000304600F095F860807121304601F070FBEC
:104D9000FFF777FF2081E97811B1E188401A20817F
:104DA000A178208901F03FFD606170BD70B51446A7
:104DB0000D4606460122802102F07AF90122FF21E8
:104DC000304602F075F900221146304602F070F9C3
:104DD0000622FF21304602F06BF98321304601F0B4
:104DE00031FB40F004028321304602F061F90722D2
:104DF000FF21304602F05CF901228121304602F0A9
:104E000057F901228021304602F052F96B22942199
:104E1000304602F04DF900228321304602F048F975
:104E2000304601F0FAFC05E03046FFF71BFF08B101
:104E3000002070BD8321304601F004FB0028F3D030
:104E400001228321304602F033F99221304601F0ED
:104E5000F9FA00F07F012970C00920700022812139
:104E6000304602F025F90622FF21304602F020F9F3
:104E70008321304601F0E6FA20F004028321304617
:104E800002F016F90122FF21304602F011F9012249
:104E90000021304602F00CF90022FF21304602F0DA
:104EA00007F900228021304602F002F9012070BD8E
:104EB00010B519B1012903D0FF2010BD502100E029
:104EC000702101F0BFFABDE81040FFF7E0BE2DE908
:104ED000FF47044639B1892101F0B4FA024689211D
:104EE000204602F0E5F800228821204602F0E0F892
:104EF00001228021204602F0DBF80122FF2120461A
:104F000002F0D6F800221146204602F0D1F8912195
:104F1000204601F097FA207201220021204602F07B
:104F2000C7F80022FF21204602F0C2F800228021AB
:104F3000204602F0BDF86021204601F083FA40F0DF
:104F400012026021204602F0B3F8B5EE000A2046B6
:104F500001F012FBFF220121204602F0A9F803AA6A
:104F600002A92046FFF722FF00287ED006236A46CA
:104F7000B021204601F028FA0122FF21204602F04C
:104F800097F800224F21204602F092F82C224E2161
:104F9000204602F08DF80022FF21204602F088F81A
:104FA000B422B621204602F083F89DF80C0008B127
:104FB0000C2500E0002500219DF8087008464FF000
:104FC00001096A464FF0070CA84201D3B9420ED13D
:104FD000B0FBFCF30CFB130309FA03F602EBD0035E
:104FE00093F8008028EA060883F800800BE0B0FB05
:104FF000FCF302EBD0060CFB13033678DE40F3071C
:1050000001D0491CC9B2401CC0B23028DCD30623F1
:10501000B021204602F03CF80122FF21204602F098
:1050200047F800221146204602F042F80022FF21F4
:10503000204602F03DF800220921204602F038F80F
:1050400000221021204602F033F8002211212046D0
:1050500002F02EF801222421204602F029F8FF2236
:105060002521204602F024F800E0A7E10022752166
:10507000204602F01DF80122FF21204602F018F818
:105080002C224E21204602F013F80022482120460F
:1050900002F00EF820223021204602F009F800220A
:1050A000FF21204602F004F809223021204601F0B9
:1050B000FFFF00225421204601F0FAFF0422312193
:1050C000204601F0F5FF03223221204601F0F0FFD7
:1050D00083224021204601F0EBFF25224621204675
:1050E00001F0E6FF00226021204601F0E1FF0022EE
:1050F0002721204601F0DCFF06225021204601F046
:10510000D7FF00225121204601F0D2FF96225221E2
:10511000204601F0CDFF08225621204601F0C8FFAD
:1051200030225721204601F0C3FF00226121204692
:1051300001F0BEFF00226221204601F0B9FF0022EB
:105140006421204601F0B4FF00226521204601F0D1
:10515000AFFFA0226621204601F0AAFF0122FF2115
:10516000204601F0A5FF32222221204601F0A0FFB7
:1051700014224721204601F09BFFFF2249212046AF
:1051800001F096FF00224A21204601F091FF002203
:10519000FF21204601F08CFF0A227A21204601F0EF
:1051A00087FF00227B21204601F082FF2122782107
:1051B000204601F07DFF0122FF21204601F078FF0B
:1051C00034222321204601F073FF00224221204691
:1051D00001F06EFFFF224421204601F069FF2622E4
:1051E0004521204601F064FF05224621204601F0BA
:1051F0005FFF40221146204601F05AFF06220E2191
:10520000204601F055FF1A222021204601F050FFD0
:1052100040224321204601F04BFF0022FF2120467F
:1052200001F046FF03223421204601F041FF4422D1
:105230003521204601F03CFF0122FF21204601F0EC
:1052400037FF04223121204601F032FF09224B2191
:10525000204601F02DFF05224C21204601F028FFB9
:1052600004224D21204601F023FF0022FF21204689
:1052700001F01EFF00224421204601F019FF2022E8
:105280004521204601F014FF08224721204601F065
:105290000FFF28224821204601F00AFF0022672143
:1052A000204601F005FF04227021204601F000FF96
:1052B00001227121204601F0FBFEFE2272212046D0
:1052C00001F0F6FE00227621204601F0F1FE0022D8
:1052D0007721204601F0ECFE0122FF21204601F05B
:1052E000E7FE01220D21204601F0E2FE0022FF210F
:1052F000204601F0DDFE01228021204601F0D8FE8B
:10530000F8220121204601F0D3FE0122FF21204690
:1053100001F0CEFE01228E21204601F0C9FE0122BD
:105320000021204601F0C4FE0022FF21204601F0AA
:10533000BFFE00228021204601F0BAFE04220A218D
:10534000204601F0B5FE8421204601F07BF820F0D4
:1053500010028421204601F0ABFE01220B212046E1
:1053600001F0A6FE2046FFF7A4FCE060E822012140
:10537000204601F09DFE2046E16801F0ABF80122D5
:105380001146204601F094FE4021204600F086FBA5
:10539000002813D002220121204601F089FE0021BD
:1053A000204600F07BFB002808D0E822012120469F
:1053B00001F07EFE4FF4FA706080012004B0BDE879
:1053C000F087000010B52DED0A8BB0EE419AB0EEDB
:1053D000608AF0EE409A19EE100AFBF7DAF99FEDB9
:1053E00040BB53EC1B2BFBF79DF879EEC88A41ECD0
:1053F0001A0B18EE900AFBF7CCF953EC1A2BFBF7BB
:105400008BF89FED39AB53EC1A2BFBF78BF8FBF7BE
:10541000D3F9374C206019EE100AFBF7BAF953ECB8
:105420001B2BFBF77FF839EE888A41EC1C0B18EE3A
:10543000100AFBF7AEF953EC1C2BFAF7CCFF53EC38
:105440001A2BFBF76FF8FBF7B7F9606019EE100A3B
:10545000FBF79FF953EC1B2BFBF764F841EC1C0B9B
:1054600018EE100AFBF795F953EC1C2BFBF754F8D8
:1054700053EC1A2BFBF756F8FBF79EF9A06019EED8
:10548000100AFBF786F953EC1B2BFBF74BF841ECAA
:10549000190B18EE900AFBF77CF953EC192BFAF76D
:1054A0009AFF53EC1A2BFBF73DF8FBF785F9E06008
:1054B000002004F1200100BF04EB800292ED000AFD
:1054C000B5EEC00AF1EE10FA01DD012200E0002283
:1054D00041F82020401C0428EEDBBDEC0A8B10BDF7
:1054E0003E0AD7A3703DCA3F0000000000003940CB
:1054F000CC0000202DED028B82B0FCF7DFFCFEF724
:1055000071FAFDF73DFFF0480025016841F40011F4
:10551000016000682A4600F4001000900521102068
:10552000FCF74AFD1020FCF739FDE948E7494FF444
:1055300080440160E749C0E90115C0E903544561B1
:105540008561C5610562FCF76BF8E148E2495430BA
:105550000160E049C0E90115C0E903544561856176
:10556000C5610562FCF75CF8FDF77AFFFDF7A8FF5F
:10557000FDF7D6FFFEF704F8D949D84808604FF484
:10558000E130486008468560C56005610C204861CF
:1055900008468561C561FDF70FFBCD48D1A12438D0
:1055A000FEF7B0FDCA482438FAF7DFFEC84982B2D8
:1055B0004FF6FF732439CA48FDF7D8FBC849E210FB
:1055C0004031C748FDF784FBC1483C21A830FDF7B6
:1055D0008DF9C3483C21C038FDF788F9C0483C210B
:1055E0008038FDF783F9BE483C214038FDF77EF94D
:1055F000B748FDF7FDFFC820FBF720FF002211464A
:105600001046FEF743F8002211460120FEF73EF84F
:10561000002211460220FEF739F80022114603202D
:10562000FEF734F89FEDB38A0420B0EE480AFEF787
:10563000CFF8B0EE480A0520FEF7CAF8B0EE480AE7
:105640000620FEF7C5F8B0EE480A0720FEF7C0F8BE
:10565000B0EE480A0F20FEF7BBF8C820FBF7EEFEBD
:10566000A54D002221462846FBF7CEFF00226110FF
:105670002846FBF7C9FF0122D60331462846FBF72F
:10568000C3FF002202212846FBF7BEFF00220421AF
:105690002846FBF7B9FF994D002204212846FBF765
:1056A000B3FF002208212846FBF7AEFF3146944E97
:1056B00001223046FBF7A8FF002221463046FBF7C7
:1056C000A3FF002261103046FBF79EFF8D4801F0DA
:1056D00064F88C48143001F060F88A48283001F0F2
:1056E0005CF8A411002221463046FBF78DFF4FF4F1
:1056F0000079002249463046FBF786FF00228021D0
:105700002846FBF781FF6420FBF798FE70487EA1D6
:105710002438FEF7F7FC6E482438FAF726FE6C4969
:1057200082B24FF6FF7324396D48FDF71FFB01224B
:1057300021463046FBF768FF1820FBF77FFE01216A
:105740007048FFF7C4FBDFF8D0814FF4FA74C8B19A
:1057500021466C4800F030FF53216A4800F0B0FE4B
:1057600012220021674800F029FF0E22012165481E
:1057700000F024FF0021634801F015F8414661481C
:1057800000F0A8FE524865A12438FEF7BBFC504843
:105790002438FAF7EAFD4E4982B24FF6FF773B46CE
:1057A00024394F48FDF7E2FA012249463046FBF71B
:1057B0002BFF1820FBF742FE524801211430FFF75F
:1057C00086FBF8B14F482146143000F0F5FE4D48F5
:1057D0005421143000F074FE4A4812220021143083
:1057E00000F0ECFE47480E220121143000F0E6FEE6
:1057F00044480021143000F0D6FF4248414614309E
:1058000000F068FE324849A12438FEF77BFC30489E
:105810002438FAF7AAFD2E4982B23B462439304893
:10582000FDF7A4FA012280212846FBF7EDFE18209F
:10583000FBF704FE334801212830FFF748FBF8B19D
:1058400030482146283000F0B7FE2E485521283038
:1058500000F036FE2B4812220021283000F0AEFE68
:1058600028480E220121283000F0A8FE25480021FA
:10587000283000F098FF23484146283000F02AFEE7
:105880006420FBF7DBFD00F07FF82C4A00212C4858
:1058900000F0B2F82B4C294A0021206024322A481B
:1058A00000F0AAF8254A606048320021274800F03D
:1058B000A3F8224AA0606C320021254800F09CF831
:1058C000E06000F07BF8FEE7303802400054004012
:1058D00090010020A08601000058004000440040D4
:1058E0003803002053746172742053797374656DAA
:1058F0000D0A000000000000000402400008024001
:1059000000000240780B00205374617274204C61D7
:1059100073657220310D0A00400D030053746172EB
:1059200074204C6173657220320D0A0053746172E9
:1059300074204C6173657220330D0A00F87A0008F8
:10594000793B00080400002095380008996300089E
:105950006D68000810B5EFF3058179B9EFF3108198
:1059600011B9EFF3118119B106490968022905D06F
:10597000002408B101F09AFA204610BD6FF005042A
:10598000FAE700009C000020EFF3058068B9EFF310
:1059900010820949086812B9EFF311820AB102288E
:1059A00003D028B14FF0FF3070476FF0050070470B
:1059B00001200860002070479C00002010B5EFF324
:1059C000058070B9EFF310820A49086812B9EFF345
:1059D00011820AB1022804D0012805D04FF0FF300F
:1059E00010BD6FF0050010BD0220086001F0C6FA7E
:1059F000002010BD9C0000202DE9FF414FEA01036B
:105A00004FF00005EFF30581039599BBEFF310818B
:105A100011B9EFF3118119B11F490968022938D072
:105A200040B38026182100244AB3176807B13C46CA
:105A300097691FB139467F1E382F02D21779FF07A9
:105A400003D0002004B0BDE8F081576907B1BE085B
:105A5000D2F808C0BCF1000F0DD0D5685C2D18D36A
:105A600012693AB137B18DE806103246214601F08D
:105A700062FE03900DE0D7685FB912694AB903AAC4
:105A8000CDE90012B2B2214601F028FE012800D073
:105A900003950398D6E700009C00002010B541F064
:105AA00001020446002101F003FB204600F0B5FE90
:105AB00005E02046FFF7D6F808B1002010BD1321FD
:105AC000204600F0BFFC4007F3D001220B21204606
:105AD00001F0EEFA00221146204601F0E9FA012019
:105AE00010BD00002DE9F041134C0F4605466669D4
:105AF0002068001D01F0ABF8681C07D137B12168A0
:105B0000BDE8F0410D48091D01F0F0B820683544AA
:105B1000B5424560216805D2A068BDE8F041091D85
:105B200001F0CCB86068091D01F0C8F8206B85420F
:105B300000D22563BDE8F0814C0000204411002014
:105B40002DE9F041054601F0DDF82D4C2069401C9F
:105B5000206120682B4F10B1E06930B32BE0256045
:105B60002069012827D1002606EB860007EB80007C
:105B700001F096F8761C382EF6D3234801F090F801
:105B80002148143001F08CF81F48283001F088F8C3
:105B90001D483C3001F084F81B48503001F080F87B
:105BA000194860601430A06005E02068E96AC06AA6
:105BB000884200D82560E06A401CE0626864E86AB8
:105BC000A169884200D9A06100EB800007EB80004A
:105BD000291D01F08BF801F0B5F8E06900280CD020
:105BE0002068E96AC06A884207D208494FF08050AD
:105BF0000860BFF34F8FBFF36F8FBDE8F0810000E7
:105C00004C000020940C0020F410002004ED00E073
:105C100038B501F077F8104CA068C8B90F4801F00A
:105C20003FF80E48143001F03BF80C482060143067
:105C300060600A4B00202833009003F150021021CD
:105C40000A2001F0EFFAA06010B105A101F0F8F808
:105C5000BDE8384001F076B88800002058110020D7
:105C6000546D72510000000030B4026C0B46002AE3
:105C70000BD0C1681144C1608468A14201D301689E
:105C8000C16030BC1846FAF74CBB30BC70472DE9F8
:105C9000F041856B174604460026026C82B1C7B1FD
:105CA000E068FAF73EFBE168206C091AE1602268BF
:105CB000914202D2A168081AE060022F16D017E0C4
:105CC0002068A8B9A06801F0D9FD06460020A060B0
:105CD0000EE06068FAF725FB216C6068084460609C
:105CE000A168884204D32068606001E005B16D1EA0
:105CF0006D1CA5633046BDE8F08110B5044690F8F0
:105D0000590058B101280CD002280FD0502080F340
:105D10001188BFF34F8FBFF36F8FFEE7206B01F049
:105D200025F82046BDE8104001F020B810BD000065
:105D300010484FF47051420706D0C01D0D4920F0A5
:105D40000700411AC1F570510B4A00230144C2E912
:105D500000030839103A21F0070111604B600B6015
:105D60000B1AC0E9001393604FF000405360D060FD
:105D70007047000028190020B0000020144E154C78
:105D8000A6F29C474FF08058DFF84C9012E000BF1D
:105D900000F0B8FFF068C568281D00F058FF2069C2
:105DA000401E2061E068401EE06000F0CBFF284606
:105DB000FFF7A3FFE0680028EAD138680128F9D985
:105DC000C9F80080BFF34F8FBFF36F8FF2E7000079
:105DD000301100204C00002004ED00E070B51D469D
:105DE000049C51B1C4F80020C4E90F0101212046F0
:105DF00001F04CFA84F84C5070BD2460F4E70000C8
:105E00002DE9F05F8846DDE90B9415468346910045
:105E10009A460A9EA522206BFAF795FA6FF00301C5
:105E2000206B01EB8501084420F00707780707D0B5
:105E3000502080F31188BFF34F8FBFF36F8FFEE7C1
:105E40000025B8F1000F0FD05FF00000221818F8FD
:105E5000001082F8341018F8001011B1401C1028FE
:105E6000F4D384F8435001E084F83450382E00D342
:105E70003726E662C4E91365201D00F01CFF04F11B
:105E8000180000F018FF2461C6F138006462A061B8
:105E9000656584F8585052465946384600F058FA1D
:105EA0002060B9F1000F01D0C9F80040BDE8F09FB3
:105EB00030B5114900E011460A688242FBD34B68B5
:105EC0005C18844203D1406818444860084643681F
:105ED0001C18944209D1084C103C2468A24209D0F5
:105EE00052681A4442600A6812680260814200D017
:105EF000086030BD0460F9E7B000002070B50024F0
:105F000041600B4D0061914206D8D11A82699142DD
:105F100006D2011D686807E09A4203D2994201D374
:105F2000012403E0011D286800F0C8FE204670BD72
:105F30008800002010B5044600F0E4FEA06B28B1F4
:105F40005FF0000400F0FEFE204610BD0124F9E7DA
:105F500030B589B03C4D6EE00498002806DADDE9E2
:105F60000601059A90470498002864DB069C606946
:105F700010B1201D00F06BFE03A800F0D7F8024618
:105F800004980A2857D2DFE800F00505052D334AAA
:105F900005052D3394F8280040F0010084F828000E
:105FA0000599A069059B01442046FFF7A7FF68B348
:105FB000216A2046884794F8280040073BD50020F6
:105FC00000900598A169002342181946204601F067
:105FD0005FFDD8B9502080F31188BFF34F8FBFF316
:105FE0006F8FFEE714F8280F20F00100207022E0E8
:105FF00094F8280040F0010084F828000598A0617A
:1060000028B1811813462046FFF778FF13E050208F
:1060100080F31188BFF34F8FBFF36F8FFEE794F8C3
:106020002800810703D4204600F0A0FE03E020F002
:10603000010084F82800002204A9A86801F078FA79
:10604000002889D109B030BD880000202DE9FC412D
:106050000F46054600F0D6FF01A800F067F8044699
:10606000019818B101F082FCBDE8FC81254EAFB16A
:1060700070680068D0B30027291B3A46B06800F06A
:10608000F3FE01F073FC0028EED11F494FF0805061
:106090000860BFF34F8FBFF36F8FE5E7A542EBD8E2
:1060A00001F064FC30682746C068C468201D00F019
:1060B000CEFD94F82800410719D5A0692B46411957
:1060C0003A462046FFF71AFFA8B1002003460146D2
:1060D00000902A46204601F0DBFC60B9502080F396
:1060E0001188BFF34F8FBFF36F8FFEE707E020F0FB
:1060F000010084F82800216A20468847B4E7012778
:10610000BAE700008800002004ED00E0064841687E
:10611000096829B14168C968C9684968016370475D
:106120004FF0FF31FAE700004C00002070B5054643
:1061300001F03AFB064E04463069844203D200F077
:1061400009F8012000E0002028602046346170BD7D
:1061500088000020F8B5194D20E0C068C4680668C2
:10616000201D00F074FD216A2046884794F828001D
:10617000400713D5A0693044B04206D9246160605D
:10618000211D286800F09AFD08E000200346014622
:1061900000903246204601F07BFC38B12868016847
:1061A0000029DAD16968C5E90010F8BD502080F3F4
:1061B0001188BFF34F8FBFF36F8FFEE78800002079
:1061C00008484068401C4FF0500080F3118804D00C
:1061D000BFF34F8FBFF36F8FFEE7BFF34F8FBFF358
:1061E0006F8FFEE7B8000020074C2068016841B1BE
:1061F000C0680021D0F80000FFF728FFFFF7A8FED5
:10620000F3E701210020F7E7880000202DE9F041A5
:10621000044600F077FD94F9455004F1240609E0A6
:10622000606A48B1304601F069FB08B100F06CFECD
:106230006D1E6DB2002DF3DC4FF0FF3684F8456023
:1062400000F080FD00F05EFD94F9445004F1100769
:1062500009E0206948B1384601F050FB08B100F070
:1062600053FE6D1E6DB2002DF3DC84F84460BDE872
:10627000F04100F067BD00002DE9F0410546002720
:1062800000F0C0FE314E306808B9FFF751FDF068EC
:1062900005424BD1C5B3083568070ED005F007009D
:1062A000C0F108000544680707D0502080F311882A
:1062B000BFF34F8FBFF36F8FFEE72DB3706885423A
:1062C00034D82248103001460C6801E020460C46C4
:1062D0006168A94202D221680029F7D131688C4255
:1062E00024D007682168016060680837411B1029C5
:1062F0000FD96019420708D0502080F31188BFF3EE
:106300004F8FBFF36F8FFEE710E041606560FFF7CE
:10631000CFFD61687068401A7060B268904200D228
:10632000B060F06801430020C4E9000101F01EFBE9
:10633000780707D0502080F31188BFF34F8FBFF349
:106340006F8FFEE73846BDE8F0810000A000002016
:1063500010B5031F4FF080741C601B1F21F001015A
:106360001960191F044B0B6014390A60091F6FF084
:10637000020244380A6010BDC1610008FEB55CB27B
:10638000DDE90856CDE90053490002960123FBF7E9
:1063900091FB2046FEBD0000094C0A4800F02CF895
:1063A00020800848143000F027F860800548283025
:1063B00000F022F8A0803220FFF7CCFAEDE70000D1
:1063C00014000020780B00207FB582B01D461646D1
:1063D0004FF47A74012303AA522106480094FBF774
:1063E000D3FA2B463246532102480094FBF7DCF9DE
:1063F00006B070BDE401002070B5044600F00DFA4F
:1064000008E02046FEF72EFC20B1012020714FF657
:10641000FF7070BD1321204600F014F84007F0D043
:106420001E21204600F024F8054601220B212046BB
:1064300000F03EFE20790021217108B141F6FE7581
:10644000284670BD3EB504460A46257802A94FF499
:106450008073CDE90013054801232946FFF78EFF1D
:10646000002020749DF808003EBD0000E4010020DB
:106470003EB504460A4625784FF4807302A9CDE95B
:106480000013054802232946FFF778FFBDF80800EE
:10649000002140BA21743EBDE4010020884205DAA3
:1064A0000B1A934202DD1044401A7047431A884287
:1064B00004DD934202DD101A084470471846704705
:1064C00070B50C4601F07F0205468A2100F0F0FD10
:1064D0002C7070BD70B5064644F6206088B00D463D
:1064E00081422ED340F6E80469463046FEF716FC9A
:1064F00002AA69463046FEF725FC9DF8000010B15F
:10650000059C04F636349DF8020028B1059804EB8A
:10651000400404F2645406E09DF8010018B10598A7
:1065200004F5257404449DF8030018B1069804F599
:10653000257404449DF80400E0B104F22624AC4222
:1065400002D9002008B070BDBDF80A10281BC9B2DE
:1065500000F07AF99DF8031080B219B1BDF80E1061
:10656000084480B2FEF797FB02467121304600F0E6
:10657000B3FDF5600120E5E7B5EEC00A10B5F1EE18
:1065800010FA04D310EE101A094A914201DD0020DE
:1065900010BDDFED080A20EE200ABCEEC00A10EEA6
:1065A000101A8AB2442100F097FD012010BD0000AE
:1065B000B8FEFF430000004341807047F0B5054638
:1065C0001446FF2000EB540089B00E46C7B269465E
:1065D0002846FEF7A3FB02AA69462846FEF7B2FB4F
:1065E00016B1012E3BD042E00C2C06D00E2C06D06A
:1065F000102C29D0122C3AD128E0182200E03022A9
:106600005721284600F054FD08225621284600F064
:106610004FFD3A465021284600F04AFD2146069893
:1066200000F012F980B2FEF736FB024651212846EF
:1066300000F052FD2146059800F006F980B2B0F551
:10664000807F05D9FF2004E04022D9E75022D7E718
:10665000401EC2B24621284600F02AFD57E0082C11
:1066600008D00A2C21D00C2C6AD00E2C7AD0002015
:1066700009B0F0BD10224821284600F019FD08227B
:106680004721284600F014FD02223221284600F05E
:106690000FFD0C223021284600F00AFD0122FF21C7
:1066A000284600F005FD302210E028224821284627
:1066B00000F0FEFC08224721284600F0F9FC0322E6
:1066C0003221284600F0F4FC09225BE03021284604
:1066D00000F0EEFC0022FF21284600F0E9FC3A46DB
:1066E0007021284600F0E4FC2146079800F0ACF841
:1066F0009DF8031080B219B1BDF80E10084480B2A5
:10670000FEF7C9FA02467121284600F0E5FC28464A
:10671000E968FFF7DFFE01212846FFF793FE0446F4
:1067200002220121284600F0C3FC00212846FFF781
:10673000B5F922460121284600F0BAFC012097E76E
:1067400038224821284600F0B3FC08224721284679
:1067500000F0AEFC03223221284600F0A9FC0822FA
:1067600010E0FFE748221146284600F0A1FC08226D
:106770004721284600F09CFC03223221284600F0E5
:1067800097FC07223021284600F092FC0122FF21CD
:10679000284600F08DFC202298E729210170002175
:1067A00041800171704770B50C4605460122802179
:1067B00000F07EFC0122FF21284600F079FC002237
:1067C0001146284600F074FC2A7A9121284600F0F0
:1067D0006FFC01220021284600F06AFC0022FF2104
:1067E000284600F065FC00228021284600F060FC6D
:1067F0008CB1F8212846FFF73BFE00B14443224606
:106800000421284600F07CFC04222846BDE87040A4
:10681000002100F04DBC0222F7E710B50446FAF75C
:10682000F9FEE08010BD43F62F2211FB02F14FF478
:10683000FA7202EB01215200B1FBF2F1484300EB86
:106840005100B0FBF2F0704743F62F2211FB02F12A
:106850004FF4FA7202EB01215200B1FBF2F1504306
:1068600000EB5100B0FBF1F0704700002DED088BFC
:1068700082B04FF480300A269FED8D9BDFED8E8A2B
:1068800000908E4F3868406AA7F5967505F5B67486
:1068900028602068406A04F140086860D8F8000069
:1068A000406A04F18009A860D9F80000406AE860F5
:1068B0003046FFF74FF83868416AA4F5BE700160B2
:1068C0002168496A4160D8F80010496A8160D9F8A6
:1068D0000010496A0024AB46DFF8E49182464FF489
:1068E0007A7800F130071035C160E0075BF82410BA
:1068F0005AF82400009A26D0FFF7D0FDF9F7F3FEEE
:10690000B0EE491AF0EE691A53EC112BF9F70AFEB2
:10691000F9F752FF45F8240098FBF6F000EE100A54
:1069200005EB8400F8EEC00A90ED000A20EE800A24
:1069300080ED000AB0EEC00A10EE101A494506DCE0
:1069400090ED000A09E0FFF7A9FD4042D6E707EB0A
:10695000840191ED000A80ED000A07EB8400641CBD
:1069600080ED000A042CC0DB564F002407F180089C
:1069700007F1700907F1100A07EB840090ED000A97
:10698000B5EEC00AF1EE10FA0BD108EB840000213D
:10699000C0ED008A09EB8400C0ED008A4AF824109B
:1069A00081E0DFED490A05EB8400484920EE20AA8A
:1069B000D0ED000A30EE608A18EE100A884206D246
:1069C00018EE100A4249884201DAB0EE688A00EEF9
:1069D000106AB8EEC00A68EE000A9FED3E1A08EB96
:1069E00084003D4A80EE810AD0ED000A30EE200A94
:1069F00010EE101A80ED000A914202DB9FED370A7B
:106A000006E010EE101A364A914203D39FED350A84
:106A100080ED000A09EB840B2A499BED000A9031B6
:106A200001EB840178EE400A00EE106AF8EEC01A1D
:106A300080EEA10AC0EE010A90ED001A91ED000A65
:106A4000294800EB840020EE010A90ED001A264848
:106A500001EE080A103000EB840090ED001A01EE00
:106A6000200A10EE100AF9F794FE41EC100BFDF726
:106A70001BFCB0EE40BAF0EE60BA1AEE100AF9F75D
:106A800088FE53EC1B2BF9F7A6FCF9F74AFE4AF8EF
:106A900024008BED008A002800DA404281B2E0B287
:106AA0000022FCF7F3FD641C042CFFF665AFE8E65A
:106AB000B677BAC7357F733F000000003802002068
:106AC0000000C842CC000020BD86D242AEF99BBB7C
:106AD000AEF99B3B00007A440000FA430000FA4301
:106AE0000000FAC30000FAC31C0000202DE9F047A3
:106AF0000122454CD50329462046FAF785FD434F30
:106B0000012229463846FAF77FFD414D05F120065E
:106B100095ED000AB5EEC00AF1EE10FA01D100229F
:106B200003E03068012816D0012202212046FAF73E
:106B30006BFD002204212046FAF766FD95ED010A5F
:106B40004FF480484FF40059B5EEC00AF1EE10FA48
:106B500008D100220AE0002202212046FAF754FD63
:106B60000122E7E77068012813D001224146204640
:106B7000FAF74AFD002249462046FAF745FD95ED11
:106B8000020A244CB5EEC00AF1EE10FA08D1002238
:106B90001DE0002241462046FAF736FD0122EAE7D1
:106BA000B068012812D0002204212046FAF72CFDFB
:106BB000012208212046FAF727FD95ED030AB5EEDC
:106BC000C00AF1EE10FA08D100220AE001220421E5
:106BD0002046FAF719FD0022EBE7F06801280BD0F8
:106BE000012241463846FAF70FFD00224946384651
:106BF000BDE8F047FAF708BD002241463846FAF7EB
:106C000003FD0122F2E70000000402400000024000
:106C1000CC0000200008024004280FDC084901EBEA
:106C2000800181ED000A074901EB8001C1ED000AF6
:106C30000349103101EB800080ED001A704700001D
:106C40001C0000205C010020C0B2FCF7C1BDD0E9EF
:106C5000013201699A60D0E901235A604A68824290
:106C600001D182684A60002202610868401E086003
:106C700008687047034B036003F15C0008608020E4
:106C80001060704770120020044B036003F15C0039
:106C900008604FF48070106070470000CC14002032
:106CA00000F108014FF0FF32C0E90112C16001613B
:106CB00000210160704700210161704730B50B6809
:106CC0005A1C02D000F1080202E0026904E02246E8
:106CD000546825689D42FAD953684B6099608A6070
:106CE000516008610168491C016030BD42684A601A
:106CF00093688B6093685960916008610168491CD2
:106D000001607047502080F31188BFF34F8FBFF3AD
:106D10006F8F0A494868401C486001280CD1084818
:106D2000006810F0FF0F07D0502080F31188BFF3E8
:106D30004F8FBFF36F8FFEE770470000B800002051
:106D400004ED00E00849486828B1401E486001D1C0
:106D500080F311887047502080F31188BFF34F8F64
:106D6000BFF36F8FFEE70000B800002070B5002869
:106D700027D0144DA0F108046168E868014207D1EA
:106D8000502080F31188BFF34F8FBFF36F8FFEE762
:106D900022683AB1502080F31188BFF34F8FBFF3C0
:106DA0006F8FFEE78143616000F02CF960686968CD
:106DB000084468602046FFF77BF8BDE8704000F0AB
:106DC000D5BD70BDA00000204FF0E0200021016182
:106DD000816105494FF47A720968B1FBF2F1491EED
:106DE00041610721016170474800002010B5F9F7A3
:106DF00051FA114910280ED300F1E02090F8F00369
:106E00000A78904207D2502080F31188BFF34F8F49
:106E1000BFF36F8FFEE709480068896800F4E060FF
:106E2000884207D9502080F31188BFF34F8FBFF3FA
:106E30006F8FFEE710BD0000B80000200CED00E0F1
:106E400010B5084B002200BF53F832401CB1521C51
:106E5000082AF9D310BD43F8321003EBC201486091
:106E600010BD0000540C002070B515460E460446B7
:106E7000FFF748FF94F944100020491C01D184F821
:106E8000440094F94510491C01D184F84500FFF7EE
:106E900059FFA06B28B92A46314604F1240000F0BE
:106EA00051F82046BDE87040FFF7B0B910B50200B8
:106EB00014D00F48806B38B1502080F31188BFF395
:106EC0004F8FBFF36F8FFEE700F09CF80021104654
:106ED000FEF708FE00F04AFD002807D105494FF0F3
:106EE00080500860BFF34F8FBFF36F8F10BD00005D
:106EF0004C00002004ED00E002498A6A0260496902
:106F0000416070474C0000200149012048627047F1
:106F10004C00002010B50C4650B1094909681831E1
:106F2000FFF7CCFE2046BDE810400121FEF7DABD98
:106F3000502080F31188BFF34F8FBFF36F8FFEE7B0
:106F40004C00002070B514460D4668B10A49096826
:106F50001831FFF7CBFE0CB14FF0FF352146284624
:106F6000BDE87040FEF7BEBD502080F31188BFF32E
:106F70004F8FBFF36F8FFEE74C00002030B587B016
:106F80000024039405AA04A903A80494FFF772FE41
:106F9000DDE903010094CDE90110002315A1174894
:106FA000059A00F0C8FB164D002868631FD000F05A
:106FB0003FFD012809D0401C19D1502080F31188D1
:106FC000BFF34F8FBFF36F8FFEE7502080F3118820
:106FD000BFF34F8FBFF36F8F4FF0FF302863012057
:106FE000E8616C6107B0BDE8304000F0A1B807B0BF
:106FF00030BD000049444C45000000007D5D0008A4
:107000004C0000200248816B491C816370470000DE
:107010004C000020164810B5816B11B1012141626E
:1070200010BD002141628169124A01E0B9B1491ED7
:1070300001EB810352F82330002BF7D001EB8103E1
:1070400002EB830202F1080453685B685360A342B9
:1070500001D15B685360DA680260816110BD502025
:1070600080F31188BFF34F8FBFF36F8FFEE70000EF
:107070004C000020940C00203EB56425069CCDE910
:107080000043490002950123FAF710FE01203EBD9E
:107090000EB54FF47A700092CDE901300A46012313
:1070A00052210248FAF702FE0EBD0000E401002062
:1070B0007CB5134604460A46257801A98DF80430AC
:1070C0000091044801232946FFF7D6FF00202074D1
:1070D0007CBD0000E40100207CB504460025267834
:1070E0008DF804508DF8052001AA00920A46034845
:1070F00002233146FFF7C0FF25747CBDE401002068
:107100007CB5054600242E788DF804408DF80540A6
:107110008DF806408DF8072001AA00920A46034820
:1071200004233146FFF7A8FF2C747CBDE401002046
:107130001CB537480168374A914207D1502080F387
:107140001188BFF34F8FBFF36F8FFEE7006831499F
:10715000491E884207D1502080F31188BFF34F8F1A
:10716000BFF36F8FFEE72C4908780190FF2008706D
:1071700008788DF800009DF800009DF8002000F0D0
:10718000F000904207D0502080F31188BFF34F8F5A
:10719000BFF36F8FFEE79DF80000204B00F050001A
:1071A00018700720986005E09DF8002052008DF8C7
:1071B0000020401E9DF800201206F5D49860032898
:1071C00007D0502080F31188BFF34F8FBFF36F8F2C
:1071D000FEE74FF440709860019808700C4820302A
:1071E000016841F470010160016841F07041016083
:1071F000FFF7EAFD00205860F9F714F80848016825
:1072000041F040410160F8F7F9FF00201CBD00008B
:1072100000ED00E071C20F4100E400E0B800002082
:1072200034EF00E038B5049D18B153B1CAB181B153
:1072300020E0502080F31188BFF34F8FBFF36F8F92
:10724000FEE7502080F31188BFF34F8FBFF36F8F9D
:10725000FEE7502080F31188BFF34F8FBFF36F8F8D
:10726000FEE739B1502080F31188BFF34F8FBFF391
:107270006F8FFEE750241C46012384F846302B46CE
:107280000094FEF7ABFD204638BD000070B50D46FA
:10729000040025D0FFF736FDD4E90F20216802FB5A
:1072A0000011A1600021A163216861600A46D4E950
:1072B0000F01401E00FB0121E16021464FF0FF302D
:1072C00001F8440F487004F110008DB1FFF7E8FC9D
:1072D00004F12400FFF7E4FCFFF734FD012070BD4A
:1072E000502080F31188BFF34F8FBFF36F8FFEE7FD
:1072F00021690029F0D000F001FB0028ECD00449FE
:107300004FF080500860BFF34F8FBFF36F8FE3E7FC
:1073100004ED00E02DE9FF4782B01D468A464FF09C
:107320000008040003D0BAF1000F08D011E050208B
:1073300080F31188BFF34F8FBFF36F8FFEE7206C90
:1073400038B1502080F31188BFF34F8FBFF36F8F98
:10735000FEE7022D0AD1E06B012807D0502080F310
:107360001188BFF34F8FBFF36F8FFEE700F00EFA67
:107370003F4F4FF000094FF0805648B9049838B19C
:10738000502080F31188BFF34F8FBFF36F8FFEE75C
:10739000FFF7B8FCA06BE16B884207D3022D05D044
:1073A0000498D0B1B8F1000F1AD01EE02A46514619
:1073B0002046FEF76CFC616A19B104F1240000F06C
:1073C0009DFA20B13E60BFF34F8FBFF36F8FFFF781
:1073D000B9FC012006B0BDE8F087FFF7B3FC22E05E
:1073E0006846FFF789FD4FF00108FFF7ABFCFFF798
:1073F00009FEFFF787FC94F94400401C01D184F892
:10740000449094F94500401C01D184F84590FFF761
:1074100099FC04A9684600F027F930B12046FEF730
:10742000F5FE00F0A3FA0020D4E7FFF76BFCA06B99
:10743000E16B884213D1FFF785FC04F11000049939
:10744000FFF768FD2046FEF7E1FE00F08FFA002806
:107450009ED13E60BFF34F8FBFF36F8F98E7FFF76A
:1074600071FC2046FEF7D2FE00F080FA90E70000A3
:1074700004ED00E02DE9F0471F46904689460400E0
:1074800003D0B9F1000F08D011E0502080F311882B
:10749000BFF34F8FBFF36F8FFEE7206C38B15020E2
:1074A00080F31188BFF34F8FBFF36F8FFEE7022F7A
:1074B0000AD1E06B012807D0502080F31188BFF378
:1074C0004F8FBFF36F8FFEE7FFF790FC5020EFF375
:1074D000118680F31188BFF34F8FBFF36F8FA06BBE
:1074E000E16B884206D3022F04D0002086F3118876
:1074F000BDE8F08794F945503A4649462046FEF7E4
:10750000C6FB681C04D06D1C84F845500120EDE7D3
:10751000606A0028FAD004F1240000F0EFF9002896
:10752000F4D0B8F1000FF1D00121C8F80010EDE758
:107530002DE9F747002683B08A46040003D0BAF14C
:10754000000F08D011E0502080F31188BFF34F8F57
:10755000BFF36F8FFEE7206C38B1502080F31188A5
:10756000BFF34F8FBFF36F8FFEE700F00FF9DFF827
:10757000F4804FF000094FF0805748B9059838B1B2
:10758000502080F31188BFF34F8FBFF36F8FFEE75A
:10759000FFF7B8FBA56BC5B151462046FEF764FB6B
:1075A0006D1EA563206950B104F1100000F0A6F92A
:1075B00028B1C8F80070BFF34F8FBFF36F8FFFF78C
:1075C000C1FB012006B0BDE8F087059808B11EB1E7
:1075D00006E0FFF7B7FB27E06846FFF78DFC0126C2
:1075E000FFF7B0FBFFF70EFDFFF78CFB94F94400AB
:1075F000401C01D184F8449094F94500401C01D10D
:1076000084F84590FFF79EFB05A9684600F02CF82A
:10761000002820460AD0FEF7F9FD00F0A7F9204621
:10762000FEF788FC0028B3D00020CBE7FEF782FCF1
:1076300090B104F124000599FFF76CFC2046FEF799
:10764000E5FD00F093F90028A2D1C8F80070BFF35F
:107650004F8FBFF36F8F9BE72046FEF7D7FD00F0FB
:1076600085F995E704ED00E02DE9F0410C460500B1
:1076700011D0C4B1FFF746FB174B5A696E682068FA
:10768000911B471C17D02F689B6A9F4219D09642C6
:1076900017D8012410E0502080F31188BFF34F8FDA
:1076A000BFF36F8FFEE7502080F31188BFF34F8F39
:1076B000BFF36F8FFEE70024FFF744FB2046BDE8D1
:1076C000F081884205D9401A20602846FFF714FC53
:1076D000F1E700202060DCE74C0000202DE9FF5F8F
:1076E0008346DDE90E87994616468A469000FEF7E6
:1076F000C3FD05001CD05C20FEF7BEFD040014D0C5
:107700000020256384F85900CDE90240CDE90087C7
:107710004B46324651465846FEF772FB2046FEF76E
:107720000FFA012004B0BDE8F09F2846FFF71EFBCA
:107730004FF0FF30F6E7F0B585B0DDE90B640A9D48
:10774000A6B1DCB15C2700972663022684F8596055
:10775000002604AFCDE90246CDE90057FEF750FB05
:107760002046FEF7EDF9049805B0F0BD502080F3F7
:107770001188BFF34F8FBFF36F8FFEE7502080F368
:107780001188BFF34F8FBFF36F8FFEE70548C169C4
:1077900019B1806B18B1002070470120704702209A
:1077A000704700004C00002001484069704700000D
:1077B0004C0000202DE9F0412E4C0027A06B40B179
:1077C000206A401C2062606A00B101273846BDE88B
:1077D000F0816669761C666113D16068006838B113
:1077E000502080F31188BFF34F8FBFF36F8FFEE7F8
:1077F0006068A1686160A060A06A401CA062FEF79A
:1078000085FC206BDFF87080864209D360680068D1
:1078100080B16068C068C568686886420DD2206320
:107820002068C06A00EB800158F821000128CAD9FD
:107830000127C8E74FF0FF30F1E7281DFFF707FAEF
:10784000A86A18B105F11800FFF701FAE86AA16902
:10785000884200D9A06100EB800108EB8100291D5E
:10786000FFF744FAE86A2168C96A8842CED3012743
:10787000CCE700004C000020940C002070B5040000
:107880004FF0000133D01B4D2868844207D05020B0
:1078900080F31188BFF34F8FBFF36F8FFEE7206D2A
:1078A00038B1401E2065E36CE26A9A421FD040B1B5
:1078B0001DE0502080F31188BFF34F8FBFF36F8F0F
:1078C000FEE7201DFFF7C3F9E06CE062C0F138006D
:1078D000A061E06AA969884200D9A861064900EB65
:1078E000800001EB8000211DFFF700FA012108460E
:1078F00070BD00004C000020940C002070B5C068E2
:10790000C46854B104F118000646FFF7A0F9144DFD
:10791000A86B50B13146134815E0502080F3118810
:10792000BFF34F8FBFF36F8FFEE7201DFFF78FF977
:10793000E06AA969884200D9A8610B4900EB800080
:1079400001EB8000211DFFF7D1F9E06A2968C96ABF
:10795000884202D90120686270BD002070BD00001D
:107960004C0000201C110020940C00202DE9F04751
:107970002C4D00242746A86B38B1FFF7C3F9A86B3C
:10798000401EA863A86B40B146E0502080F31188E8
:10799000BFF34F8FBFF36F8FFEE72969224E01209F
:1079A000D1B3A6F5916980463068E0B1F068C4684B
:1079B00004F11800FFF74BF9201DFFF748F9E06AC2
:1079C000A969884200D9A86100EB800109EB810018
:1079D000211DFFF78BF9E06A2968C96A8842E3D361
:1079E000C5F82480E0E70CB1FEF790FB2C6A4CB19F
:1079F0004FEA0806FFF7DEFE00B16E62641EF9D1A1
:107A000000202862686A38B10849012738070860F1
:107A1000BFF34F8FBFF36F8FFFF794F93846BDE880
:107A2000F08700004C0000201C11002004ED00E055
:107A300010B586B0FEF7ECF8114CA068B8B1002084
:107A40000390049005AA04A903A8FFF71DF9DDE936
:107A5000032102208DE8070000230AA10B48059AA4
:107A6000FFF769FEE06010B106B0012010BD5020A4
:107A700080F31188BFF34F8FBFF36F8FFEE70000D5
:107A800088000020546D722053766300E96100087D
:107A90002DE9FF411E46134602000A9D4FF00000EB
:107AA00016D0144CA768002F0FD0CDE90013029216
:107AB000062917DAFFF76AFE02284FF000030FD0FD
:107AC00000226946A068FFF725FC04B0BDE8F081FC
:107AD000502080F31188BFF34F8FBFF36F8FFEE705
:107AE0002A46EEE70023324669463846FFF7C2FCD5
:107AF000EBE7000088000020407C00080000000048
:107B00000000000000000000000000000002000073
:107B1000300000000000000000000000607C000851
:107B20000000000000000000000000000000000055
:107B3000000200000800000000000000000000003B
:107B4000307C000800000000000000000000000081
:107B5000000000000002000008000000000000001B
:107B600000000000507C0008000000000000000041
:107B700000000000000000000002000031000000D2
:107B8000000000000000000000061016000610169D
:107B900000000000000000000102030406070809BD
:107BA000000000000102030400404040404040400B
:107BB00040404141414141404040404040404040C0
:107BC0004040404040404040400502020202020264
:107BD00002020202020202020220202020202020B3
:107BE00020202002020202020202909090909090C7
:107BF0001010101010101010101010101010101085
:107C000010101010020202020202888888888888F8
:107C100008080808080808080808080808080808E4
:107C2000080808080202020240000000A97B0008C0
:107C3000526561644C617365725461736B0000003E
:107C4000554152545061727365725461736B0000F8
:107C50005570646174654D6F746F725461736B001D
:107C60005072696E745374617475735461736B00F0
:107C7000907C000800000020CC0000009443000825
:107C80005C7D0008CC0000205C580000A443000884
:107C900000000000000000000000000000000000E4
:107CA0000000000000000000000000000000A040F4
:107CB0000000A040000000410000C0400000803FE4
:107CC0000000803F0000803F0000803F0100000076
:107CD00010000000000000000024F400000000007C
:107CE0000000000000000000000000000000000094
:107CF0000000000000000000000000000000000084
:107D00000000000000000000000000000000000073
:107D10000000000000000000000000000000000063
:107D20000000000000000000000000000000000053
:107D30000000000000000000000000000000000043
:107D4000000000000000000000000000AAAAAAAA8B
:0C7D500000000000000000000000000027
:04000005080001C529
:00000001FF
