Component: ARM Compiler 5.06 update 7 (build 960) Tool: armlink [4d3601]

==============================================================================

Section Cross References

    startup_stm32f446xx.o(RESET) refers to startup_stm32f446xx.o(STACK) for __initial_sp
    startup_stm32f446xx.o(RESET) refers to startup_stm32f446xx.o(.text) for Reset_Handler
    startup_stm32f446xx.o(RESET) refers to stm32f4xx_it.o(i.NMI_Handler) for NMI_Handler
    startup_stm32f446xx.o(RESET) refers to stm32f4xx_it.o(i.HardFault_Handler) for HardFault_Handler
    startup_stm32f446xx.o(RESET) refers to stm32f4xx_it.o(i.MemManage_Handler) for MemManage_Handler
    startup_stm32f446xx.o(RESET) refers to stm32f4xx_it.o(i.BusFault_Handler) for BusFault_Handler
    startup_stm32f446xx.o(RESET) refers to stm32f4xx_it.o(i.UsageFault_Handler) for UsageFault_Handler
    startup_stm32f446xx.o(RESET) refers to port.o(.emb_text) for SVC_Handler
    startup_stm32f446xx.o(RESET) refers to stm32f4xx_it.o(i.DebugMon_Handler) for DebugMon_Handler
    startup_stm32f446xx.o(RESET) refers to port.o(i.SysTick_Handler) for SysTick_Handler
    startup_stm32f446xx.o(RESET) refers to stm32f4xx_it.o(i.DMA1_Stream5_IRQHandler) for DMA1_Stream5_IRQHandler
    startup_stm32f446xx.o(RESET) refers to stm32f4xx_it.o(i.TIM1_UP_TIM10_IRQHandler) for TIM1_UP_TIM10_IRQHandler
    startup_stm32f446xx.o(RESET) refers to stm32f4xx_it.o(i.USART2_IRQHandler) for USART2_IRQHandler
    startup_stm32f446xx.o(.text) refers to system_stm32f4xx.o(i.SystemInit) for SystemInit
    startup_stm32f446xx.o(.text) refers to entry.o(.ARM.Collect$$$$00000000) for __main
    pca9685.o(i.PCA9685_AllCallRespond) refers to pca9685.o(i.PCA9685_SetBit) for PCA9685_SetBit
    pca9685.o(i.PCA9685_AutoIncrement) refers to pca9685.o(i.PCA9685_SetBit) for PCA9685_SetBit
    pca9685.o(i.PCA9685_Init) refers to pca9685.o(i.PCA9685_SoftwareReset) for PCA9685_SoftwareReset
==============================================================================

Removing Unused input sections from the image.

    Removing startup_stm32f446xx.o(HEAP), (512 bytes).
    Removing pca9685.o(.rev16_text), (4 bytes).
    Removing pca9685.o(.revsh_text), (4 bytes).
    Removing pca9685.o(.rrx_text), (6 bytes).
    Removing pca9685.o(i.PCA9685_AllCallRespond), (10 bytes).
    Removing pca9685.o(i.PCA9685_SubaddressRespond), (10 bytes).
    Removing vl53l0x.o(.rev16_text), (4 bytes).
    Removing vl53l0x.o(.revsh_text), (4 bytes).
    Removing vl53l0x.o(.rrx_text), (6 bytes).
    Removing vl53l0x.o(i.calcMacroPeriod), (24 bytes).
    Removing vl53l0x.o(i.encodeVcselPeriod), (10 bytes).
    Removing vl53l0x.o(i.getAddress), (4 bytes).
    Removing vl53l0x.o(i.getSignalRateLimit), (32 bytes).
    Removing vl53l0x.o(i.getTimeout), (4 bytes).
    Removing vl53l0x.o(i.getWhoAmI), (6 bytes).
    Removing vl53l0x.o(i.readRangeSingleMillimeters), (130 bytes).
    Removing vl53l0x.o(i.readReg32Bit), (68 bytes).
    Removing vl53l0x.o(i.stopContinuous), (66 bytes).
==============================================================================

Image Symbol Table

    Local Symbols

    Symbol Name                              Value     Ov Type        Size  Object(Section)

    ../Core/Src/freertos.c                   0x00000000   Number         0  freertos.o ABSOLUTE
    ../Core/Src/main.c                       0x00000000   Number         0  main.o ABSOLUTE
    ../Core/Src/stm32f4xx_hal_msp.c          0x00000000   Number         0  stm32f4xx_hal_msp.o ABSOLUTE
    ../Core/Src/stm32f4xx_hal_timebase_tim.c 0x00000000   Number         0  stm32f4xx_hal_timebase_tim.o ABSOLUTE
    ../Core/Src/stm32f4xx_it.c               0x00000000   Number         0  stm32f4xx_it.o ABSOLUTE
    ../Core/Src/system_stm32f4xx.c           0x00000000   Number         0  system_stm32f4xx.o ABSOLUTE
    ../Drivers/STM32F4xx_HAL_Driver/Src/stm32f4xx_hal.c 0x00000000   Number         0  stm32f4xx_hal.o ABSOLUTE
    ../Drivers/STM32F4xx_HAL_Driver/Src/stm32f4xx_hal_cortex.c 0x00000000   Number         0  stm32f4xx_hal_cortex.o ABSOLUTE
    ../Drivers/STM32F4xx_HAL_Driver/Src/stm32f4xx_hal_dma.c 0x00000000   Number         0  stm32f4xx_hal_dma.o ABSOLUTE
    ../Drivers/STM32F4xx_HAL_Driver/Src/stm32f4xx_hal_dma_ex.c 0x00000000   Number         0  stm32f4xx_hal_dma_ex.o ABSOLUTE
    ../Drivers/STM32F4xx_HAL_Driver/Src/stm32f4xx_hal_exti.c 0x00000000   Number         0  stm32f4xx_hal_exti.o ABSOLUTE
    ../Drivers/STM32F4xx_HAL_Driver/Src/stm32f4xx_hal_flash.c 0x00000000   Number         0  stm32f4xx_hal_flash.o ABSOLUTE
    ../Drivers/STM32F4xx_HAL_Driver/Src/stm32f4xx_hal_flash_ex.c 0x00000000   Number         0  stm32f4xx_hal_flash_ex.o ABSOLUTE
    ../Drivers/STM32F4xx_HAL_Driver/Src/stm32f4xx_hal_flash_ramfunc.c 0x00000000   Number         0  stm32f4xx_hal_flash_ramfunc.o ABSOLUTE
    ../Drivers/STM32F4xx_HAL_Driver/Src/stm32f4xx_hal_gpio.c 0x00000000   Number         0  stm32f4xx_hal_gpio.o ABSOLUTE
    ../Drivers/STM32F4xx_HAL_Driver/Src/stm32f4xx_hal_i2c.c 0x00000000   Number         0  stm32f4xx_hal_i2c.o ABSOLUTE
    ../Drivers/STM32F4xx_HAL_Driver/Src/stm32f4xx_hal_i2c_ex.c 0x00000000   Number         0  stm32f4xx_hal_i2c_ex.o ABSOLUTE
    ../Drivers/STM32F4xx_HAL_Driver/Src/stm32f4xx_hal_pwr.c 0x00000000   Number         0  stm32f4xx_hal_pwr.o ABSOLUTE
    ../Drivers/STM32F4xx_HAL_Driver/Src/stm32f4xx_hal_pwr_ex.c 0x00000000   Number         0  stm32f4xx_hal_pwr_ex.o ABSOLUTE
    ../Drivers/STM32F4xx_HAL_Driver/Src/stm32f4xx_hal_rcc.c 0x00000000   Number         0  stm32f4xx_hal_rcc.o ABSOLUTE
    ../Drivers/STM32F4xx_HAL_Driver/Src/stm32f4xx_hal_rcc_ex.c 0x00000000   Number         0  stm32f4xx_hal_rcc_ex.o ABSOLUTE
    ../Drivers/STM32F4xx_HAL_Driver/Src/stm32f4xx_hal_tim.c 0x00000000   Number         0  stm32f4xx_hal_tim.o ABSOLUTE
    ../Drivers/STM32F4xx_HAL_Driver/Src/stm32f4xx_hal_tim_ex.c 0x00000000   Number         0  stm32f4xx_hal_tim_ex.o ABSOLUTE
    ../Drivers/STM32F4xx_HAL_Driver/Src/stm32f4xx_hal_uart.c 0x00000000   Number         0  stm32f4xx_hal_uart.o ABSOLUTE
    ../Middlewares/Third_Party/FreeRTOS/Source/CMSIS_RTOS_V2/cmsis_os2.c 0x00000000   Number         0  cmsis_os2.o ABSOLUTE
    ../Middlewares/Third_Party/FreeRTOS/Source/croutine.c 0x00000000   Number         0  croutine.o ABSOLUTE
    ../Middlewares/Third_Party/FreeRTOS/Source/event_groups.c 0x00000000   Number         0  event_groups.o ABSOLUTE
    ../Middlewares/Third_Party/FreeRTOS/Source/list.c 0x00000000   Number         0  list.o ABSOLUTE
    ../Middlewares/Third_Party/FreeRTOS/Source/portable/MemMang/heap_4.c 0x00000000   Number         0  heap_4.o ABSOLUTE
    ../Middlewares/Third_Party/FreeRTOS/Source/portable/RVDS/ARM_CM4F/port.c 0x00000000   Number         0  port.o ABSOLUTE
    ../Middlewares/Third_Party/FreeRTOS/Source/queue.c 0x00000000   Number         0  queue.o ABSOLUTE
    ../Middlewares/Third_Party/FreeRTOS/Source/stream_buffer.c 0x00000000   Number         0  stream_buffer.o ABSOLUTE
    ../Middlewares/Third_Party/FreeRTOS/Source/tasks.c 0x00000000   Number         0  tasks.o ABSOLUTE
    ../Middlewares/Third_Party/FreeRTOS/Source/timers.c 0x00000000   Number         0  timers.o ABSOLUTE
    ../clib/microlib/ctype/ctype.c           0x00000000   Number         0  ctype_c.o ABSOLUTE
    ../clib/microlib/ctype/ctype.c           0x00000000   Number         0  isxdigit_o.o ABSOLUTE
    ../clib/microlib/ctype/ctype.c           0x00000000   Number         0  isupper_o.o ABSOLUTE
    ../clib/microlib/ctype/ctype.c           0x00000000   Number         0  isspace_c.o ABSOLUTE
    ../clib/microlib/ctype/ctype.c           0x00000000   Number         0  ctype_o.o ABSOLUTE
    ../clib/microlib/ctype/ctype.c           0x00000000   Number         0  isalnum_o.o ABSOLUTE
    ../clib/microlib/ctype/ctype.c           0x00000000   Number         0  isalpha_o.o ABSOLUTE
    ../clib/microlib/ctype/ctype.c           0x00000000   Number         0  isblank_o.o ABSOLUTE
    ../clib/microlib/ctype/ctype.c           0x00000000   Number         0  iscntrl_o.o ABSOLUTE
    ../clib/microlib/ctype/ctype.c           0x00000000   Number         0  isdigit_o.o ABSOLUTE
    ../clib/microlib/ctype/ctype.c           0x00000000   Number         0  islower_o.o ABSOLUTE
    ../clib/microlib/ctype/ctype.c           0x00000000   Number         0  isprint_o.o ABSOLUTE
    ../clib/microlib/ctype/ctype.c           0x00000000   Number         0  ispunct_o.o ABSOLUTE
    ../clib/microlib/ctype/ctype.c           0x00000000   Number         0  isspace_o.o ABSOLUTE
    ../clib/microlib/ctype/ctype.c           0x00000000   Number         0  isgraph_o.o ABSOLUTE
    ../clib/microlib/division.c              0x00000000   Number         0  uidiv.o ABSOLUTE
    ../clib/microlib/division.c              0x00000000   Number         0  uldiv.o ABSOLUTE
    ../clib/microlib/errno.c                 0x00000000   Number         0  errno.o ABSOLUTE
    ../clib/microlib/init/entry.s            0x00000000   Number         0  entry12b.o ABSOLUTE
    ../clib/microlib/init/entry.s            0x00000000   Number         0  entry7b.o ABSOLUTE
    ../clib/microlib/init/entry.s            0x00000000   Number         0  entry7a.o ABSOLUTE
    ../clib/microlib/init/entry.s            0x00000000   Number         0  entry5.o ABSOLUTE
    ../clib/microlib/init/entry.s            0x00000000   Number         0  entry2.o ABSOLUTE
    ../clib/microlib/init/entry.s            0x00000000   Number         0  entry.o ABSOLUTE
    ../clib/microlib/init/entry.s            0x00000000   Number         0  entry9b.o ABSOLUTE
    ../clib/microlib/init/entry.s            0x00000000   Number         0  entry9a.o ABSOLUTE
    ../clib/microlib/init/entry.s            0x00000000   Number         0  entry8b.o ABSOLUTE
    ../clib/microlib/init/entry.s            0x00000000   Number         0  entry10a.o ABSOLUTE
    ../clib/microlib/init/entry.s            0x00000000   Number         0  entry12a.o ABSOLUTE
    ../clib/microlib/init/entry.s            0x00000000   Number         0  entry11b.o ABSOLUTE
    ../clib/microlib/init/entry.s            0x00000000   Number         0  entry8a.o ABSOLUTE
    ../clib/microlib/init/entry.s            0x00000000   Number         0  entry11a.o ABSOLUTE
    ../clib/microlib/init/entry.s            0x00000000   Number         0  entry10b.o ABSOLUTE
    ../clib/microlib/longlong.c              0x00000000   Number         0  llshl.o ABSOLUTE
    ../clib/microlib/longlong.c              0x00000000   Number         0  llsshr.o ABSOLUTE
    ../clib/microlib/longlong.c              0x00000000   Number         0  llushr.o ABSOLUTE
    ../clib/microlib/printf/printf.c         0x00000000   Number         0  printf1.o ABSOLUTE
    ../clib/microlib/printf/printf.c         0x00000000   Number         0  printf0.o ABSOLUTE
    ../clib/microlib/printf/printf.c         0x00000000   Number         0  printfb.o ABSOLUTE
    ../clib/microlib/printf/printf.c         0x00000000   Number         0  printf6.o ABSOLUTE
    ../clib/microlib/printf/printf.c         0x00000000   Number         0  printf8.o ABSOLUTE
    ../clib/microlib/printf/printf.c         0x00000000   Number         0  printf2.o ABSOLUTE
    ../clib/microlib/printf/printf.c         0x00000000   Number         0  printf3.o ABSOLUTE
    ../clib/microlib/printf/printf.c         0x00000000   Number         0  printf4.o ABSOLUTE
    ../clib/microlib/printf/printf.c         0x00000000   Number         0  printf7.o ABSOLUTE
    ../clib/microlib/printf/printf.c         0x00000000   Number         0  printfa.o ABSOLUTE
    ../clib/microlib/printf/printf.c         0x00000000   Number         0  printf5.o ABSOLUTE
    ../clib/microlib/printf/stubs.s          0x00000000   Number         0  stubs.o ABSOLUTE
    ../clib/microlib/stdio/fputc.c           0x00000000   Number         0  fputc.o ABSOLUTE
    ../clib/microlib/stdio/semi.s            0x00000000   Number         0  semi.o ABSOLUTE
    ../clib/microlib/stdio/streams.c         0x00000000   Number         0  stdout.o ABSOLUTE
    ../clib/microlib/string/memcpy.c         0x00000000   Number         0  memcpyb.o ABSOLUTE
    ../clib/microlib/string/memcpy.c         0x00000000   Number         0  memcpya.o ABSOLUTE
    ../clib/microlib/string/memset.c         0x00000000   Number         0  memset.o ABSOLUTE
    ../clib/microlib/string/memset.c         0x00000000   Number         0  memseta.o ABSOLUTE
    ../clib/microlib/string/strlen.c         0x00000000   Number         0  strlen.o ABSOLUTE
    ../clib/microlib/string/strtok.c         0x00000000   Number         0  strtok_r.o ABSOLUTE
    ../clib/microlib/string/strtok.c         0x00000000   Number         0  strtok.o ABSOLUTE
    ../clib/microlib/stubs.s                 0x00000000   Number         0  iusefp.o ABSOLUTE
    ../clib/microlib/stubs.s                 0x00000000   Number         0  iusesemip.o ABSOLUTE
    ../clib/scanf.c                          0x00000000   Number         0  strtol.o ABSOLUTE
    ../clib/scanf.c                          0x00000000   Number         0  atoi.o ABSOLUTE
    ../clib/scanf.c                          0x00000000   Number         0  strtod.o ABSOLUTE
    ../clib/scanf.c                          0x00000000   Number         0  scanf_fp.o ABSOLUTE
    ../clib/scanf.c                          0x00000000   Number         0  _chval.o ABSOLUTE
    ../clib/scanf.c                          0x00000000   Number         0  _strtoul.o ABSOLUTE
    ../clib/scanf.c                          0x00000000   Number         0  _sgetc.o ABSOLUTE
    ../fplib/microlib/d2f.c                  0x00000000   Number         0  d2f.o ABSOLUTE
    ../fplib/microlib/f2d.c                  0x00000000   Number         0  f2d.o ABSOLUTE
    ../fplib/microlib/fpadd.c                0x00000000   Number         0  dadd.o ABSOLUTE
    ../fplib/microlib/fpdiv.c                0x00000000   Number         0  ddiv.o ABSOLUTE
    ../fplib/microlib/fpepilogue.c           0x00000000   Number         0  fepilogue.o ABSOLUTE
    ../fplib/microlib/fpepilogue.c           0x00000000   Number         0  depilogue.o ABSOLUTE
    ../fplib/microlib/fpfix.c                0x00000000   Number         0  dfixul.o ABSOLUTE
    ../fplib/microlib/fpfix.c                0x00000000   Number         0  dfixi.o ABSOLUTE
    ../fplib/microlib/fpfix.c                0x00000000   Number         0  dfixui.o ABSOLUTE
    ../fplib/microlib/fpflt.c                0x00000000   Number         0  dflti.o ABSOLUTE
    ../fplib/microlib/fpflt.c                0x00000000   Number         0  dfltui.o ABSOLUTE
    ../fplib/microlib/fpflt.c                0x00000000   Number         0  dfltul.o ABSOLUTE
    ../fplib/microlib/fpmul.c                0x00000000   Number         0  dmul.o ABSOLUTE
    ../fplib/microlib/fprnd.c                0x00000000   Number         0  drnd.o ABSOLUTE
    ../mathlib/atof.c                        0x00000000   Number         0  atof.o ABSOLUTE
    ../mathlib/floor.c                       0x00000000   Number         0  floor.o ABSOLUTE
    ../mathlib/round.c                       0x00000000   Number         0  round.o ABSOLUTE
    ..\Core\Src\VL53L0X.c                    0x00000000   Number         0  vl53l0x.o ABSOLUTE
    ..\Core\Src\freertos.c                   0x00000000   Number         0  freertos.o ABSOLUTE
    ..\Core\Src\main.c                       0x00000000   Number         0  main.o ABSOLUTE
    ..\Core\Src\pca9685.c                    0x00000000   Number         0  pca9685.o ABSOLUTE
    ..\Core\Src\stm32f4xx_hal_msp.c          0x00000000   Number         0  stm32f4xx_hal_msp.o ABSOLUTE
    ..\Core\Src\stm32f4xx_hal_timebase_tim.c 0x00000000   Number         0  stm32f4xx_hal_timebase_tim.o ABSOLUTE
    ..\Core\Src\stm32f4xx_it.c               0x00000000   Number         0  stm32f4xx_it.o ABSOLUTE
    ..\Core\Src\system_stm32f4xx.c           0x00000000   Number         0  system_stm32f4xx.o ABSOLUTE
    ..\Drivers\STM32F4xx_HAL_Driver\Src\stm32f4xx_hal.c 0x00000000   Number         0  stm32f4xx_hal.o ABSOLUTE
    ..\Drivers\STM32F4xx_HAL_Driver\Src\stm32f4xx_hal_cortex.c 0x00000000   Number         0  stm32f4xx_hal_cortex.o ABSOLUTE
    ..\Drivers\STM32F4xx_HAL_Driver\Src\stm32f4xx_hal_dma.c 0x00000000   Number         0  stm32f4xx_hal_dma.o ABSOLUTE
    ..\Drivers\STM32F4xx_HAL_Driver\Src\stm32f4xx_hal_dma_ex.c 0x00000000   Number         0  stm32f4xx_hal_dma_ex.o ABSOLUTE
    ..\Drivers\STM32F4xx_HAL_Driver\Src\stm32f4xx_hal_exti.c 0x00000000   Number         0  stm32f4xx_hal_exti.o ABSOLUTE
    ..\Drivers\STM32F4xx_HAL_Driver\Src\stm32f4xx_hal_flash.c 0x00000000   Number         0  stm32f4xx_hal_flash.o ABSOLUTE
    ..\Drivers\STM32F4xx_HAL_Driver\Src\stm32f4xx_hal_flash_ex.c 0x00000000   Number         0  stm32f4xx_hal_flash_ex.o ABSOLUTE
    ..\Drivers\STM32F4xx_HAL_Driver\Src\stm32f4xx_hal_flash_ramfunc.c 0x00000000   Number         0  stm32f4xx_hal_flash_ramfunc.o ABSOLUTE
    ..\Drivers\STM32F4xx_HAL_Driver\Src\stm32f4xx_hal_gpio.c 0x00000000   Number         0  stm32f4xx_hal_gpio.o ABSOLUTE
    ..\Drivers\STM32F4xx_HAL_Driver\Src\stm32f4xx_hal_i2c.c 0x00000000   Number         0  stm32f4xx_hal_i2c.o ABSOLUTE
    ..\Drivers\STM32F4xx_HAL_Driver\Src\stm32f4xx_hal_i2c_ex.c 0x00000000   Number         0  stm32f4xx_hal_i2c_ex.o ABSOLUTE
    ..\Drivers\STM32F4xx_HAL_Driver\Src\stm32f4xx_hal_pwr.c 0x00000000   Number         0  stm32f4xx_hal_pwr.o ABSOLUTE
    ..\Drivers\STM32F4xx_HAL_Driver\Src\stm32f4xx_hal_pwr_ex.c 0x00000000   Number         0  stm32f4xx_hal_pwr_ex.o ABSOLUTE
    ..\Drivers\STM32F4xx_HAL_Driver\Src\stm32f4xx_hal_rcc.c 0x00000000   Number         0  stm32f4xx_hal_rcc.o ABSOLUTE
    ..\Drivers\STM32F4xx_HAL_Driver\Src\stm32f4xx_hal_rcc_ex.c 0x00000000   Number         0  stm32f4xx_hal_rcc_ex.o ABSOLUTE
    ..\Drivers\STM32F4xx_HAL_Driver\Src\stm32f4xx_hal_tim.c 0x00000000   Number         0  stm32f4xx_hal_tim.o ABSOLUTE
    ..\Drivers\STM32F4xx_HAL_Driver\Src\stm32f4xx_hal_tim_ex.c 0x00000000   Number         0  stm32f4xx_hal_tim_ex.o ABSOLUTE
    ..\Drivers\STM32F4xx_HAL_Driver\Src\stm32f4xx_hal_uart.c 0x00000000   Number         0  stm32f4xx_hal_uart.o ABSOLUTE
    ..\Middlewares\Third_Party\FreeRTOS\Source\CMSIS_RTOS_V2\cmsis_os2.c 0x00000000   Number         0  cmsis_os2.o ABSOLUTE
    ..\Middlewares\Third_Party\FreeRTOS\Source\portable\RVDS\ARM_CM4F\port.c 0x00000000   Number         0  port.o ABSOLUTE
    ..\\Core\\Src\\VL53L0X.c                 0x00000000   Number         0  vl53l0x.o ABSOLUTE
    ..\\Core\\Src\\pca9685.c                 0x00000000   Number         0  pca9685.o ABSOLUTE
    cdcmple.s                                0x00000000   Number         0  cdcmple.o ABSOLUTE
    cdrcmple.s                               0x00000000   Number         0  cdrcmple.o ABSOLUTE
    dc.s                                     0x00000000   Number         0  dc.o ABSOLUTE
    handlers.s                               0x00000000   Number         0  handlers.o ABSOLUTE
    init.s                                   0x00000000   Number         0  init.o ABSOLUTE
    startup_stm32f446xx.s                    0x00000000   Number         0  startup_stm32f446xx.o ABSOLUTE
    RESET                                    0x08000000   Section      452  startup_stm32f446xx.o(RESET)
    .ARM.Collect$$$$00000000                 0x080001c4   Section        0  entry.o(.ARM.Collect$$$$00000000)
    .ARM.Collect$$$$00000001                 0x080001c4   Section        4  entry2.o(.ARM.Collect$$$$00000001)
    .ARM.Collect$$$$00000004                 0x080001c8   Section        4  entry5.o(.ARM.Collect$$$$00000004)
    .ARM.Collect$$$$00000008                 0x080001cc   Section        0  entry7b.o(.ARM.Collect$$$$00000008)
    .ARM.Collect$$$$0000000A                 0x080001cc   Section        0  entry8b.o(.ARM.Collect$$$$0000000A)
    .ARM.Collect$$$$0000000B                 0x080001cc   Section        8  entry9a.o(.ARM.Collect$$$$0000000B)
    .ARM.Collect$$$$0000000E                 0x080001d4   Section        4  entry12b.o(.ARM.Collect$$$$0000000E)
    .ARM.Collect$$$$0000000F                 0x080001d8   Section        0  entry10a.o(.ARM.Collect$$$$0000000F)
    .ARM.Collect$$$$00000011                 0x080001d8   Section        0  entry11a.o(.ARM.Collect$$$$00000011)
    .ARM.Collect$$$$00002712                 0x080001d8   Section        4  entry2.o(.ARM.Collect$$$$00002712)
    __lit__00000000                          0x080001d8   Data           4  entry2.o(.ARM.Collect$$$$00002712)
    .emb_text                                0x080001dc   Section      190  port.o(.emb_text)
    $v0                                      0x080001dc   Number         0  port.o(.emb_text)
    .text                                    0x0800029c   Section       36  startup_stm32f446xx.o(.text)
    $v0                                      0x0800029c   Number         0  startup_stm32f446xx.o(.text)
    .text                                    0x080002c0   Section        0  uldiv.o(.text)
    .text                                    0x08000322   Section        0  memcpya.o(.text)
    .text                                    0x08000346   Section        0  memseta.o(.text)
    .text                                    0x0800036a   Section        0  strlen.o(.text)
    .text                                    0x08000378   Section        0  strtok.o(.text)
    .text                                    0x080003bc   Section        0  atoi.o(.text)
    .text                                    0x080003d6   Section        0  dadd.o(.text)
    .text                                    0x08000524   Section        0  dmul.o(.text)
    .text                                    0x08000608   Section        0  ddiv.o(.text)
    .text                                    0x080006e6   Section        0  dflti.o(.text)
    .text                                    0x08000708   Section        0  dfltui.o(.text)
    .text                                    0x08000722   Section        0  dfixi.o(.text)
    .text                                    0x08000760   Section        0  dfixui.o(.text)
    .text                                    0x08000792   Section        0  f2d.o(.text)
    .text                                    0x080007b8   Section        0  d2f.o(.text)
    .text                                    0x080007f0   Section        0  uidiv.o(.text)
    .text                                    0x0800081c   Section        0  llshl.o(.text)
    .text                                    0x0800083a   Section        0  llushr.o(.text)
    .text                                    0x0800085a   Section        0  llsshr.o(.text)
    .text                                    0x08000880   Section        0  strtod.o(.text)
    _local_sscanf                            0x08000881   Thumb Code    54  strtod.o(.text)
    .text                                    0x0800091c   Section        0  strtol.o(.text)
    .text                                    0x0800098c   Section        0  fepilogue.o(.text)
    .text                                    0x0800098c   Section        0  iusefp.o(.text)
    .text                                    0x080009fa   Section        0  depilogue.o(.text)
    .text                                    0x08000ab4   Section        0  drnd.o(.text)
    .text                                    0x08000b3c   Section        0  dfixul.o(.text)
    .text                                    0x08000b6c   Section       48  cdcmple.o(.text)
    .text                                    0x08000b9c   Section       48  cdrcmple.o(.text)
    .text                                    0x08000bcc   Section       36  init.o(.text)
    .text                                    0x08000bf0   Section        0  ctype_o.o(.text)
    .text                                    0x08000bf8   Section        0  isspace_o.o(.text)
    .text                                    0x08000c0c   Section        0  scanf_fp.o(.text)
    _fp_value                                0x08000c0d   Thumb Code   296  scanf_fp.o(.text)
    .text                                    0x08000f6c   Section        0  _sgetc.o(.text)
    .text                                    0x08000fac   Section        0  _strtoul.o(.text)
    .text                                    0x0800104a   Section        0  _chval.o(.text)
    .text                                    0x08001066   Section        0  dfltul.o(.text)
    i.BusFault_Handler                       0x0800107e   Section        0  stm32f4xx_it.o(i.BusFault_Handler)
    i.DMA1_Stream5_IRQHandler                0x08001080   Section        0  stm32f4xx_it.o(i.DMA1_Stream5_IRQHandler)
    i.DMA_CalcBaseAndBitshift                0x0800108c   Section        0  stm32f4xx_hal_dma.o(i.DMA_CalcBaseAndBitshift)
    DMA_CalcBaseAndBitshift                  0x0800108d   Thumb Code    34  stm32f4xx_hal_dma.o(i.DMA_CalcBaseAndBitshift)
    i.DMA_CheckFifoParam                     0x080010b4   Section        0  stm32f4xx_hal_dma.o(i.DMA_CheckFifoParam)
    DMA_CheckFifoParam                       0x080010b5   Thumb Code    84  stm32f4xx_hal_dma.o(i.DMA_CheckFifoParam)
    i.DMA_SetConfig                          0x08001108   Section        0  stm32f4xx_hal_dma.o(i.DMA_SetConfig)
    DMA_SetConfig                            0x08001109   Thumb Code    40  stm32f4xx_hal_dma.o(i.DMA_SetConfig)
    i.DebugMon_Handler                       0x08001130   Section        0  stm32f4xx_it.o(i.DebugMon_Handler)
    i.Error_Handler                          0x08001132   Section        0  main.o(i.Error_Handler)
    i.HAL_DMA_Abort_IT                       0x08001134   Section        0  stm32f4xx_hal_dma.o(i.HAL_DMA_Abort_IT)
    i.HAL_DMA_IRQHandler                     0x08001158   Section        0  stm32f4xx_hal_dma.o(i.HAL_DMA_IRQHandler)
    i.HAL_DMA_Init                           0x080012f8   Section        0  stm32f4xx_hal_dma.o(i.HAL_DMA_Init)
    i.HAL_DMA_Start_IT                       0x080013cc   Section        0  stm32f4xx_hal_dma.o(i.HAL_DMA_Start_IT)
    i.HAL_Delay                              0x0800143c   Section        0  stm32f4xx_hal.o(i.HAL_Delay)
    i.HAL_GPIO_Init                          0x08001460   Section        0  stm32f4xx_hal_gpio.o(i.HAL_GPIO_Init)
    i.HAL_GPIO_WritePin                      0x08001608   Section        0  stm32f4xx_hal_gpio.o(i.HAL_GPIO_WritePin)
    i.HAL_GetTick                            0x08001614   Section        0  stm32f4xx_hal.o(i.HAL_GetTick)
    i.HAL_I2C_Init                           0x08001620   Section        0  stm32f4xx_hal_i2c.o(i.HAL_I2C_Init)
    i.HAL_I2C_Master_Receive                 0x080017a8   Section        0  stm32f4xx_hal_i2c.o(i.HAL_I2C_Master_Receive)
    i.HAL_I2C_Master_Transmit                0x08001988   Section        0  stm32f4xx_hal_i2c.o(i.HAL_I2C_Master_Transmit)
    i.HAL_I2C_Mem_Read                       0x08001ab4   Section        0  stm32f4xx_hal_i2c.o(i.HAL_I2C_Mem_Read)
    i.HAL_I2C_Mem_Write                      0x08001cac   Section        0  stm32f4xx_hal_i2c.o(i.HAL_I2C_Mem_Write)
    i.HAL_I2C_MspInit                        0x08001ddc   Section        0  stm32f4xx_hal_msp.o(i.HAL_I2C_MspInit)
    i.HAL_IncTick                            0x08001eac   Section        0  stm32f4xx_hal.o(i.HAL_IncTick)
    i.HAL_Init                               0x08001ebc   Section        0  stm32f4xx_hal.o(i.HAL_Init)
    i.HAL_InitTick                           0x08001ef0   Section        0  stm32f4xx_hal_timebase_tim.o(i.HAL_InitTick)
    i.HAL_MspInit                            0x08001f64   Section        0  stm32f4xx_hal_msp.o(i.HAL_MspInit)
    i.HAL_NVIC_EnableIRQ                     0x08001f9c   Section        0  stm32f4xx_hal_cortex.o(i.HAL_NVIC_EnableIRQ)
    i.HAL_NVIC_SetPriority                   0x08001fb8   Section        0  stm32f4xx_hal_cortex.o(i.HAL_NVIC_SetPriority)
    i.HAL_NVIC_SetPriorityGrouping           0x08001ff8   Section        0  stm32f4xx_hal_cortex.o(i.HAL_NVIC_SetPriorityGrouping)
    i.HAL_PWREx_EnableOverDrive              0x0800201c   Section        0  stm32f4xx_hal_pwr_ex.o(i.HAL_PWREx_EnableOverDrive)
    i.HAL_RCC_ClockConfig                    0x0800208c   Section        0  stm32f4xx_hal_rcc.o(i.HAL_RCC_ClockConfig)
    i.HAL_RCC_GetClockConfig                 0x080021c0   Section        0  stm32f4xx_hal_rcc.o(i.HAL_RCC_GetClockConfig)
    i.HAL_RCC_GetPCLK1Freq                   0x08002200   Section        0  stm32f4xx_hal_rcc.o(i.HAL_RCC_GetPCLK1Freq)
    i.HAL_RCC_GetPCLK2Freq                   0x08002220   Section        0  stm32f4xx_hal_rcc.o(i.HAL_RCC_GetPCLK2Freq)
    i.HAL_RCC_GetSysClockFreq                0x08002240   Section        0  stm32f4xx_hal_rcc_ex.o(i.HAL_RCC_GetSysClockFreq)
    i.HAL_RCC_OscConfig                      0x080022d8   Section        0  stm32f4xx_hal_rcc_ex.o(i.HAL_RCC_OscConfig)
    i.HAL_TIMEx_BreakCallback                0x0800261c   Section        0  stm32f4xx_hal_tim_ex.o(i.HAL_TIMEx_BreakCallback)
    i.HAL_TIMEx_CommutCallback               0x0800261e   Section        0  stm32f4xx_hal_tim_ex.o(i.HAL_TIMEx_CommutCallback)
    i.HAL_TIMEx_MasterConfigSynchronization  0x08002620   Section        0  stm32f4xx_hal_tim_ex.o(i.HAL_TIMEx_MasterConfigSynchronization)
    i.HAL_TIM_Base_Init                      0x080026b0   Section        0  stm32f4xx_hal_tim.o(i.HAL_TIM_Base_Init)
    i.HAL_TIM_Base_MspInit                   0x080026e6   Section        0  stm32f4xx_hal_tim.o(i.HAL_TIM_Base_MspInit)
    i.HAL_TIM_Base_Start_IT                  0x080026e8   Section        0  stm32f4xx_hal_tim.o(i.HAL_TIM_Base_Start_IT)
    i.HAL_TIM_Encoder_Init                   0x0800270a   Section        0  stm32f4xx_hal_tim.o(i.HAL_TIM_Encoder_Init)
    i.HAL_TIM_Encoder_MspInit                0x080027a4   Section        0  stm32f4xx_hal_msp.o(i.HAL_TIM_Encoder_MspInit)
    i.HAL_TIM_Encoder_Start                  0x080028ec   Section        0  stm32f4xx_hal_tim.o(i.HAL_TIM_Encoder_Start)
    i.HAL_TIM_IC_CaptureCallback             0x08002920   Section        0  stm32f4xx_hal_tim.o(i.HAL_TIM_IC_CaptureCallback)
    i.HAL_TIM_IRQHandler                     0x08002922   Section        0  stm32f4xx_hal_tim.o(i.HAL_TIM_IRQHandler)
    i.HAL_TIM_OC_DelayElapsedCallback        0x08002a88   Section        0  stm32f4xx_hal_tim.o(i.HAL_TIM_OC_DelayElapsedCallback)
    i.HAL_TIM_PWM_PulseFinishedCallback      0x08002a8a   Section        0  stm32f4xx_hal_tim.o(i.HAL_TIM_PWM_PulseFinishedCallback)
    i.HAL_TIM_PeriodElapsedCallback          0x08002a8c   Section        0  main.o(i.HAL_TIM_PeriodElapsedCallback)
    i.HAL_TIM_TriggerCallback                0x08002aa0   Section        0  stm32f4xx_hal_tim.o(i.HAL_TIM_TriggerCallback)
    i.HAL_UART_ErrorCallback                 0x08002aa2   Section        0  stm32f4xx_hal_uart.o(i.HAL_UART_ErrorCallback)
    i.HAL_UART_IRQHandler                    0x08002aa4   Section        0  stm32f4xx_hal_uart.o(i.HAL_UART_IRQHandler)
    i.HAL_UART_Init                          0x08002bb8   Section        0  stm32f4xx_hal_uart.o(i.HAL_UART_Init)
    i.HAL_UART_MspInit                       0x08002c1c   Section        0  stm32f4xx_hal_msp.o(i.HAL_UART_MspInit)
    i.HAL_UART_Receive_DMA                   0x08002cd0   Section        0  stm32f4xx_hal_uart.o(i.HAL_UART_Receive_DMA)
    i.HAL_UART_RxCpltCallback                0x08002d68   Section        0  stm32f4xx_hal_uart.o(i.HAL_UART_RxCpltCallback)
    i.HAL_UART_RxHalfCpltCallback            0x08002d6a   Section        0  stm32f4xx_hal_uart.o(i.HAL_UART_RxHalfCpltCallback)
    i.HAL_UART_Transmit                      0x08002d6c   Section        0  stm32f4xx_hal_uart.o(i.HAL_UART_Transmit)
    i.HAL_UART_TxCpltCallback                0x08002e26   Section        0  stm32f4xx_hal_uart.o(i.HAL_UART_TxCpltCallback)
    i.HardFault_Handler                      0x08002e28   Section        0  stm32f4xx_it.o(i.HardFault_Handler)
    i.I2C_IsAcknowledgeFailed                0x08002e2a   Section        0  stm32f4xx_hal_i2c.o(i.I2C_IsAcknowledgeFailed)
    I2C_IsAcknowledgeFailed                  0x08002e2b   Thumb Code    46  stm32f4xx_hal_i2c.o(i.I2C_IsAcknowledgeFailed)
    i.I2C_MasterRequestRead                  0x08002e58   Section        0  stm32f4xx_hal_i2c.o(i.I2C_MasterRequestRead)
    I2C_MasterRequestRead                    0x08002e59   Thumb Code   230  stm32f4xx_hal_i2c.o(i.I2C_MasterRequestRead)
    i.I2C_MasterRequestWrite                 0x08002f44   Section        0  stm32f4xx_hal_i2c.o(i.I2C_MasterRequestWrite)
    I2C_MasterRequestWrite                   0x08002f45   Thumb Code   150  stm32f4xx_hal_i2c.o(i.I2C_MasterRequestWrite)
    i.I2C_RequestMemoryRead                  0x08002fe0   Section        0  stm32f4xx_hal_i2c.o(i.I2C_RequestMemoryRead)
    I2C_RequestMemoryRead                    0x08002fe1   Thumb Code   246  stm32f4xx_hal_i2c.o(i.I2C_RequestMemoryRead)
    i.I2C_RequestMemoryWrite                 0x080030dc   Section        0  stm32f4xx_hal_i2c.o(i.I2C_RequestMemoryWrite)
    I2C_RequestMemoryWrite                   0x080030dd   Thumb Code   162  stm32f4xx_hal_i2c.o(i.I2C_RequestMemoryWrite)
    i.I2C_WaitOnBTFFlagUntilTimeout          0x08003184   Section        0  stm32f4xx_hal_i2c.o(i.I2C_WaitOnBTFFlagUntilTimeout)
    I2C_WaitOnBTFFlagUntilTimeout            0x08003185   Thumb Code    76  stm32f4xx_hal_i2c.o(i.I2C_WaitOnBTFFlagUntilTimeout)
    i.I2C_WaitOnFlagUntilTimeout             0x080031d0   Section        0  stm32f4xx_hal_i2c.o(i.I2C_WaitOnFlagUntilTimeout)
    I2C_WaitOnFlagUntilTimeout               0x080031d1   Thumb Code   104  stm32f4xx_hal_i2c.o(i.I2C_WaitOnFlagUntilTimeout)
    i.I2C_WaitOnMasterAddressFlagUntilTimeout 0x08003238   Section        0  stm32f4xx_hal_i2c.o(i.I2C_WaitOnMasterAddressFlagUntilTimeout)
    I2C_WaitOnMasterAddressFlagUntilTimeout  0x08003239   Thumb Code   150  stm32f4xx_hal_i2c.o(i.I2C_WaitOnMasterAddressFlagUntilTimeout)
    i.I2C_WaitOnRXNEFlagUntilTimeout         0x080032ce   Section        0  stm32f4xx_hal_i2c.o(i.I2C_WaitOnRXNEFlagUntilTimeout)
    I2C_WaitOnRXNEFlagUntilTimeout           0x080032cf   Thumb Code   102  stm32f4xx_hal_i2c.o(i.I2C_WaitOnRXNEFlagUntilTimeout)
    i.I2C_WaitOnTXEFlagUntilTimeout          0x08003334   Section        0  stm32f4xx_hal_i2c.o(i.I2C_WaitOnTXEFlagUntilTimeout)
    I2C_WaitOnTXEFlagUntilTimeout            0x08003335   Thumb Code    76  stm32f4xx_hal_i2c.o(i.I2C_WaitOnTXEFlagUntilTimeout)
    i.MX_GPIO_Init                           0x08003380   Section        0  main.o(i.MX_GPIO_Init)
    MX_GPIO_Init                             0x08003381   Thumb Code   206  main.o(i.MX_GPIO_Init)
    i.MX_TIM2_Init                           0x08003460   Section        0  main.o(i.MX_TIM2_Init)
    MX_TIM2_Init                             0x08003461   Thumb Code    90  main.o(i.MX_TIM2_Init)
    i.MX_TIM3_Init                           0x080034c0   Section        0  main.o(i.MX_TIM3_Init)
    MX_TIM3_Init                             0x080034c1   Thumb Code    88  main.o(i.MX_TIM3_Init)
    i.MX_TIM4_Init                           0x08003520   Section        0  main.o(i.MX_TIM4_Init)
    MX_TIM4_Init                             0x08003521   Thumb Code    88  main.o(i.MX_TIM4_Init)
    i.MX_TIM5_Init                           0x08003580   Section        0  main.o(i.MX_TIM5_Init)
    MX_TIM5_Init                             0x08003581   Thumb Code    88  main.o(i.MX_TIM5_Init)
    i.MemManage_Handler                      0x080035e0   Section        0  stm32f4xx_it.o(i.MemManage_Handler)
    i.NMI_Handler                            0x080035e2   Section        0  stm32f4xx_it.o(i.NMI_Handler)
    i.PCA9685_AutoIncrement                  0x080035e4   Section        0  pca9685.o(i.PCA9685_AutoIncrement)
    i.PCA9685_Init                           0x080035f0   Section        0  pca9685.o(i.PCA9685_Init)
    i.PCA9685_RestartMode                    0x08003610   Section        0  pca9685.o(i.PCA9685_RestartMode)
    i.PCA9685_SetBit                         0x0800361c   Section        0  pca9685.o(i.PCA9685_SetBit)
    i.PCA9685_SetPin                         0x0800368c   Section        0  pca9685.o(i.PCA9685_SetPin)
    i.PCA9685_SetPwm                         0x080036c8   Section        0  pca9685.o(i.PCA9685_SetPwm)
    i.PCA9685_SetPwmFrequency                0x0800370c   Section        0  pca9685.o(i.PCA9685_SetPwmFrequency)
    i.PCA9685_SetServoAngle                  0x080037d0   Section        0  pca9685.o(i.PCA9685_SetServoAngle)
    i.PCA9685_SleepMode                      0x08003860   Section        0  pca9685.o(i.PCA9685_SleepMode)
    i.PCA9685_SoftwareReset                  0x0800386c   Section        0  pca9685.o(i.PCA9685_SoftwareReset)
    i.PrintStatus                            0x08003894   Section        0  main.o(i.PrintStatus)
    i.SysTick_Handler                        0x080039b8   Section        0  port.o(i.SysTick_Handler)
    i.SystemClock_Config                     0x080039e4   Section        0  main.o(i.SystemClock_Config)
    i.SystemInit                             0x08003a6c   Section        0  system_stm32f4xx.o(i.SystemInit)
    i.TIM1_UP_TIM10_IRQHandler               0x08003a88   Section        0  stm32f4xx_it.o(i.TIM1_UP_TIM10_IRQHandler)
    i.TIM_Base_SetConfig                     0x08003a94   Section        0  stm32f4xx_hal_tim.o(i.TIM_Base_SetConfig)
    i.TIM_CCxChannelCmd                      0x08003b5c   Section        0  stm32f4xx_hal_tim.o(i.TIM_CCxChannelCmd)
    i.UARTParser                             0x08003b78   Section        0  main.o(i.UARTParser)
    i.UART_DMAAbortOnError                   0x08003da0   Section        0  stm32f4xx_hal_uart.o(i.UART_DMAAbortOnError)
    UART_DMAAbortOnError                     0x08003da1   Thumb Code    16  stm32f4xx_hal_uart.o(i.UART_DMAAbortOnError)
    i.UART_DMAError                          0x08003db0   Section        0  stm32f4xx_hal_uart.o(i.UART_DMAError)
    UART_DMAError                            0x08003db1   Thumb Code    74  stm32f4xx_hal_uart.o(i.UART_DMAError)
    i.UART_DMAReceiveCplt                    0x08003dfa   Section        0  stm32f4xx_hal_uart.o(i.UART_DMAReceiveCplt)
    UART_DMAReceiveCplt                      0x08003dfb   Thumb Code    60  stm32f4xx_hal_uart.o(i.UART_DMAReceiveCplt)
    i.UART_DMARxHalfCplt                     0x08003e36   Section        0  stm32f4xx_hal_uart.o(i.UART_DMARxHalfCplt)
    UART_DMARxHalfCplt                       0x08003e37   Thumb Code    10  stm32f4xx_hal_uart.o(i.UART_DMARxHalfCplt)
    i.UART_EndRxTransfer                     0x08003e40   Section        0  stm32f4xx_hal_uart.o(i.UART_EndRxTransfer)
    UART_EndRxTransfer                       0x08003e41   Thumb Code    28  stm32f4xx_hal_uart.o(i.UART_EndRxTransfer)
    i.UART_EndTxTransfer                     0x08003e5c   Section        0  stm32f4xx_hal_uart.o(i.UART_EndTxTransfer)
    UART_EndTxTransfer                       0x08003e5d   Thumb Code    18  stm32f4xx_hal_uart.o(i.UART_EndTxTransfer)
    i.UART_Receive_IT                        0x08003e6e   Section        0  stm32f4xx_hal_uart.o(i.UART_Receive_IT)
    UART_Receive_IT                          0x08003e6f   Thumb Code   150  stm32f4xx_hal_uart.o(i.UART_Receive_IT)
    i.UART_SetConfig                         0x08003f04   Section        0  stm32f4xx_hal_uart.o(i.UART_SetConfig)
    UART_SetConfig                           0x08003f05   Thumb Code   286  stm32f4xx_hal_uart.o(i.UART_SetConfig)
    i.UART_Transmit_IT                       0x0800402c   Section        0  stm32f4xx_hal_uart.o(i.UART_Transmit_IT)
    UART_Transmit_IT                         0x0800402d   Thumb Code    98  stm32f4xx_hal_uart.o(i.UART_Transmit_IT)
    i.UART_WaitOnFlagUntilTimeout            0x0800408e   Section        0  stm32f4xx_hal_uart.o(i.UART_WaitOnFlagUntilTimeout)
    UART_WaitOnFlagUntilTimeout              0x0800408f   Thumb Code   100  stm32f4xx_hal_uart.o(i.UART_WaitOnFlagUntilTimeout)
    i.USART2_IRQHandler                      0x080040f4   Section        0  stm32f4xx_it.o(i.USART2_IRQHandler)
    i.UsageFault_Handler                     0x08004100   Section        0  stm32f4xx_it.o(i.UsageFault_Handler)
    i.__0sprintf                             0x08004104   Section        0  printfa.o(i.__0sprintf)
    i.__NVIC_SetPriority                     0x0800412c   Section        0  stm32f4xx_hal_cortex.o(i.__NVIC_SetPriority)
    __NVIC_SetPriority                       0x0800412d   Thumb Code    32  stm32f4xx_hal_cortex.o(i.__NVIC_SetPriority)
    i.__aeabi_errno_addr                     0x0800414c   Section        0  errno.o(i.__aeabi_errno_addr)
    i.__hardfp_atof                          0x08004158   Section        0  atof.o(i.__hardfp_atof)
    i.__hardfp_floor                         0x08004190   Section        0  floor.o(i.__hardfp_floor)
    i.__hardfp_round                         0x080042a8   Section        0  round.o(i.__hardfp_round)
    i.__read_errno                           0x08004388   Section        0  errno.o(i.__read_errno)
    i.__scatterload_copy                     0x08004394   Section       14  handlers.o(i.__scatterload_copy)
    i.__scatterload_null                     0x080043a2   Section        2  handlers.o(i.__scatterload_null)
    i.__scatterload_zeroinit                 0x080043a4   Section       14  handlers.o(i.__scatterload_zeroinit)
    i.__set_errno                            0x080043b4   Section        0  errno.o(i.__set_errno)
    i._fp_digits                             0x080043c0   Section        0  printfa.o(i._fp_digits)
    _fp_digits                               0x080043c1   Thumb Code   366  printfa.o(i._fp_digits)
    i._is_digit                              0x08004544   Section        0  scanf_fp.o(i._is_digit)
    i._printf_core                           0x08004554   Section        0  printfa.o(i._printf_core)
    _printf_core                             0x08004555   Thumb Code  1704  printfa.o(i._printf_core)
    i._printf_post_padding                   0x08004c08   Section        0  printfa.o(i._printf_post_padding)
    _printf_post_padding                     0x08004c09   Thumb Code    36  printfa.o(i._printf_post_padding)
    i._printf_pre_padding                    0x08004c2c   Section        0  printfa.o(i._printf_pre_padding)
    _printf_pre_padding                      0x08004c2d   Thumb Code    46  printfa.o(i._printf_pre_padding)
    i._sputc                                 0x08004c5a   Section        0  printfa.o(i._sputc)
    _sputc                                   0x08004c5b   Thumb Code    10  printfa.o(i._sputc)
    i.checkTimeoutExpired                    0x08004c64   Section        0  vl53l0x.o(i.checkTimeoutExpired)
    i.decodeTimeout                          0x08004c82   Section        0  vl53l0x.o(i.decodeTimeout)
    i.decodeVcselPeriod                      0x08004c8e   Section        0  vl53l0x.o(i.decodeVcselPeriod)
    i.encodeTimeout                          0x08004c96   Section        0  vl53l0x.o(i.encodeTimeout)
    i.getMeasurementTimingBudget             0x08004cb2   Section        0  vl53l0x.o(i.getMeasurementTimingBudget)
    i.getSequenceStepEnables                 0x08004d1c   Section        0  vl53l0x.o(i.getSequenceStepEnables)
    i.getSequenceStepTimeouts                0x08004d44   Section        0  vl53l0x.o(i.getSequenceStepTimeouts)
    i.getSpadInfo                            0x08004dac   Section        0  vl53l0x.o(i.getSpadInfo)
    i.getVcselPulsePeriod                    0x08004eb0   Section        0  vl53l0x.o(i.getVcselPulsePeriod)
    i.init                                   0x08004ece   Section        0  vl53l0x.o(i.init)
    i.inverse_kinematics                     0x080053c4   Section        0  main.o(i.inverse_kinematics)
    i.main                                   0x080054f4   Section        0  main.o(i.main)
    i.osDelay                                0x08005954   Section        0  cmsis_os2.o(i.osDelay)
    i.osKernelInitialize                     0x08005988   Section        0  cmsis_os2.o(i.osKernelInitialize)
    i.osKernelStart                          0x080059bc   Section        0  cmsis_os2.o(i.osKernelStart)
    i.osThreadNew                            0x080059f8   Section        0  cmsis_os2.o(i.osThreadNew)
    i.performSingleRefCalibration            0x08005a9c   Section        0  vl53l0x.o(i.performSingleRefCalibration)
    i.prvAddCurrentTaskToDelayedList         0x08005ae4   Section        0  tasks.o(i.prvAddCurrentTaskToDelayedList)
    prvAddCurrentTaskToDelayedList           0x08005ae5   Thumb Code    84  tasks.o(i.prvAddCurrentTaskToDelayedList)
    i.prvAddNewTaskToReadyList               0x08005b40   Section        0  tasks.o(i.prvAddNewTaskToReadyList)
    prvAddNewTaskToReadyList                 0x08005b41   Thumb Code   190  tasks.o(i.prvAddNewTaskToReadyList)
    i.prvCheckForValidListAndQueue           0x08005c10   Section        0  timers.o(i.prvCheckForValidListAndQueue)
    prvCheckForValidListAndQueue             0x08005c11   Thumb Code    72  timers.o(i.prvCheckForValidListAndQueue)
    i.prvCopyDataFromQueue                   0x08005c68   Section        0  queue.o(i.prvCopyDataFromQueue)
    prvCopyDataFromQueue                     0x08005c69   Thumb Code    38  queue.o(i.prvCopyDataFromQueue)
    i.prvCopyDataToQueue                     0x08005c8e   Section        0  queue.o(i.prvCopyDataToQueue)
    prvCopyDataToQueue                       0x08005c8f   Thumb Code   108  queue.o(i.prvCopyDataToQueue)
    i.prvDeleteTCB                           0x08005cfa   Section        0  tasks.o(i.prvDeleteTCB)
    prvDeleteTCB                             0x08005cfb   Thumb Code    52  tasks.o(i.prvDeleteTCB)
    i.prvHeapInit                            0x08005d30   Section        0  heap_4.o(i.prvHeapInit)
    prvHeapInit                              0x08005d31   Thumb Code    66  heap_4.o(i.prvHeapInit)
    i.prvIdleTask                            0x08005d7c   Section        0  tasks.o(i.prvIdleTask)
    prvIdleTask                              0x08005d7d   Thumb Code    82  tasks.o(i.prvIdleTask)
    i.prvInitialiseNewQueue                  0x08005ddc   Section        0  queue.o(i.prvInitialiseNewQueue)
    prvInitialiseNewQueue                    0x08005ddd   Thumb Code    34  queue.o(i.prvInitialiseNewQueue)
    i.prvInitialiseNewTask                   0x08005e00   Section        0  tasks.o(i.prvInitialiseNewTask)
    prvInitialiseNewTask                     0x08005e01   Thumb Code   176  tasks.o(i.prvInitialiseNewTask)
    i.prvInsertBlockIntoFreeList             0x08005eb0   Section        0  heap_4.o(i.prvInsertBlockIntoFreeList)
    prvInsertBlockIntoFreeList               0x08005eb1   Thumb Code    72  heap_4.o(i.prvInsertBlockIntoFreeList)
    i.prvInsertTimerInActiveList             0x08005efc   Section        0  timers.o(i.prvInsertTimerInActiveList)
    prvInsertTimerInActiveList               0x08005efd   Thumb Code    52  timers.o(i.prvInsertTimerInActiveList)
    i.prvIsQueueEmpty                        0x08005f34   Section        0  queue.o(i.prvIsQueueEmpty)
    prvIsQueueEmpty                          0x08005f35   Thumb Code    28  queue.o(i.prvIsQueueEmpty)
    i.prvProcessReceivedCommands             0x08005f50   Section        0  timers.o(i.prvProcessReceivedCommands)
    prvProcessReceivedCommands               0x08005f51   Thumb Code   248  timers.o(i.prvProcessReceivedCommands)
    i.prvProcessTimerOrBlockTask             0x0800604c   Section        0  timers.o(i.prvProcessTimerOrBlockTask)
    prvProcessTimerOrBlockTask               0x0800604d   Thumb Code   182  timers.o(i.prvProcessTimerOrBlockTask)
    i.prvResetNextTaskUnblockTime            0x0800610c   Section        0  tasks.o(i.prvResetNextTaskUnblockTime)
    prvResetNextTaskUnblockTime              0x0800610d   Thumb Code    26  tasks.o(i.prvResetNextTaskUnblockTime)
    i.prvSampleTimeNow                       0x0800612c   Section        0  timers.o(i.prvSampleTimeNow)
    prvSampleTimeNow                         0x0800612d   Thumb Code    36  timers.o(i.prvSampleTimeNow)
    i.prvSwitchTimerLists                    0x08006154   Section        0  timers.o(i.prvSwitchTimerLists)
    prvSwitchTimerLists                      0x08006155   Thumb Code   104  timers.o(i.prvSwitchTimerLists)
    i.prvTaskExitError                       0x080061c0   Section        0  port.o(i.prvTaskExitError)
    prvTaskExitError                         0x080061c1   Thumb Code    36  port.o(i.prvTaskExitError)
    i.prvTimerTask                           0x080061e8   Section        0  timers.o(i.prvTimerTask)
    prvTimerTask                             0x080061e9   Thumb Code    32  timers.o(i.prvTimerTask)
    i.prvUnlockQueue                         0x0800620c   Section        0  queue.o(i.prvUnlockQueue)
    prvUnlockQueue                           0x0800620d   Thumb Code   106  queue.o(i.prvUnlockQueue)
    i.pvPortMalloc                           0x08006278   Section        0  heap_4.o(i.pvPortMalloc)
    i.pxPortInitialiseStack                  0x08006350   Section        0  port.o(i.pxPortInitialiseStack)
    i.readBytes                              0x0800637c   Section        0  vl53l0x.o(i.readBytes)
    readBytes                                0x0800637d   Thumb Code    26  vl53l0x.o(i.readBytes)
    i.readLaser                              0x08006398   Section        0  main.o(i.readLaser)
    i.readMulti                              0x080063c8   Section        0  main.o(i.readMulti)
    i.readRangeContinuousMillimeters         0x080063f8   Section        0  vl53l0x.o(i.readRangeContinuousMillimeters)
    i.readReg                                0x08006444   Section        0  vl53l0x.o(i.readReg)
    i.readReg16Bit                           0x08006470   Section        0  vl53l0x.o(i.readReg16Bit)
    i.safe_unsigned_subtract                 0x0800649c   Section        0  main.o(i.safe_unsigned_subtract)
    i.setAddress                             0x080064c0   Section        0  vl53l0x.o(i.setAddress)
    i.setMeasurementTimingBudget             0x080064d4   Section        0  vl53l0x.o(i.setMeasurementTimingBudget)
    i.setSignalRateLimit                     0x08006578   Section        0  vl53l0x.o(i.setSignalRateLimit)
    i.setTimeout                             0x080065b8   Section        0  vl53l0x.o(i.setTimeout)
    i.setVcselPulsePeriod                    0x080065bc   Section        0  vl53l0x.o(i.setVcselPulsePeriod)
    i.setup_VL53L0X                          0x0800679a   Section        0  vl53l0x.o(i.setup_VL53L0X)
    i.startContinuous                        0x080067a6   Section        0  vl53l0x.o(i.startContinuous)
    i.startTimeout                           0x0800681a   Section        0  vl53l0x.o(i.startTimeout)
    i.timeoutMclksToMicroseconds             0x08006826   Section        0  vl53l0x.o(i.timeoutMclksToMicroseconds)
    i.timeoutMicrosecondsToMclks             0x08006848   Section        0  vl53l0x.o(i.timeoutMicrosecondsToMclks)
    i.updateMotor                            0x0800686c   Section        0  main.o(i.updateMotor)
    i.update_motor_direction                 0x08006aec   Section        0  main.o(i.update_motor_direction)
    i.update_motor_pid                       0x08006c18   Section        0  main.o(i.update_motor_pid)
    i.update_servo_angle                     0x08006c48   Section        0  main.o(i.update_servo_angle)
    i.uxListRemove                           0x08006c4e   Section        0  list.o(i.uxListRemove)
    i.vApplicationGetIdleTaskMemory          0x08006c74   Section        0  cmsis_os2.o(i.vApplicationGetIdleTaskMemory)
    i.vApplicationGetTimerTaskMemory         0x08006c88   Section        0  cmsis_os2.o(i.vApplicationGetTimerTaskMemory)
    i.vListInitialise                        0x08006ca0   Section        0  list.o(i.vListInitialise)
    i.vListInitialiseItem                    0x08006cb6   Section        0  list.o(i.vListInitialiseItem)
    i.vListInsert                            0x08006cbc   Section        0  list.o(i.vListInsert)
    i.vListInsertEnd                         0x08006cec   Section        0  list.o(i.vListInsertEnd)
    i.vPortEnterCritical                     0x08006d04   Section        0  port.o(i.vPortEnterCritical)
    i.vPortExitCritical                      0x08006d44   Section        0  port.o(i.vPortExitCritical)
    i.vPortFree                              0x08006d6c   Section        0  heap_4.o(i.vPortFree)
    i.vPortSetupTimerInterrupt               0x08006dc8   Section        0  port.o(i.vPortSetupTimerInterrupt)
    i.vPortValidateInterruptPriority         0x08006dec   Section        0  port.o(i.vPortValidateInterruptPriority)
    i.vQueueAddToRegistry                    0x08006e40   Section        0  queue.o(i.vQueueAddToRegistry)
    i.vQueueWaitForMessageRestricted         0x08006e68   Section        0  queue.o(i.vQueueWaitForMessageRestricted)
    i.vTaskDelay                             0x08006eac   Section        0  tasks.o(i.vTaskDelay)
    i.vTaskInternalSetTimeOutState           0x08006ef8   Section        0  tasks.o(i.vTaskInternalSetTimeOutState)
    i.vTaskMissedYield                       0x08006f08   Section        0  tasks.o(i.vTaskMissedYield)
    i.vTaskPlaceOnEventList                  0x08006f14   Section        0  tasks.o(i.vTaskPlaceOnEventList)
    i.vTaskPlaceOnEventListRestricted        0x08006f44   Section        0  tasks.o(i.vTaskPlaceOnEventListRestricted)
    i.vTaskStartScheduler                    0x08006f7c   Section        0  tasks.o(i.vTaskStartScheduler)
    i.vTaskSuspendAll                        0x08007004   Section        0  tasks.o(i.vTaskSuspendAll)
    i.vTaskSwitchContext                     0x08007014   Section        0  tasks.o(i.vTaskSwitchContext)
    i.writeBytes                             0x08007078   Section        0  vl53l0x.o(i.writeBytes)
    writeBytes                               0x08007079   Thumb Code    24  vl53l0x.o(i.writeBytes)
    i.writeMulti                             0x08007090   Section        0  main.o(i.writeMulti)
    i.writeReg                               0x080070b0   Section        0  vl53l0x.o(i.writeReg)
    i.writeReg16Bit                          0x080070d8   Section        0  vl53l0x.o(i.writeReg16Bit)
    i.writeReg32Bit                          0x08007100   Section        0  vl53l0x.o(i.writeReg32Bit)
    i.xPortStartScheduler                    0x08007130   Section        0  port.o(i.xPortStartScheduler)
    i.xQueueGenericCreateStatic              0x08007224   Section        0  queue.o(i.xQueueGenericCreateStatic)
    i.xQueueGenericReset                     0x0800728c   Section        0  queue.o(i.xQueueGenericReset)
    i.xQueueGenericSend                      0x08007314   Section        0  queue.o(i.xQueueGenericSend)
    i.xQueueGenericSendFromISR               0x08007474   Section        0  queue.o(i.xQueueGenericSendFromISR)
    i.xQueueReceive                          0x08007530   Section        0  queue.o(i.xQueueReceive)
    i.xTaskCheckForTimeOut                   0x08007668   Section        0  tasks.o(i.xTaskCheckForTimeOut)
    i.xTaskCreate                            0x080076dc   Section        0  tasks.o(i.xTaskCreate)
    i.xTaskCreateStatic                      0x08007736   Section        0  tasks.o(i.xTaskCreateStatic)
    i.xTaskGetSchedulerState                 0x0800778c   Section        0  tasks.o(i.xTaskGetSchedulerState)
    i.xTaskGetTickCount                      0x080077a8   Section        0  tasks.o(i.xTaskGetTickCount)
    i.xTaskIncrementTick                     0x080077b4   Section        0  tasks.o(i.xTaskIncrementTick)
    i.xTaskPriorityDisinherit                0x0800787c   Section        0  tasks.o(i.xTaskPriorityDisinherit)
    i.xTaskRemoveFromEventList               0x080078fc   Section        0  tasks.o(i.xTaskRemoveFromEventList)
    i.xTaskResumeAll                         0x0800796c   Section        0  tasks.o(i.xTaskResumeAll)
    i.xTimerCreateTimerTask                  0x08007a30   Section        0  timers.o(i.xTimerCreateTimerTask)
    i.xTimerGenericCommand                   0x08007a90   Section        0  timers.o(i.xTimerGenericCommand)
    .constdata                               0x08007af8   Section      144  main.o(.constdata)
    .constdata                               0x08007b88   Section        8  stm32f4xx_hal_dma.o(.constdata)
    flagBitshiftOffset                       0x08007b88   Data           8  stm32f4xx_hal_dma.o(.constdata)
    .constdata                               0x08007b90   Section       16  system_stm32f4xx.o(.constdata)
    .constdata                               0x08007ba0   Section        8  system_stm32f4xx.o(.constdata)
    .constdata                               0x08007ba8   Section      129  ctype_o.o(.constdata)
    .constdata                               0x08007c2c   Section        4  ctype_o.o(.constdata)
    table                                    0x08007c2c   Data           4  ctype_o.o(.constdata)
    .conststring                             0x08007c30   Section       64  main.o(.conststring)
    .data                                    0x20000000   Section        4  pca9685.o(.data)
    .data                                    0x20000004   Section       56  main.o(.data)
    motor_kp                                 0x2000001c   Data          16  main.o(.data)
    motor_kd                                 0x2000002c   Data          16  main.o(.data)
    .data                                    0x2000003c   Section       12  stm32f4xx_hal.o(.data)
    .data                                    0x20000048   Section        4  system_stm32f4xx.o(.data)
    .data                                    0x2000004c   Section       60  tasks.o(.data)
    pxDelayedTaskList                        0x20000050   Data           4  tasks.o(.data)
    pxOverflowDelayedTaskList                0x20000054   Data           4  tasks.o(.data)
    uxDeletedTasksWaitingCleanUp             0x20000058   Data           4  tasks.o(.data)
    uxCurrentNumberOfTasks                   0x2000005c   Data           4  tasks.o(.data)
    xTickCount                               0x20000060   Data           4  tasks.o(.data)
    uxTopReadyPriority                       0x20000064   Data           4  tasks.o(.data)
    xSchedulerRunning                        0x20000068   Data           4  tasks.o(.data)
    uxPendedTicks                            0x2000006c   Data           4  tasks.o(.data)
    xYieldPending                            0x20000070   Data           4  tasks.o(.data)
    xNumOfOverflows                          0x20000074   Data           4  tasks.o(.data)
    uxTaskNumber                             0x20000078   Data           4  tasks.o(.data)
    xNextTaskUnblockTime                     0x2000007c   Data           4  tasks.o(.data)
    xIdleTaskHandle                          0x20000080   Data           4  tasks.o(.data)
    uxSchedulerSuspended                     0x20000084   Data           4  tasks.o(.data)
    .data                                    0x20000088   Section       20  timers.o(.data)
    pxCurrentTimerList                       0x20000088   Data           4  timers.o(.data)
    pxOverflowTimerList                      0x2000008c   Data           4  timers.o(.data)
    xTimerQueue                              0x20000090   Data           4  timers.o(.data)
    xTimerTaskHandle                         0x20000094   Data           4  timers.o(.data)
    xLastTime                                0x20000098   Data           4  timers.o(.data)
    .data                                    0x2000009c   Section        4  cmsis_os2.o(.data)
    KernelState                              0x2000009c   Data           4  cmsis_os2.o(.data)
    .data                                    0x200000a0   Section       24  heap_4.o(.data)
    pxEnd                                    0x200000a0   Data           4  heap_4.o(.data)
    xFreeBytesRemaining                      0x200000a4   Data           4  heap_4.o(.data)
    xMinimumEverFreeBytesRemaining           0x200000a8   Data           4  heap_4.o(.data)
    xBlockAllocatedBit                       0x200000ac   Data           4  heap_4.o(.data)
    xStart                                   0x200000b0   Data           8  heap_4.o(.data)
    .data                                    0x200000b8   Section       12  port.o(.data)
    ucMaxSysCallPriority                     0x200000b8   Data           1  port.o(.data)
    uxCriticalNesting                        0x200000bc   Data           4  port.o(.data)
    ulMaxPRIGROUPValue                       0x200000c0   Data           4  port.o(.data)
    .data                                    0x200000c4   Section        4  strtok.o(.data)
    state                                    0x200000c4   Data           4  strtok.o(.data)
    .data                                    0x200000c8   Section        4  errno.o(.data)
    _errno                                   0x200000c8   Data           4  errno.o(.data)
    .bss                                     0x200000cc   Section     2792  main.o(.bss)
    motor_target_wVelocity                   0x200000cc   Data          16  main.o(.bss)
    motor_duty_cycle                         0x200000dc   Data          16  main.o(.bss)
    motor_forward                            0x200000ec   Data          16  main.o(.bss)
    encoder_current                          0x200000fc   Data          16  main.o(.bss)
    encoder_last                             0x2000010c   Data          16  main.o(.bss)
    encoder_wVelocity                        0x2000011c   Data          16  main.o(.bss)
    encoder_last_wVelocity                   0x2000012c   Data          16  main.o(.bss)
    motor_last_error                         0x2000013c   Data          16  main.o(.bss)
    motor_sum_error                          0x2000014c   Data          16  main.o(.bss)
    motor_ki                                 0x2000015c   Data          16  main.o(.bss)
    msg                                      0x2000016c   Data          36  main.o(.bss)
    uart_rx_buffer                           0x20000378   Data        2048  main.o(.bss)
    .bss                                     0x20000bb4   Section       96  main.o(.bss)
    .bss                                     0x20000c14   Section       64  stm32f4xx_hal_timebase_tim.o(.bss)
    .bss                                     0x20000c54   Section       64  queue.o(.bss)
    .bss                                     0x20000c94   Section     1220  tasks.o(.bss)
    pxReadyTasksLists                        0x20000c94   Data        1120  tasks.o(.bss)
    xDelayedTaskList1                        0x200010f4   Data          20  tasks.o(.bss)
    xDelayedTaskList2                        0x20001108   Data          20  tasks.o(.bss)
    xPendingReadyList                        0x2000111c   Data          20  tasks.o(.bss)
    xTasksWaitingTermination                 0x20001130   Data          20  tasks.o(.bss)
    xSuspendedTaskList                       0x20001144   Data          20  tasks.o(.bss)
    .bss                                     0x20001158   Section      280  timers.o(.bss)
    xActiveTimerList1                        0x20001158   Data          20  timers.o(.bss)
    xActiveTimerList2                        0x2000116c   Data          20  timers.o(.bss)
    xStaticTimerQueue                        0x20001180   Data          80  timers.o(.bss)
    ucStaticTimerQueueStorage                0x200011d0   Data         160  timers.o(.bss)
    .bss                                     0x20001270   Section     1720  cmsis_os2.o(.bss)
    Idle_TCB                                 0x20001270   Data          92  cmsis_os2.o(.bss)
    Idle_Stack                               0x200012cc   Data         512  cmsis_os2.o(.bss)
    Timer_TCB                                0x200014cc   Data          92  cmsis_os2.o(.bss)
    Timer_Stack                              0x20001528   Data        1024  cmsis_os2.o(.bss)
    .bss                                     0x20001928   Section    15360  heap_4.o(.bss)
    ucHeap                                   0x20001928   Data       15360  heap_4.o(.bss)
    STACK                                    0x20005528   Section     1024  startup_stm32f446xx.o(STACK)

    Global Symbols

    Symbol Name                              Value     Ov Type        Size  Object(Section)

    BuildAttributes$$THM_ISAv4$E$P$D$K$B$S$7EM$VFPi3$EXTD16$VFPS$VFMA$PE$A:L22UL41UL21$X:L11$S22US41US21$IEEE1$IW$USESV6$~STKCKD$USESV7$~SHL$OTIME$ROPI$IEEEJ$EBA8$MICROLIB$REQ8$PRES8$EABIv2 0x00000000   Number         0  anon$$obj.o ABSOLUTE
    __ARM_use_no_argv                        0x00000000   Number         0  main.o ABSOLUTE
    _printf_a                                0x00000000   Number         0  stubs.o ABSOLUTE
    _printf_c                                0x00000000   Number         0  stubs.o ABSOLUTE
    _printf_charcount                        0x00000000   Number         0  stubs.o ABSOLUTE
    _printf_d                                0x00000000   Number         0  stubs.o ABSOLUTE
    _printf_e                                0x00000000   Number         0  stubs.o ABSOLUTE
    _printf_f                                0x00000000   Number         0  stubs.o ABSOLUTE
    _printf_flags                            0x00000000   Number         0  stubs.o ABSOLUTE
    _printf_fp_dec                           0x00000000   Number         0  stubs.o ABSOLUTE
    _printf_fp_hex                           0x00000000   Number         0  stubs.o ABSOLUTE
    _printf_g                                0x00000000   Number         0  stubs.o ABSOLUTE
    _printf_i                                0x00000000   Number         0  stubs.o ABSOLUTE
    _printf_int_dec                          0x00000000   Number         0  stubs.o ABSOLUTE
    _printf_l                                0x00000000   Number         0  stubs.o ABSOLUTE
    _printf_lc                               0x00000000   Number         0  stubs.o ABSOLUTE
    _printf_ll                               0x00000000   Number         0  stubs.o ABSOLUTE
    _printf_lld                              0x00000000   Number         0  stubs.o ABSOLUTE
    _printf_lli                              0x00000000   Number         0  stubs.o ABSOLUTE
    _printf_llo                              0x00000000   Number         0  stubs.o ABSOLUTE
    _printf_llu                              0x00000000   Number         0  stubs.o ABSOLUTE
    _printf_llx                              0x00000000   Number         0  stubs.o ABSOLUTE
    _printf_longlong_dec                     0x00000000   Number         0  stubs.o ABSOLUTE
    _printf_longlong_hex                     0x00000000   Number         0  stubs.o ABSOLUTE
    _printf_longlong_oct                     0x00000000   Number         0  stubs.o ABSOLUTE
    _printf_ls                               0x00000000   Number         0  stubs.o ABSOLUTE
    _printf_mbtowc                           0x00000000   Number         0  stubs.o ABSOLUTE
    _printf_n                                0x00000000   Number         0  stubs.o ABSOLUTE
    _printf_o                                0x00000000   Number         0  stubs.o ABSOLUTE
    _printf_p                                0x00000000   Number         0  stubs.o ABSOLUTE
    _printf_percent                          0x00000000   Number         0  stubs.o ABSOLUTE
    _printf_pre_padding                      0x00000000   Number         0  stubs.o ABSOLUTE
    _printf_return_value                     0x00000000   Number         0  stubs.o ABSOLUTE
    _printf_s                                0x00000000   Number         0  stubs.o ABSOLUTE
    _printf_sizespec                         0x00000000   Number         0  stubs.o ABSOLUTE
    _printf_str                              0x00000000   Number         0  stubs.o ABSOLUTE
    _printf_truncate_signed                  0x00000000   Number         0  stubs.o ABSOLUTE
    _printf_truncate_unsigned                0x00000000   Number         0  stubs.o ABSOLUTE
    _printf_u                                0x00000000   Number         0  stubs.o ABSOLUTE
    _printf_wc                               0x00000000   Number         0  stubs.o ABSOLUTE
    _printf_wctomb                           0x00000000   Number         0  stubs.o ABSOLUTE
    _printf_widthprec                        0x00000000   Number         0  stubs.o ABSOLUTE
    _printf_x                                0x00000000   Number         0  stubs.o ABSOLUTE
    __arm_fini_                               - Undefined Weak Reference
    __cpp_initialize__aeabi_                  - Undefined Weak Reference
    __cxa_finalize                            - Undefined Weak Reference
    __decompress                              - Undefined Weak Reference
    _clock_init                               - Undefined Weak Reference
    _microlib_exit                            - Undefined Weak Reference
    __Vectors_Size                           0x000001c4   Number         0  startup_stm32f446xx.o ABSOLUTE
    __Vectors                                0x08000000   Data           4  startup_stm32f446xx.o(RESET)
    __Vectors_End                            0x080001c4   Data           0  startup_stm32f446xx.o(RESET)
    __main                                   0x080001c5   Thumb Code     0  entry.o(.ARM.Collect$$$$00000000)
    _main_stk                                0x080001c5   Thumb Code     0  entry2.o(.ARM.Collect$$$$00000001)
    _main_scatterload                        0x080001c9   Thumb Code     0  entry5.o(.ARM.Collect$$$$00000004)
    __main_after_scatterload                 0x080001cd   Thumb Code     0  entry5.o(.ARM.Collect$$$$00000004)
    _main_clock                              0x080001cd   Thumb Code     0  entry7b.o(.ARM.Collect$$$$00000008)
    _main_cpp_init                           0x080001cd   Thumb Code     0  entry8b.o(.ARM.Collect$$$$0000000A)
    _main_init                               0x080001cd   Thumb Code     0  entry9a.o(.ARM.Collect$$$$0000000B)
    __rt_lib_shutdown_fini                   0x080001d5   Thumb Code     0  entry12b.o(.ARM.Collect$$$$0000000E)
    __rt_final_cpp                           0x080001d9   Thumb Code     0  entry10a.o(.ARM.Collect$$$$0000000F)
    __rt_final_exit                          0x080001d9   Thumb Code     0  entry11a.o(.ARM.Collect$$$$00000011)
    SVC_Handler                              0x080001dd   Thumb Code    28  port.o(.emb_text)
    __asm___6_port_c_39a90d8d__prvStartFirstTask 0x080001fd   Thumb Code    36  port.o(.emb_text)
    __asm___6_port_c_39a90d8d__prvEnableVFP  0x08000225   Thumb Code    16  port.o(.emb_text)
    PendSV_Handler                           0x08000239   Thumb Code    88  port.o(.emb_text)
    vPortGetIPSR                             0x08000295   Thumb Code     6  port.o(.emb_text)
    Reset_Handler                            0x0800029d   Thumb Code     8  startup_stm32f446xx.o(.text)
    ADC_IRQHandler                           0x080002b7   Thumb Code     0  startup_stm32f446xx.o(.text)
    CAN1_RX0_IRQHandler                      0x080002b7   Thumb Code     0  startup_stm32f446xx.o(.text)
    CAN1_RX1_IRQHandler                      0x080002b7   Thumb Code     0  startup_stm32f446xx.o(.text)
    CAN1_SCE_IRQHandler                      0x080002b7   Thumb Code     0  startup_stm32f446xx.o(.text)
    CAN1_TX_IRQHandler                       0x080002b7   Thumb Code     0  startup_stm32f446xx.o(.text)
    CAN2_RX0_IRQHandler                      0x080002b7   Thumb Code     0  startup_stm32f446xx.o(.text)
    CAN2_RX1_IRQHandler                      0x080002b7   Thumb Code     0  startup_stm32f446xx.o(.text)
    CAN2_SCE_IRQHandler                      0x080002b7   Thumb Code     0  startup_stm32f446xx.o(.text)
    CAN2_TX_IRQHandler                       0x080002b7   Thumb Code     0  startup_stm32f446xx.o(.text)
    CEC_IRQHandler                           0x080002b7   Thumb Code     0  startup_stm32f446xx.o(.text)
    DCMI_IRQHandler                          0x080002b7   Thumb Code     0  startup_stm32f446xx.o(.text)
    DMA1_Stream0_IRQHandler                  0x080002b7   Thumb Code     0  startup_stm32f446xx.o(.text)
    DMA1_Stream1_IRQHandler                  0x080002b7   Thumb Code     0  startup_stm32f446xx.o(.text)
    DMA1_Stream2_IRQHandler                  0x080002b7   Thumb Code     0  startup_stm32f446xx.o(.text)
    DMA1_Stream3_IRQHandler                  0x080002b7   Thumb Code     0  startup_stm32f446xx.o(.text)
    DMA1_Stream4_IRQHandler                  0x080002b7   Thumb Code     0  startup_stm32f446xx.o(.text)
    DMA1_Stream6_IRQHandler                  0x080002b7   Thumb Code     0  startup_stm32f446xx.o(.text)
    DMA1_Stream7_IRQHandler                  0x080002b7   Thumb Code     0  startup_stm32f446xx.o(.text)
    DMA2_Stream0_IRQHandler                  0x080002b7   Thumb Code     0  startup_stm32f446xx.o(.text)
    DMA2_Stream1_IRQHandler                  0x080002b7   Thumb Code     0  startup_stm32f446xx.o(.text)
    DMA2_Stream2_IRQHandler                  0x080002b7   Thumb Code     0  startup_stm32f446xx.o(.text)
    DMA2_Stream3_IRQHandler                  0x080002b7   Thumb Code     0  startup_stm32f446xx.o(.text)
    DMA2_Stream4_IRQHandler                  0x080002b7   Thumb Code     0  startup_stm32f446xx.o(.text)
    DMA2_Stream5_IRQHandler                  0x080002b7   Thumb Code     0  startup_stm32f446xx.o(.text)
    DMA2_Stream6_IRQHandler                  0x080002b7   Thumb Code     0  startup_stm32f446xx.o(.text)
    DMA2_Stream7_IRQHandler                  0x080002b7   Thumb Code     0  startup_stm32f446xx.o(.text)
    EXTI0_IRQHandler                         0x080002b7   Thumb Code     0  startup_stm32f446xx.o(.text)
    EXTI15_10_IRQHandler                     0x080002b7   Thumb Code     0  startup_stm32f446xx.o(.text)
    EXTI1_IRQHandler                         0x080002b7   Thumb Code     0  startup_stm32f446xx.o(.text)
    EXTI2_IRQHandler                         0x080002b7   Thumb Code     0  startup_stm32f446xx.o(.text)
    EXTI3_IRQHandler                         0x080002b7   Thumb Code     0  startup_stm32f446xx.o(.text)
    EXTI4_IRQHandler                         0x080002b7   Thumb Code     0  startup_stm32f446xx.o(.text)
    EXTI9_5_IRQHandler                       0x080002b7   Thumb Code     0  startup_stm32f446xx.o(.text)
    FLASH_IRQHandler                         0x080002b7   Thumb Code     0  startup_stm32f446xx.o(.text)
    FMC_IRQHandler                           0x080002b7   Thumb Code     0  startup_stm32f446xx.o(.text)
    FMPI2C1_ER_IRQHandler                    0x080002b7   Thumb Code     0  startup_stm32f446xx.o(.text)
    FMPI2C1_EV_IRQHandler                    0x080002b7   Thumb Code     0  startup_stm32f446xx.o(.text)
    FPU_IRQHandler                           0x080002b7   Thumb Code     0  startup_stm32f446xx.o(.text)
    I2C1_ER_IRQHandler                       0x080002b7   Thumb Code     0  startup_stm32f446xx.o(.text)
    I2C1_EV_IRQHandler                       0x080002b7   Thumb Code     0  startup_stm32f446xx.o(.text)
    I2C2_ER_IRQHandler                       0x080002b7   Thumb Code     0  startup_stm32f446xx.o(.text)
    I2C2_EV_IRQHandler                       0x080002b7   Thumb Code     0  startup_stm32f446xx.o(.text)
    I2C3_ER_IRQHandler                       0x080002b7   Thumb Code     0  startup_stm32f446xx.o(.text)
    I2C3_EV_IRQHandler                       0x080002b7   Thumb Code     0  startup_stm32f446xx.o(.text)
    OTG_FS_IRQHandler                        0x080002b7   Thumb Code     0  startup_stm32f446xx.o(.text)
    OTG_FS_WKUP_IRQHandler                   0x080002b7   Thumb Code     0  startup_stm32f446xx.o(.text)
    OTG_HS_EP1_IN_IRQHandler                 0x080002b7   Thumb Code     0  startup_stm32f446xx.o(.text)
    OTG_HS_EP1_OUT_IRQHandler                0x080002b7   Thumb Code     0  startup_stm32f446xx.o(.text)
    OTG_HS_IRQHandler                        0x080002b7   Thumb Code     0  startup_stm32f446xx.o(.text)
    OTG_HS_WKUP_IRQHandler                   0x080002b7   Thumb Code     0  startup_stm32f446xx.o(.text)
    PVD_IRQHandler                           0x080002b7   Thumb Code     0  startup_stm32f446xx.o(.text)
    QUADSPI_IRQHandler                       0x080002b7   Thumb Code     0  startup_stm32f446xx.o(.text)
    RCC_IRQHandler                           0x080002b7   Thumb Code     0  startup_stm32f446xx.o(.text)
    RTC_Alarm_IRQHandler                     0x080002b7   Thumb Code     0  startup_stm32f446xx.o(.text)
    RTC_WKUP_IRQHandler                      0x080002b7   Thumb Code     0  startup_stm32f446xx.o(.text)
    SAI1_IRQHandler                          0x080002b7   Thumb Code     0  startup_stm32f446xx.o(.text)
    SAI2_IRQHandler                          0x080002b7   Thumb Code     0  startup_stm32f446xx.o(.text)
    SDIO_IRQHandler                          0x080002b7   Thumb Code     0  startup_stm32f446xx.o(.text)
    SPDIF_RX_IRQHandler                      0x080002b7   Thumb Code     0  startup_stm32f446xx.o(.text)
    SPI1_IRQHandler                          0x080002b7   Thumb Code     0  startup_stm32f446xx.o(.text)
    SPI2_IRQHandler                          0x080002b7   Thumb Code     0  startup_stm32f446xx.o(.text)
    SPI3_IRQHandler                          0x080002b7   Thumb Code     0  startup_stm32f446xx.o(.text)
    SPI4_IRQHandler                          0x080002b7   Thumb Code     0  startup_stm32f446xx.o(.text)
    TAMP_STAMP_IRQHandler                    0x080002b7   Thumb Code     0  startup_stm32f446xx.o(.text)
    TIM1_BRK_TIM9_IRQHandler                 0x080002b7   Thumb Code     0  startup_stm32f446xx.o(.text)
    TIM1_CC_IRQHandler                       0x080002b7   Thumb Code     0  startup_stm32f446xx.o(.text)
    TIM1_TRG_COM_TIM11_IRQHandler            0x080002b7   Thumb Code     0  startup_stm32f446xx.o(.text)
    TIM2_IRQHandler                          0x080002b7   Thumb Code     0  startup_stm32f446xx.o(.text)
    TIM3_IRQHandler                          0x080002b7   Thumb Code     0  startup_stm32f446xx.o(.text)
    TIM4_IRQHandler                          0x080002b7   Thumb Code     0  startup_stm32f446xx.o(.text)
    TIM5_IRQHandler                          0x080002b7   Thumb Code     0  startup_stm32f446xx.o(.text)
    TIM6_DAC_IRQHandler                      0x080002b7   Thumb Code     0  startup_stm32f446xx.o(.text)
    TIM7_IRQHandler                          0x080002b7   Thumb Code     0  startup_stm32f446xx.o(.text)
    TIM8_BRK_TIM12_IRQHandler                0x080002b7   Thumb Code     0  startup_stm32f446xx.o(.text)
    TIM8_CC_IRQHandler                       0x080002b7   Thumb Code     0  startup_stm32f446xx.o(.text)
    TIM8_TRG_COM_TIM14_IRQHandler            0x080002b7   Thumb Code     0  startup_stm32f446xx.o(.text)
    TIM8_UP_TIM13_IRQHandler                 0x080002b7   Thumb Code     0  startup_stm32f446xx.o(.text)
    UART4_IRQHandler                         0x080002b7   Thumb Code     0  startup_stm32f446xx.o(.text)
    UART5_IRQHandler                         0x080002b7   Thumb Code     0  startup_stm32f446xx.o(.text)
    USART1_IRQHandler                        0x080002b7   Thumb Code     0  startup_stm32f446xx.o(.text)
    USART3_IRQHandler                        0x080002b7   Thumb Code     0  startup_stm32f446xx.o(.text)
    USART6_IRQHandler                        0x080002b7   Thumb Code     0  startup_stm32f446xx.o(.text)
    WWDG_IRQHandler                          0x080002b7   Thumb Code     0  startup_stm32f446xx.o(.text)
    __aeabi_uldivmod                         0x080002c1   Thumb Code    98  uldiv.o(.text)
    __aeabi_memcpy                           0x08000323   Thumb Code    36  memcpya.o(.text)
    __aeabi_memcpy4                          0x08000323   Thumb Code     0  memcpya.o(.text)
    __aeabi_memcpy8                          0x08000323   Thumb Code     0  memcpya.o(.text)
    __aeabi_memset                           0x08000347   Thumb Code    14  memseta.o(.text)
    __aeabi_memset4                          0x08000347   Thumb Code     0  memseta.o(.text)
    __aeabi_memset8                          0x08000347   Thumb Code     0  memseta.o(.text)
    __aeabi_memclr                           0x08000355   Thumb Code     4  memseta.o(.text)
    __aeabi_memclr4                          0x08000355   Thumb Code     0  memseta.o(.text)
    __aeabi_memclr8                          0x08000355   Thumb Code     0  memseta.o(.text)
    memset                                   0x08000359   Thumb Code    18  memseta.o(.text)
    strlen                                   0x0800036b   Thumb Code    14  strlen.o(.text)
    strtok                                   0x08000379   Thumb Code    62  strtok.o(.text)
    atoi                                     0x080003bd   Thumb Code    26  atoi.o(.text)
    __aeabi_dadd                             0x080003d7   Thumb Code   322  dadd.o(.text)
    __aeabi_dsub                             0x08000519   Thumb Code     6  dadd.o(.text)
    __aeabi_drsub                            0x0800051f   Thumb Code     6  dadd.o(.text)
    __aeabi_dmul                             0x08000525   Thumb Code   228  dmul.o(.text)
    __aeabi_ddiv                             0x08000609   Thumb Code   222  ddiv.o(.text)
    __aeabi_i2d                              0x080006e7   Thumb Code    34  dflti.o(.text)
    __aeabi_ui2d                             0x08000709   Thumb Code    26  dfltui.o(.text)
    __aeabi_d2iz                             0x08000723   Thumb Code    62  dfixi.o(.text)
    __aeabi_d2uiz                            0x08000761   Thumb Code    50  dfixui.o(.text)
    __aeabi_f2d                              0x08000793   Thumb Code    38  f2d.o(.text)
    __aeabi_d2f                              0x080007b9   Thumb Code    56  d2f.o(.text)
    __aeabi_uidiv                            0x080007f1   Thumb Code     0  uidiv.o(.text)
    __aeabi_uidivmod                         0x080007f1   Thumb Code    44  uidiv.o(.text)
    __aeabi_llsl                             0x0800081d   Thumb Code    30  llshl.o(.text)
    _ll_shift_l                              0x0800081d   Thumb Code     0  llshl.o(.text)
    __aeabi_llsr                             0x0800083b   Thumb Code    32  llushr.o(.text)
    _ll_ushift_r                             0x0800083b   Thumb Code     0  llushr.o(.text)
    __aeabi_lasr                             0x0800085b   Thumb Code    36  llsshr.o(.text)
    _ll_sshift_r                             0x0800085b   Thumb Code     0  llsshr.o(.text)
    __strtod_int                             0x080008b7   Thumb Code    90  strtod.o(.text)
    strtol                                   0x0800091d   Thumb Code   112  strtol.o(.text)
    __I$use$fp                               0x0800098d   Thumb Code     0  iusefp.o(.text)
    _float_round                             0x0800098d   Thumb Code    18  fepilogue.o(.text)
    _float_epilogue                          0x0800099f   Thumb Code    92  fepilogue.o(.text)
    _double_round                            0x080009fb   Thumb Code    30  depilogue.o(.text)
    _double_epilogue                         0x08000a19   Thumb Code   156  depilogue.o(.text)
    _drnd                                    0x08000ab5   Thumb Code   132  drnd.o(.text)
    __aeabi_d2ulz                            0x08000b3d   Thumb Code    48  dfixul.o(.text)
    __aeabi_cdcmpeq                          0x08000b6d   Thumb Code     0  cdcmple.o(.text)
    __aeabi_cdcmple                          0x08000b6d   Thumb Code    48  cdcmple.o(.text)
    __aeabi_cdrcmple                         0x08000b9d   Thumb Code    48  cdrcmple.o(.text)
    __scatterload                            0x08000bcd   Thumb Code    28  init.o(.text)
    __scatterload_rt2                        0x08000bcd   Thumb Code     0  init.o(.text)
    __rt_ctype_table                         0x08000bf1   Thumb Code     4  ctype_o.o(.text)
    isspace                                  0x08000bf9   Thumb Code    18  isspace_o.o(.text)
    _scanf_real                              0x08000d35   Thumb Code     0  scanf_fp.o(.text)
    _scanf_really_real                       0x08000d35   Thumb Code   556  scanf_fp.o(.text)
    _sgetc                                   0x08000f6d   Thumb Code    30  _sgetc.o(.text)
    _sbackspace                              0x08000f8b   Thumb Code    34  _sgetc.o(.text)
    _strtoul                                 0x08000fad   Thumb Code   158  _strtoul.o(.text)
    _chval                                   0x0800104b   Thumb Code    28  _chval.o(.text)
    __aeabi_ul2d                             0x08001067   Thumb Code    24  dfltul.o(.text)
    BusFault_Handler                         0x0800107f   Thumb Code     2  stm32f4xx_it.o(i.BusFault_Handler)
    DMA1_Stream5_IRQHandler                  0x08001081   Thumb Code     6  stm32f4xx_it.o(i.DMA1_Stream5_IRQHandler)
    DebugMon_Handler                         0x08001131   Thumb Code     2  stm32f4xx_it.o(i.DebugMon_Handler)
    Error_Handler                            0x08001133   Thumb Code     2  main.o(i.Error_Handler)
    HAL_DMA_Abort_IT                         0x08001135   Thumb Code    36  stm32f4xx_hal_dma.o(i.HAL_DMA_Abort_IT)
    HAL_DMA_IRQHandler                       0x08001159   Thumb Code   412  stm32f4xx_hal_dma.o(i.HAL_DMA_IRQHandler)
    HAL_DMA_Init                             0x080012f9   Thumb Code   206  stm32f4xx_hal_dma.o(i.HAL_DMA_Init)
    HAL_DMA_Start_IT                         0x080013cd   Thumb Code   110  stm32f4xx_hal_dma.o(i.HAL_DMA_Start_IT)
    HAL_Delay                                0x0800143d   Thumb Code    32  stm32f4xx_hal.o(i.HAL_Delay)
    HAL_GPIO_Init                            0x08001461   Thumb Code   384  stm32f4xx_hal_gpio.o(i.HAL_GPIO_Init)
    HAL_GPIO_WritePin                        0x08001609   Thumb Code    10  stm32f4xx_hal_gpio.o(i.HAL_GPIO_WritePin)
    HAL_GetTick                              0x08001615   Thumb Code     6  stm32f4xx_hal.o(i.HAL_GetTick)
    HAL_I2C_Init                             0x08001621   Thumb Code   376  stm32f4xx_hal_i2c.o(i.HAL_I2C_Init)
    HAL_I2C_Master_Receive                   0x080017a9   Thumb Code   468  stm32f4xx_hal_i2c.o(i.HAL_I2C_Master_Receive)
    HAL_I2C_Master_Transmit                  0x08001989   Thumb Code   290  stm32f4xx_hal_i2c.o(i.HAL_I2C_Master_Transmit)
    HAL_I2C_Mem_Read                         0x08001ab5   Thumb Code   490  stm32f4xx_hal_i2c.o(i.HAL_I2C_Mem_Read)
    HAL_I2C_Mem_Write                        0x08001cad   Thumb Code   294  stm32f4xx_hal_i2c.o(i.HAL_I2C_Mem_Write)
    HAL_I2C_MspInit                          0x08001ddd   Thumb Code   188  stm32f4xx_hal_msp.o(i.HAL_I2C_MspInit)
    HAL_IncTick                              0x08001ead   Thumb Code    12  stm32f4xx_hal.o(i.HAL_IncTick)
    HAL_Init                                 0x08001ebd   Thumb Code    48  stm32f4xx_hal.o(i.HAL_Init)
    HAL_InitTick                             0x08001ef1   Thumb Code   100  stm32f4xx_hal_timebase_tim.o(i.HAL_InitTick)
    HAL_MspInit                              0x08001f65   Thumb Code    52  stm32f4xx_hal_msp.o(i.HAL_MspInit)
    HAL_NVIC_EnableIRQ                       0x08001f9d   Thumb Code    26  stm32f4xx_hal_cortex.o(i.HAL_NVIC_EnableIRQ)
    HAL_NVIC_SetPriority                     0x08001fb9   Thumb Code    60  stm32f4xx_hal_cortex.o(i.HAL_NVIC_SetPriority)
    HAL_NVIC_SetPriorityGrouping             0x08001ff9   Thumb Code    26  stm32f4xx_hal_cortex.o(i.HAL_NVIC_SetPriorityGrouping)
    HAL_PWREx_EnableOverDrive                0x0800201d   Thumb Code    98  stm32f4xx_hal_pwr_ex.o(i.HAL_PWREx_EnableOverDrive)
    HAL_RCC_ClockConfig                      0x0800208d   Thumb Code   288  stm32f4xx_hal_rcc.o(i.HAL_RCC_ClockConfig)
    HAL_RCC_GetClockConfig                   0x080021c1   Thumb Code    54  stm32f4xx_hal_rcc.o(i.HAL_RCC_GetClockConfig)
    HAL_RCC_GetPCLK1Freq                     0x08002201   Thumb Code    20  stm32f4xx_hal_rcc.o(i.HAL_RCC_GetPCLK1Freq)
    HAL_RCC_GetPCLK2Freq                     0x08002221   Thumb Code    20  stm32f4xx_hal_rcc.o(i.HAL_RCC_GetPCLK2Freq)
    HAL_RCC_GetSysClockFreq                  0x08002241   Thumb Code   140  stm32f4xx_hal_rcc_ex.o(i.HAL_RCC_GetSysClockFreq)
    HAL_RCC_OscConfig                        0x080022d9   Thumb Code   814  stm32f4xx_hal_rcc_ex.o(i.HAL_RCC_OscConfig)
    HAL_TIMEx_BreakCallback                  0x0800261d   Thumb Code     2  stm32f4xx_hal_tim_ex.o(i.HAL_TIMEx_BreakCallback)
    HAL_TIMEx_CommutCallback                 0x0800261f   Thumb Code     2  stm32f4xx_hal_tim_ex.o(i.HAL_TIMEx_CommutCallback)
    HAL_TIMEx_MasterConfigSynchronization    0x08002621   Thumb Code   116  stm32f4xx_hal_tim_ex.o(i.HAL_TIMEx_MasterConfigSynchronization)
    HAL_TIM_Base_Init                        0x080026b1   Thumb Code    54  stm32f4xx_hal_tim.o(i.HAL_TIM_Base_Init)
    HAL_TIM_Base_MspInit                     0x080026e7   Thumb Code     2  stm32f4xx_hal_tim.o(i.HAL_TIM_Base_MspInit)
    HAL_TIM_Base_Start_IT                    0x080026e9   Thumb Code    34  stm32f4xx_hal_tim.o(i.HAL_TIM_Base_Start_IT)
    HAL_TIM_Encoder_Init                     0x0800270b   Thumb Code   152  stm32f4xx_hal_tim.o(i.HAL_TIM_Encoder_Init)
    HAL_TIM_Encoder_MspInit                  0x080027a5   Thumb Code   302  stm32f4xx_hal_msp.o(i.HAL_TIM_Encoder_MspInit)
    HAL_TIM_Encoder_Start                    0x080028ed   Thumb Code    52  stm32f4xx_hal_tim.o(i.HAL_TIM_Encoder_Start)
    HAL_TIM_IC_CaptureCallback               0x08002921   Thumb Code     2  stm32f4xx_hal_tim.o(i.HAL_TIM_IC_CaptureCallback)
    HAL_TIM_IRQHandler                       0x08002923   Thumb Code   358  stm32f4xx_hal_tim.o(i.HAL_TIM_IRQHandler)
    HAL_TIM_OC_DelayElapsedCallback          0x08002a89   Thumb Code     2  stm32f4xx_hal_tim.o(i.HAL_TIM_OC_DelayElapsedCallback)
    HAL_TIM_PWM_PulseFinishedCallback        0x08002a8b   Thumb Code     2  stm32f4xx_hal_tim.o(i.HAL_TIM_PWM_PulseFinishedCallback)
    HAL_TIM_PeriodElapsedCallback            0x08002a8d   Thumb Code    14  main.o(i.HAL_TIM_PeriodElapsedCallback)
    HAL_TIM_TriggerCallback                  0x08002aa1   Thumb Code     2  stm32f4xx_hal_tim.o(i.HAL_TIM_TriggerCallback)
    HAL_UART_ErrorCallback                   0x08002aa3   Thumb Code     2  stm32f4xx_hal_uart.o(i.HAL_UART_ErrorCallback)
    HAL_UART_IRQHandler                      0x08002aa5   Thumb Code   270  stm32f4xx_hal_uart.o(i.HAL_UART_IRQHandler)
    HAL_UART_Init                            0x08002bb9   Thumb Code    98  stm32f4xx_hal_uart.o(i.HAL_UART_Init)
    HAL_UART_MspInit                         0x08002c1d   Thumb Code   160  stm32f4xx_hal_msp.o(i.HAL_UART_MspInit)
    HAL_UART_Receive_DMA                     0x08002cd1   Thumb Code   138  stm32f4xx_hal_uart.o(i.HAL_UART_Receive_DMA)
    HAL_UART_RxCpltCallback                  0x08002d69   Thumb Code     2  stm32f4xx_hal_uart.o(i.HAL_UART_RxCpltCallback)
    HAL_UART_RxHalfCpltCallback              0x08002d6b   Thumb Code     2  stm32f4xx_hal_uart.o(i.HAL_UART_RxHalfCpltCallback)
    HAL_UART_Transmit                        0x08002d6d   Thumb Code   186  stm32f4xx_hal_uart.o(i.HAL_UART_Transmit)
    HAL_UART_TxCpltCallback                  0x08002e27   Thumb Code     2  stm32f4xx_hal_uart.o(i.HAL_UART_TxCpltCallback)
    HardFault_Handler                        0x08002e29   Thumb Code     2  stm32f4xx_it.o(i.HardFault_Handler)
    MemManage_Handler                        0x080035e1   Thumb Code     2  stm32f4xx_it.o(i.MemManage_Handler)
    NMI_Handler                              0x080035e3   Thumb Code     2  stm32f4xx_it.o(i.NMI_Handler)
    PCA9685_AutoIncrement                    0x080035e5   Thumb Code    10  pca9685.o(i.PCA9685_AutoIncrement)
    PCA9685_Init                             0x080035f1   Thumb Code    26  pca9685.o(i.PCA9685_Init)
    PCA9685_RestartMode                      0x08003611   Thumb Code    10  pca9685.o(i.PCA9685_RestartMode)
    PCA9685_SetBit                           0x0800361d   Thumb Code   108  pca9685.o(i.PCA9685_SetBit)
    PCA9685_SetPin                           0x0800368d   Thumb Code    60  pca9685.o(i.PCA9685_SetPin)
    PCA9685_SetPwm                           0x080036c9   Thumb Code    64  pca9685.o(i.PCA9685_SetPwm)
    PCA9685_SetPwmFrequency                  0x0800370d   Thumb Code   158  pca9685.o(i.PCA9685_SetPwmFrequency)
    PCA9685_SetServoAngle                    0x080037d1   Thumb Code   108  pca9685.o(i.PCA9685_SetServoAngle)
    PCA9685_SleepMode                        0x08003861   Thumb Code    10  pca9685.o(i.PCA9685_SleepMode)
    PCA9685_SoftwareReset                    0x0800386d   Thumb Code    34  pca9685.o(i.PCA9685_SoftwareReset)
    PrintStatus                              0x08003895   Thumb Code   216  main.o(i.PrintStatus)
    SysTick_Handler                          0x080039b9   Thumb Code    38  port.o(i.SysTick_Handler)
    SystemClock_Config                       0x080039e5   Thumb Code   128  main.o(i.SystemClock_Config)
    SystemInit                               0x08003a6d   Thumb Code    22  system_stm32f4xx.o(i.SystemInit)
    TIM1_UP_TIM10_IRQHandler                 0x08003a89   Thumb Code     6  stm32f4xx_it.o(i.TIM1_UP_TIM10_IRQHandler)
    TIM_Base_SetConfig                       0x08003a95   Thumb Code   156  stm32f4xx_hal_tim.o(i.TIM_Base_SetConfig)
    TIM_CCxChannelCmd                        0x08003b5d   Thumb Code    26  stm32f4xx_hal_tim.o(i.TIM_CCxChannelCmd)
    UARTParser                               0x08003b79   Thumb Code   544  main.o(i.UARTParser)
    USART2_IRQHandler                        0x080040f5   Thumb Code     6  stm32f4xx_it.o(i.USART2_IRQHandler)
    UsageFault_Handler                       0x08004101   Thumb Code     2  stm32f4xx_it.o(i.UsageFault_Handler)
    __0sprintf                               0x08004105   Thumb Code    34  printfa.o(i.__0sprintf)
    __1sprintf                               0x08004105   Thumb Code     0  printfa.o(i.__0sprintf)
    __2sprintf                               0x08004105   Thumb Code     0  printfa.o(i.__0sprintf)
    __c89sprintf                             0x08004105   Thumb Code     0  printfa.o(i.__0sprintf)
    sprintf                                  0x08004105   Thumb Code     0  printfa.o(i.__0sprintf)
    __aeabi_errno_addr                       0x0800414d   Thumb Code     4  errno.o(i.__aeabi_errno_addr)
    __rt_errno_addr                          0x0800414d   Thumb Code     0  errno.o(i.__aeabi_errno_addr)
    __hardfp_atof                            0x08004159   Thumb Code    44  atof.o(i.__hardfp_atof)
    __hardfp_floor                           0x08004191   Thumb Code   252  floor.o(i.__hardfp_floor)
    __hardfp_round                           0x080042a9   Thumb Code   194  round.o(i.__hardfp_round)
    __read_errno                             0x08004389   Thumb Code     6  errno.o(i.__read_errno)
    __scatterload_copy                       0x08004395   Thumb Code    14  handlers.o(i.__scatterload_copy)
    __scatterload_null                       0x080043a3   Thumb Code     2  handlers.o(i.__scatterload_null)
    __scatterload_zeroinit                   0x080043a5   Thumb Code    14  handlers.o(i.__scatterload_zeroinit)
    __set_errno                              0x080043b5   Thumb Code     6  errno.o(i.__set_errno)
    _is_digit                                0x08004545   Thumb Code    14  scanf_fp.o(i._is_digit)
    checkTimeoutExpired                      0x08004c65   Thumb Code    30  vl53l0x.o(i.checkTimeoutExpired)
    decodeTimeout                            0x08004c83   Thumb Code    12  vl53l0x.o(i.decodeTimeout)
    decodeVcselPeriod                        0x08004c8f   Thumb Code     8  vl53l0x.o(i.decodeVcselPeriod)
    encodeTimeout                            0x08004c97   Thumb Code    28  vl53l0x.o(i.encodeTimeout)
    getMeasurementTimingBudget               0x08004cb3   Thumb Code   106  vl53l0x.o(i.getMeasurementTimingBudget)
    getSequenceStepEnables                   0x08004d1d   Thumb Code    40  vl53l0x.o(i.getSequenceStepEnables)
    getSequenceStepTimeouts                  0x08004d45   Thumb Code   104  vl53l0x.o(i.getSequenceStepTimeouts)
    getSpadInfo                              0x08004dad   Thumb Code   260  vl53l0x.o(i.getSpadInfo)
    getVcselPulsePeriod                      0x08004eb1   Thumb Code    30  vl53l0x.o(i.getVcselPulsePeriod)
    init                                     0x08004ecf   Thumb Code  1268  vl53l0x.o(i.init)
    inverse_kinematics                       0x080053c5   Thumb Code   284  main.o(i.inverse_kinematics)
    main                                     0x080054f5   Thumb Code   980  main.o(i.main)
    osDelay                                  0x08005955   Thumb Code    46  cmsis_os2.o(i.osDelay)
    osKernelInitialize                       0x08005989   Thumb Code    48  cmsis_os2.o(i.osKernelInitialize)
    osKernelStart                            0x080059bd   Thumb Code    56  cmsis_os2.o(i.osKernelStart)
    osThreadNew                              0x080059f9   Thumb Code   158  cmsis_os2.o(i.osThreadNew)
    performSingleRefCalibration              0x08005a9d   Thumb Code    70  vl53l0x.o(i.performSingleRefCalibration)
    pvPortMalloc                             0x08006279   Thumb Code   210  heap_4.o(i.pvPortMalloc)
    pxPortInitialiseStack                    0x08006351   Thumb Code    40  port.o(i.pxPortInitialiseStack)
    readLaser                                0x08006399   Thumb Code    38  main.o(i.readLaser)
    readMulti                                0x080063c9   Thumb Code    44  main.o(i.readMulti)
    readRangeContinuousMillimeters           0x080063f9   Thumb Code    76  vl53l0x.o(i.readRangeContinuousMillimeters)
    readReg                                  0x08006445   Thumb Code    38  vl53l0x.o(i.readReg)
    readReg16Bit                             0x08006471   Thumb Code    40  vl53l0x.o(i.readReg16Bit)
    safe_unsigned_subtract                   0x0800649d   Thumb Code    36  main.o(i.safe_unsigned_subtract)
    setAddress                               0x080064c1   Thumb Code    20  vl53l0x.o(i.setAddress)
    setMeasurementTimingBudget               0x080064d5   Thumb Code   164  vl53l0x.o(i.setMeasurementTimingBudget)
    setSignalRateLimit                       0x08006579   Thumb Code    54  vl53l0x.o(i.setSignalRateLimit)
    setTimeout                               0x080065b9   Thumb Code     4  vl53l0x.o(i.setTimeout)
    setVcselPulsePeriod                      0x080065bd   Thumb Code   478  vl53l0x.o(i.setVcselPulsePeriod)
    setup_VL53L0X                            0x0800679b   Thumb Code    12  vl53l0x.o(i.setup_VL53L0X)
    startContinuous                          0x080067a7   Thumb Code   116  vl53l0x.o(i.startContinuous)
    startTimeout                             0x0800681b   Thumb Code    12  vl53l0x.o(i.startTimeout)
    timeoutMclksToMicroseconds               0x08006827   Thumb Code    34  vl53l0x.o(i.timeoutMclksToMicroseconds)
    timeoutMicrosecondsToMclks               0x08006849   Thumb Code    34  vl53l0x.o(i.timeoutMicrosecondsToMclks)
    updateMotor                              0x0800686d   Thumb Code   580  main.o(i.updateMotor)
    update_motor_direction                   0x08006aed   Thumb Code   282  main.o(i.update_motor_direction)
    update_motor_pid                         0x08006c19   Thumb Code    38  main.o(i.update_motor_pid)
    update_servo_angle                       0x08006c49   Thumb Code     6  main.o(i.update_servo_angle)
    uxListRemove                             0x08006c4f   Thumb Code    38  list.o(i.uxListRemove)
    vApplicationGetIdleTaskMemory            0x08006c75   Thumb Code    16  cmsis_os2.o(i.vApplicationGetIdleTaskMemory)
    vApplicationGetTimerTaskMemory           0x08006c89   Thumb Code    18  cmsis_os2.o(i.vApplicationGetTimerTaskMemory)
    vListInitialise                          0x08006ca1   Thumb Code    22  list.o(i.vListInitialise)
    vListInitialiseItem                      0x08006cb7   Thumb Code     6  list.o(i.vListInitialiseItem)
    vListInsert                              0x08006cbd   Thumb Code    48  list.o(i.vListInsert)
    vListInsertEnd                           0x08006ced   Thumb Code    24  list.o(i.vListInsertEnd)
    vPortEnterCritical                       0x08006d05   Thumb Code    54  port.o(i.vPortEnterCritical)
    vPortExitCritical                        0x08006d45   Thumb Code    34  port.o(i.vPortExitCritical)
    vPortFree                                0x08006d6d   Thumb Code    88  heap_4.o(i.vPortFree)
    vPortSetupTimerInterrupt                 0x08006dc9   Thumb Code    32  port.o(i.vPortSetupTimerInterrupt)
    vPortValidateInterruptPriority           0x08006ded   Thumb Code    74  port.o(i.vPortValidateInterruptPriority)
    vQueueAddToRegistry                      0x08006e41   Thumb Code    34  queue.o(i.vQueueAddToRegistry)
    vQueueWaitForMessageRestricted           0x08006e69   Thumb Code    68  queue.o(i.vQueueWaitForMessageRestricted)
    vTaskDelay                               0x08006ead   Thumb Code    66  tasks.o(i.vTaskDelay)
    vTaskInternalSetTimeOutState             0x08006ef9   Thumb Code    12  tasks.o(i.vTaskInternalSetTimeOutState)
    vTaskMissedYield                         0x08006f09   Thumb Code     8  tasks.o(i.vTaskMissedYield)
    vTaskPlaceOnEventList                    0x08006f15   Thumb Code    44  tasks.o(i.vTaskPlaceOnEventList)
    vTaskPlaceOnEventListRestricted          0x08006f45   Thumb Code    52  tasks.o(i.vTaskPlaceOnEventListRestricted)
    vTaskStartScheduler                      0x08006f7d   Thumb Code   118  tasks.o(i.vTaskStartScheduler)
    vTaskSuspendAll                          0x08007005   Thumb Code    10  tasks.o(i.vTaskSuspendAll)
    vTaskSwitchContext                       0x08007015   Thumb Code    90  tasks.o(i.vTaskSwitchContext)
    writeMulti                               0x08007091   Thumb Code    26  main.o(i.writeMulti)
    writeReg                                 0x080070b1   Thumb Code    34  vl53l0x.o(i.writeReg)
    writeReg16Bit                            0x080070d9   Thumb Code    36  vl53l0x.o(i.writeReg16Bit)
    writeReg32Bit                            0x08007101   Thumb Code    44  vl53l0x.o(i.writeReg32Bit)
    xPortStartScheduler                      0x08007131   Thumb Code   222  port.o(i.xPortStartScheduler)
    xQueueGenericCreateStatic                0x08007225   Thumb Code   102  queue.o(i.xQueueGenericCreateStatic)
    xQueueGenericReset                       0x0800728d   Thumb Code   132  queue.o(i.xQueueGenericReset)
    xQueueGenericSend                        0x08007315   Thumb Code   346  queue.o(i.xQueueGenericSend)
    xQueueGenericSendFromISR                 0x08007475   Thumb Code   188  queue.o(i.xQueueGenericSendFromISR)
    xQueueReceive                            0x08007531   Thumb Code   308  queue.o(i.xQueueReceive)
    xTaskCheckForTimeOut                     0x08007669   Thumb Code   112  tasks.o(i.xTaskCheckForTimeOut)
    xTaskCreate                              0x080076dd   Thumb Code    90  tasks.o(i.xTaskCreate)
    xTaskCreateStatic                        0x08007737   Thumb Code    86  tasks.o(i.xTaskCreateStatic)
    xTaskGetSchedulerState                   0x0800778d   Thumb Code    22  tasks.o(i.xTaskGetSchedulerState)
    xTaskGetTickCount                        0x080077a9   Thumb Code     6  tasks.o(i.xTaskGetTickCount)
    xTaskIncrementTick                       0x080077b5   Thumb Code   190  tasks.o(i.xTaskIncrementTick)
    xTaskPriorityDisinherit                  0x0800787d   Thumb Code   118  tasks.o(i.xTaskPriorityDisinherit)
    xTaskRemoveFromEventList                 0x080078fd   Thumb Code    98  tasks.o(i.xTaskRemoveFromEventList)
    xTaskResumeAll                           0x0800796d   Thumb Code   182  tasks.o(i.xTaskResumeAll)
    xTimerCreateTimerTask                    0x08007a31   Thumb Code    78  timers.o(i.xTimerCreateTimerTask)
    xTimerGenericCommand                     0x08007a91   Thumb Code    98  timers.o(i.xTimerGenericCommand)
    UARTParserTask_attributes                0x08007af8   Data          36  main.o(.constdata)
    PrintStatusTask_attributes               0x08007b1c   Data          36  main.o(.constdata)
    ReadLaserTask_attributes                 0x08007b40   Data          36  main.o(.constdata)
    UpdateMotorTask_attributes               0x08007b64   Data          36  main.o(.constdata)
    AHBPrescTable                            0x08007b90   Data          16  system_stm32f4xx.o(.constdata)
    APBPrescTable                            0x08007ba0   Data           8  system_stm32f4xx.o(.constdata)
    __ctype_table                            0x08007ba8   Data         129  ctype_o.o(.constdata)
    Region$$Table$$Base                      0x08007c70   Number         0  anon$$obj.o(Region$$Table)
    Region$$Table$$Limit                     0x08007c90   Number         0  anon$$obj.o(Region$$Table)
    pca9685_i2c                              0x20000000   Data           4  pca9685.o(.data)
    UARTParserTaskHandle                     0x20000004   Data           4  main.o(.data)
    PrintStatusTaskHandle                    0x20000008   Data           4  main.o(.data)
    ReadLaserTaskHandle                      0x2000000c   Data           4  main.o(.data)
    UpdateMotorTaskHandle                    0x20000010   Data           4  main.o(.data)
    laser_value                              0x20000014   Data           6  main.o(.data)
    uwTickFreq                               0x2000003c   Data           1  stm32f4xx_hal.o(.data)
    uwTickPrio                               0x20000040   Data           4  stm32f4xx_hal.o(.data)
    uwTick                                   0x20000044   Data           4  stm32f4xx_hal.o(.data)
    SystemCoreClock                          0x20000048   Data           4  system_stm32f4xx.o(.data)
    pxCurrentTCB                             0x2000004c   Data           4  tasks.o(.data)
    hi2c1                                    0x20000190   Data          84  main.o(.bss)
    hi2c2                                    0x200001e4   Data          84  main.o(.bss)
    htim2                                    0x20000238   Data          64  main.o(.bss)
    htim3                                    0x20000278   Data          64  main.o(.bss)
    htim4                                    0x200002b8   Data          64  main.o(.bss)
    htim5                                    0x200002f8   Data          64  main.o(.bss)
    huart2                                   0x20000338   Data          64  main.o(.bss)
    sensor1                                  0x20000b78   Data          20  main.o(.bss)
    sensor2                                  0x20000b8c   Data          20  main.o(.bss)
    sensor3                                  0x20000ba0   Data          20  main.o(.bss)
    hdma_usart2_rx                           0x20000bb4   Data          96  main.o(.bss)
    htim1                                    0x20000c14   Data          64  stm32f4xx_hal_timebase_tim.o(.bss)
    xQueueRegistry                           0x20000c54   Data          64  queue.o(.bss)
    __initial_sp                             0x20005928   Data           0  startup_stm32f446xx.o(STACK)



==============================================================================

Memory Map of the image

  Image Entry point : 0x080001c5

  Load Region LR_IROM1 (Base: 0x08000000, Size: 0x00007d5c, Max: 0x00080000, ABSOLUTE)

    Execution Region ER_IROM1 (Exec base: 0x08000000, Load base: 0x08000000, Size: 0x00007c90, Max: 0x00080000, ABSOLUTE)

    Exec Addr    Load Addr    Size         Type   Attr      Idx    E Section Name        Object

    0x08000000   0x08000000   0x000001c4   Data   RO            3    RESET               startup_stm32f446xx.o
    0x080001c4   0x080001c4   0x00000000   Code   RO         5514  * .ARM.Collect$$$$00000000  mc_w.l(entry.o)
    0x080001c4   0x080001c4   0x00000004   Code   RO         5816    .ARM.Collect$$$$00000001  mc_w.l(entry2.o)
    0x080001c8   0x080001c8   0x00000004   Code   RO         5819    .ARM.Collect$$$$00000004  mc_w.l(entry5.o)
    0x080001cc   0x080001cc   0x00000000   Code   RO         5821    .ARM.Collect$$$$00000008  mc_w.l(entry7b.o)
    0x080001cc   0x080001cc   0x00000000   Code   RO         5823    .ARM.Collect$$$$0000000A  mc_w.l(entry8b.o)
    0x080001cc   0x080001cc   0x00000008   Code   RO         5824    .ARM.Collect$$$$0000000B  mc_w.l(entry9a.o)
    0x080001d4   0x080001d4   0x00000004   Code   RO         5831    .ARM.Collect$$$$0000000E  mc_w.l(entry12b.o)
    0x080001d8   0x080001d8   0x00000000   Code   RO         5826    .ARM.Collect$$$$0000000F  mc_w.l(entry10a.o)
    0x080001d8   0x080001d8   0x00000000   Code   RO         5828    .ARM.Collect$$$$00000011  mc_w.l(entry11a.o)
    0x080001d8   0x080001d8   0x00000004   Code   RO         5817    .ARM.Collect$$$$00002712  mc_w.l(entry2.o)
    0x080001dc   0x080001dc   0x000000be   Code   RO         5421    .emb_text           port.o
    0x0800029a   0x0800029a   0x00000002   PAD
    0x0800029c   0x0800029c   0x00000024   Code   RO            4    .text               startup_stm32f446xx.o
    0x080002c0   0x080002c0   0x00000062   Code   RO         5517    .text               mc_w.l(uldiv.o)
    0x08000322   0x08000322   0x00000024   Code   RO         5519    .text               mc_w.l(memcpya.o)
    0x08000346   0x08000346   0x00000024   Code   RO         5523    .text               mc_w.l(memseta.o)
    0x0800036a   0x0800036a   0x0000000e   Code   RO         5525    .text               mc_w.l(strlen.o)
    0x08000378   0x08000378   0x00000044   Code   RO         5527    .text               mc_w.l(strtok.o)
    0x080003bc   0x080003bc   0x0000001a   Code   RO         5796    .text               mc_w.l(atoi.o)
    0x080003d6   0x080003d6   0x0000014e   Code   RO         5798    .text               mf_w.l(dadd.o)
    0x08000524   0x08000524   0x000000e4   Code   RO         5800    .text               mf_w.l(dmul.o)
    0x08000608   0x08000608   0x000000de   Code   RO         5802    .text               mf_w.l(ddiv.o)
    0x080006e6   0x080006e6   0x00000022   Code   RO         5804    .text               mf_w.l(dflti.o)
    0x08000708   0x08000708   0x0000001a   Code   RO         5806    .text               mf_w.l(dfltui.o)
    0x08000722   0x08000722   0x0000003e   Code   RO         5808    .text               mf_w.l(dfixi.o)
    0x08000760   0x08000760   0x00000032   Code   RO         5810    .text               mf_w.l(dfixui.o)
    0x08000792   0x08000792   0x00000026   Code   RO         5812    .text               mf_w.l(f2d.o)
    0x080007b8   0x080007b8   0x00000038   Code   RO         5814    .text               mf_w.l(d2f.o)
    0x080007f0   0x080007f0   0x0000002c   Code   RO         5835    .text               mc_w.l(uidiv.o)
    0x0800081c   0x0800081c   0x0000001e   Code   RO         5837    .text               mc_w.l(llshl.o)
    0x0800083a   0x0800083a   0x00000020   Code   RO         5839    .text               mc_w.l(llushr.o)
    0x0800085a   0x0800085a   0x00000024   Code   RO         5841    .text               mc_w.l(llsshr.o)
    0x0800087e   0x0800087e   0x00000002   PAD
    0x08000880   0x08000880   0x0000009c   Code   RO         5850    .text               mc_w.l(strtod.o)
    0x0800091c   0x0800091c   0x00000070   Code   RO         5852    .text               mc_w.l(strtol.o)
    0x0800098c   0x0800098c   0x00000000   Code   RO         5854    .text               mc_w.l(iusefp.o)
    0x0800098c   0x0800098c   0x0000006e   Code   RO         5855    .text               mf_w.l(fepilogue.o)
    0x080009fa   0x080009fa   0x000000ba   Code   RO         5857    .text               mf_w.l(depilogue.o)
    0x08000ab4   0x08000ab4   0x00000088   Code   RO         5859    .text               mf_w.l(drnd.o)
    0x08000b3c   0x08000b3c   0x00000030   Code   RO         5861    .text               mf_w.l(dfixul.o)
    0x08000b6c   0x08000b6c   0x00000030   Code   RO         5863    .text               mf_w.l(cdcmple.o)
    0x08000b9c   0x08000b9c   0x00000030   Code   RO         5865    .text               mf_w.l(cdrcmple.o)
    0x08000bcc   0x08000bcc   0x00000024   Code   RO         5867    .text               mc_w.l(init.o)
    0x08000bf0   0x08000bf0   0x00000008   Code   RO         5872    .text               mc_w.l(ctype_o.o)
    0x08000bf8   0x08000bf8   0x00000012   Code   RO         5894    .text               mc_w.l(isspace_o.o)
    0x08000c0a   0x08000c0a   0x00000002   PAD
    0x08000c0c   0x08000c0c   0x00000360   Code   RO         5900    .text               mc_w.l(scanf_fp.o)
    0x08000f6c   0x08000f6c   0x00000040   Code   RO         5904    .text               mc_w.l(_sgetc.o)
    0x08000fac   0x08000fac   0x0000009e   Code   RO         5906    .text               mc_w.l(_strtoul.o)
    0x0800104a   0x0800104a   0x0000001c   Code   RO         5912    .text               mc_w.l(_chval.o)
    0x08001066   0x08001066   0x00000018   Code   RO         5914    .text               mf_w.l(dfltul.o)
    0x0800107e   0x0800107e   0x00000002   Code   RO          693    i.BusFault_Handler  stm32f4xx_it.o
    0x08001080   0x08001080   0x0000000c   Code   RO          694    i.DMA1_Stream5_IRQHandler  stm32f4xx_it.o
    0x0800108c   0x0800108c   0x00000028   Code   RO         1412    i.DMA_CalcBaseAndBitshift  stm32f4xx_hal_dma.o
    0x080010b4   0x080010b4   0x00000054   Code   RO         1413    i.DMA_CheckFifoParam  stm32f4xx_hal_dma.o
    0x08001108   0x08001108   0x00000028   Code   RO         1414    i.DMA_SetConfig     stm32f4xx_hal_dma.o
    0x08001130   0x08001130   0x00000002   Code   RO          695    i.DebugMon_Handler  stm32f4xx_it.o
    0x08001132   0x08001132   0x00000002   Code   RO          466    i.Error_Handler     main.o
    0x08001134   0x08001134   0x00000024   Code   RO         1416    i.HAL_DMA_Abort_IT  stm32f4xx_hal_dma.o
    0x08001158   0x08001158   0x000001a0   Code   RO         1420    i.HAL_DMA_IRQHandler  stm32f4xx_hal_dma.o
    0x080012f8   0x080012f8   0x000000d4   Code   RO         1421    i.HAL_DMA_Init      stm32f4xx_hal_dma.o
    0x080013cc   0x080013cc   0x0000006e   Code   RO         1425    i.HAL_DMA_Start_IT  stm32f4xx_hal_dma.o
    0x0800143a   0x0800143a   0x00000002   PAD
    0x0800143c   0x0800143c   0x00000024   Code   RO         1852    i.HAL_Delay         stm32f4xx_hal.o
    0x08001460   0x08001460   0x000001a8   Code   RO         1308    i.HAL_GPIO_Init     stm32f4xx_hal_gpio.o
    0x08001608   0x08001608   0x0000000a   Code   RO         1312    i.HAL_GPIO_WritePin  stm32f4xx_hal_gpio.o
    0x08001612   0x08001612   0x00000002   PAD
    0x08001614   0x08001614   0x0000000c   Code   RO         1858    i.HAL_GetTick       stm32f4xx_hal.o
    0x08001620   0x08001620   0x00000188   Code   RO         2114    i.HAL_I2C_Init      stm32f4xx_hal_i2c.o
    0x080017a8   0x080017a8   0x000001e0   Code   RO         2120    i.HAL_I2C_Master_Receive  stm32f4xx_hal_i2c.o
    0x08001988   0x08001988   0x0000012c   Code   RO         2127    i.HAL_I2C_Master_Transmit  stm32f4xx_hal_i2c.o
    0x08001ab4   0x08001ab4   0x000001f8   Code   RO         2132    i.HAL_I2C_Mem_Read  stm32f4xx_hal_i2c.o
    0x08001cac   0x08001cac   0x00000130   Code   RO         2135    i.HAL_I2C_Mem_Write  stm32f4xx_hal_i2c.o
    0x08001ddc   0x08001ddc   0x000000d0   Code   RO          770    i.HAL_I2C_MspInit   stm32f4xx_hal_msp.o
    0x08001eac   0x08001eac   0x00000010   Code   RO         1864    i.HAL_IncTick       stm32f4xx_hal.o
    0x08001ebc   0x08001ebc   0x00000034   Code   RO         1865    i.HAL_Init          stm32f4xx_hal.o
    0x08001ef0   0x08001ef0   0x00000074   Code   RO          830    i.HAL_InitTick      stm32f4xx_hal_timebase_tim.o
    0x08001f64   0x08001f64   0x00000038   Code   RO          771    i.HAL_MspInit       stm32f4xx_hal_msp.o
    0x08001f9c   0x08001f9c   0x0000001a   Code   RO         1715    i.HAL_NVIC_EnableIRQ  stm32f4xx_hal_cortex.o
    0x08001fb6   0x08001fb6   0x00000002   PAD
    0x08001fb8   0x08001fb8   0x00000040   Code   RO         1721    i.HAL_NVIC_SetPriority  stm32f4xx_hal_cortex.o
    0x08001ff8   0x08001ff8   0x00000024   Code   RO         1722    i.HAL_NVIC_SetPriorityGrouping  stm32f4xx_hal_cortex.o
    0x0800201c   0x0800201c   0x00000070   Code   RO         1644    i.HAL_PWREx_EnableOverDrive  stm32f4xx_hal_pwr_ex.o
    0x0800208c   0x0800208c   0x00000134   Code   RO          870    i.HAL_RCC_ClockConfig  stm32f4xx_hal_rcc.o
    0x080021c0   0x080021c0   0x00000040   Code   RO          874    i.HAL_RCC_GetClockConfig  stm32f4xx_hal_rcc.o
    0x08002200   0x08002200   0x00000020   Code   RO          877    i.HAL_RCC_GetPCLK1Freq  stm32f4xx_hal_rcc.o
    0x08002220   0x08002220   0x00000020   Code   RO          878    i.HAL_RCC_GetPCLK2Freq  stm32f4xx_hal_rcc.o
    0x08002240   0x08002240   0x00000098   Code   RO          981    i.HAL_RCC_GetSysClockFreq  stm32f4xx_hal_rcc_ex.o
    0x080022d8   0x080022d8   0x00000344   Code   RO          982    i.HAL_RCC_OscConfig  stm32f4xx_hal_rcc_ex.o
    0x0800261c   0x0800261c   0x00000002   Code   RO         3237    i.HAL_TIMEx_BreakCallback  stm32f4xx_hal_tim_ex.o
    0x0800261e   0x0800261e   0x00000002   Code   RO         3238    i.HAL_TIMEx_CommutCallback  stm32f4xx_hal_tim_ex.o
    0x08002620   0x08002620   0x00000090   Code   RO         3255    i.HAL_TIMEx_MasterConfigSynchronization  stm32f4xx_hal_tim_ex.o
    0x080026b0   0x080026b0   0x00000036   Code   RO         2562    i.HAL_TIM_Base_Init  stm32f4xx_hal_tim.o
    0x080026e6   0x080026e6   0x00000002   Code   RO         2564    i.HAL_TIM_Base_MspInit  stm32f4xx_hal_tim.o
    0x080026e8   0x080026e8   0x00000022   Code   RO         2567    i.HAL_TIM_Base_Start_IT  stm32f4xx_hal_tim.o
    0x0800270a   0x0800270a   0x00000098   Code   RO         2580    i.HAL_TIM_Encoder_Init  stm32f4xx_hal_tim.o
    0x080027a2   0x080027a2   0x00000002   PAD
    0x080027a4   0x080027a4   0x00000148   Code   RO          773    i.HAL_TIM_Encoder_MspInit  stm32f4xx_hal_msp.o
    0x080028ec   0x080028ec   0x00000034   Code   RO         2583    i.HAL_TIM_Encoder_Start  stm32f4xx_hal_tim.o
    0x08002920   0x08002920   0x00000002   Code   RO         2591    i.HAL_TIM_IC_CaptureCallback  stm32f4xx_hal_tim.o
    0x08002922   0x08002922   0x00000166   Code   RO         2605    i.HAL_TIM_IRQHandler  stm32f4xx_hal_tim.o
    0x08002a88   0x08002a88   0x00000002   Code   RO         2608    i.HAL_TIM_OC_DelayElapsedCallback  stm32f4xx_hal_tim.o
    0x08002a8a   0x08002a8a   0x00000002   Code   RO         2635    i.HAL_TIM_PWM_PulseFinishedCallback  stm32f4xx_hal_tim.o
    0x08002a8c   0x08002a8c   0x00000014   Code   RO          467    i.HAL_TIM_PeriodElapsedCallback  main.o
    0x08002aa0   0x08002aa0   0x00000002   Code   RO         2648    i.HAL_TIM_TriggerCallback  stm32f4xx_hal_tim.o
    0x08002aa2   0x08002aa2   0x00000002   Code   RO         3509    i.HAL_UART_ErrorCallback  stm32f4xx_hal_uart.o
    0x08002aa4   0x08002aa4   0x00000114   Code   RO         3512    i.HAL_UART_IRQHandler  stm32f4xx_hal_uart.o
    0x08002bb8   0x08002bb8   0x00000062   Code   RO         3513    i.HAL_UART_Init     stm32f4xx_hal_uart.o
    0x08002c1a   0x08002c1a   0x00000002   PAD
    0x08002c1c   0x08002c1c   0x000000b4   Code   RO          775    i.HAL_UART_MspInit  stm32f4xx_hal_msp.o
    0x08002cd0   0x08002cd0   0x00000098   Code   RO         3517    i.HAL_UART_Receive_DMA  stm32f4xx_hal_uart.o
    0x08002d68   0x08002d68   0x00000002   Code   RO         3519    i.HAL_UART_RxCpltCallback  stm32f4xx_hal_uart.o
    0x08002d6a   0x08002d6a   0x00000002   Code   RO         3520    i.HAL_UART_RxHalfCpltCallback  stm32f4xx_hal_uart.o
    0x08002d6c   0x08002d6c   0x000000ba   Code   RO         3521    i.HAL_UART_Transmit  stm32f4xx_hal_uart.o
    0x08002e26   0x08002e26   0x00000002   Code   RO         3524    i.HAL_UART_TxCpltCallback  stm32f4xx_hal_uart.o
    0x08002e28   0x08002e28   0x00000002   Code   RO          696    i.HardFault_Handler  stm32f4xx_it.o
    0x08002e2a   0x08002e2a   0x0000002e   Code   RO         2156    i.I2C_IsAcknowledgeFailed  stm32f4xx_hal_i2c.o
    0x08002e58   0x08002e58   0x000000ec   Code   RO         2159    i.I2C_MasterRequestRead  stm32f4xx_hal_i2c.o
    0x08002f44   0x08002f44   0x0000009c   Code   RO         2160    i.I2C_MasterRequestWrite  stm32f4xx_hal_i2c.o
    0x08002fe0   0x08002fe0   0x000000fc   Code   RO         2166    i.I2C_RequestMemoryRead  stm32f4xx_hal_i2c.o
    0x080030dc   0x080030dc   0x000000a8   Code   RO         2167    i.I2C_RequestMemoryWrite  stm32f4xx_hal_i2c.o
    0x08003184   0x08003184   0x0000004c   Code   RO         2170    i.I2C_WaitOnBTFFlagUntilTimeout  stm32f4xx_hal_i2c.o
    0x080031d0   0x080031d0   0x00000068   Code   RO         2171    i.I2C_WaitOnFlagUntilTimeout  stm32f4xx_hal_i2c.o
    0x08003238   0x08003238   0x00000096   Code   RO         2172    i.I2C_WaitOnMasterAddressFlagUntilTimeout  stm32f4xx_hal_i2c.o
    0x080032ce   0x080032ce   0x00000066   Code   RO         2173    i.I2C_WaitOnRXNEFlagUntilTimeout  stm32f4xx_hal_i2c.o
    0x08003334   0x08003334   0x0000004c   Code   RO         2174    i.I2C_WaitOnTXEFlagUntilTimeout  stm32f4xx_hal_i2c.o
    0x08003380   0x08003380   0x000000e0   Code   RO          470    i.MX_GPIO_Init      main.o
    0x08003460   0x08003460   0x00000060   Code   RO          471    i.MX_TIM2_Init      main.o
    0x080034c0   0x080034c0   0x00000060   Code   RO          472    i.MX_TIM3_Init      main.o
    0x08003520   0x08003520   0x00000060   Code   RO          473    i.MX_TIM4_Init      main.o
    0x08003580   0x08003580   0x00000060   Code   RO          474    i.MX_TIM5_Init      main.o
    0x080035e0   0x080035e0   0x00000002   Code   RO          697    i.MemManage_Handler  stm32f4xx_it.o
    0x080035e2   0x080035e2   0x00000002   Code   RO          698    i.NMI_Handler       stm32f4xx_it.o
    0x080035e4   0x080035e4   0x0000000a   Code   RO           14    i.PCA9685_AutoIncrement  pca9685.o
    0x080035ee   0x080035ee   0x00000002   PAD
    0x080035f0   0x080035f0   0x00000020   Code   RO           15    i.PCA9685_Init      pca9685.o
    0x08003610   0x08003610   0x0000000a   Code   RO           16    i.PCA9685_RestartMode  pca9685.o
    0x0800361a   0x0800361a   0x00000002   PAD
    0x0800361c   0x0800361c   0x00000070   Code   RO           17    i.PCA9685_SetBit    pca9685.o
    0x0800368c   0x0800368c   0x0000003c   Code   RO           18    i.PCA9685_SetPin    pca9685.o
    0x080036c8   0x080036c8   0x00000044   Code   RO           19    i.PCA9685_SetPwm    pca9685.o
    0x0800370c   0x0800370c   0x000000c4   Code   RO           20    i.PCA9685_SetPwmFrequency  pca9685.o
    0x080037d0   0x080037d0   0x00000090   Code   RO           21    i.PCA9685_SetServoAngle  pca9685.o
    0x08003860   0x08003860   0x0000000a   Code   RO           22    i.PCA9685_SleepMode  pca9685.o
    0x0800386a   0x0800386a   0x00000002   PAD
    0x0800386c   0x0800386c   0x00000028   Code   RO           23    i.PCA9685_SoftwareReset  pca9685.o
    0x08003894   0x08003894   0x00000124   Code   RO          475    i.PrintStatus       main.o
    0x080039b8   0x080039b8   0x0000002c   Code   RO         5422    i.SysTick_Handler   port.o
    0x080039e4   0x080039e4   0x00000088   Code   RO          476    i.SystemClock_Config  main.o
    0x08003a6c   0x08003a6c   0x0000001c   Code   RO         3815    i.SystemInit        system_stm32f4xx.o
    0x08003a88   0x08003a88   0x0000000c   Code   RO          699    i.TIM1_UP_TIM10_IRQHandler  stm32f4xx_it.o
    0x08003a94   0x08003a94   0x000000c8   Code   RO         2650    i.TIM_Base_SetConfig  stm32f4xx_hal_tim.o
    0x08003b5c   0x08003b5c   0x0000001a   Code   RO         2651    i.TIM_CCxChannelCmd  stm32f4xx_hal_tim.o
    0x08003b76   0x08003b76   0x00000002   PAD
    0x08003b78   0x08003b78   0x00000228   Code   RO          477    i.UARTParser        main.o
    0x08003da0   0x08003da0   0x00000010   Code   RO         3526    i.UART_DMAAbortOnError  stm32f4xx_hal_uart.o
    0x08003db0   0x08003db0   0x0000004a   Code   RO         3527    i.UART_DMAError     stm32f4xx_hal_uart.o
    0x08003dfa   0x08003dfa   0x0000003c   Code   RO         3528    i.UART_DMAReceiveCplt  stm32f4xx_hal_uart.o
    0x08003e36   0x08003e36   0x0000000a   Code   RO         3530    i.UART_DMARxHalfCplt  stm32f4xx_hal_uart.o
    0x08003e40   0x08003e40   0x0000001c   Code   RO         3536    i.UART_EndRxTransfer  stm32f4xx_hal_uart.o
    0x08003e5c   0x08003e5c   0x00000012   Code   RO         3537    i.UART_EndTxTransfer  stm32f4xx_hal_uart.o
    0x08003e6e   0x08003e6e   0x00000096   Code   RO         3538    i.UART_Receive_IT   stm32f4xx_hal_uart.o
    0x08003f04   0x08003f04   0x00000128   Code   RO         3539    i.UART_SetConfig    stm32f4xx_hal_uart.o
    0x0800402c   0x0800402c   0x00000062   Code   RO         3540    i.UART_Transmit_IT  stm32f4xx_hal_uart.o
    0x0800408e   0x0800408e   0x00000064   Code   RO         3541    i.UART_WaitOnFlagUntilTimeout  stm32f4xx_hal_uart.o
    0x080040f2   0x080040f2   0x00000002   PAD
    0x080040f4   0x080040f4   0x0000000c   Code   RO          700    i.USART2_IRQHandler  stm32f4xx_it.o
    0x08004100   0x08004100   0x00000002   Code   RO          701    i.UsageFault_Handler  stm32f4xx_it.o
    0x08004102   0x08004102   0x00000002   PAD
    0x08004104   0x08004104   0x00000028   Code   RO         5770    i.__0sprintf        mc_w.l(printfa.o)
    0x0800412c   0x0800412c   0x00000020   Code   RO         1728    i.__NVIC_SetPriority  stm32f4xx_hal_cortex.o
    0x0800414c   0x0800414c   0x00000008   Code   RO         5843    i.__aeabi_errno_addr  mc_w.l(errno.o)
    0x08004154   0x08004154   0x00000004   PAD
    0x08004158   0x08004158   0x00000038   Code   RO         5498    i.__hardfp_atof     m_wm.l(atof.o)
    0x08004190   0x08004190   0x00000118   Code   RO         5504    i.__hardfp_floor    m_wm.l(floor.o)
    0x080042a8   0x080042a8   0x000000e0   Code   RO         5510    i.__hardfp_round    m_wm.l(round.o)
    0x08004388   0x08004388   0x0000000c   Code   RO         5844    i.__read_errno      mc_w.l(errno.o)
    0x08004394   0x08004394   0x0000000e   Code   RO         5918    i.__scatterload_copy  mc_w.l(handlers.o)
    0x080043a2   0x080043a2   0x00000002   Code   RO         5919    i.__scatterload_null  mc_w.l(handlers.o)
    0x080043a4   0x080043a4   0x0000000e   Code   RO         5920    i.__scatterload_zeroinit  mc_w.l(handlers.o)
    0x080043b2   0x080043b2   0x00000002   PAD
    0x080043b4   0x080043b4   0x0000000c   Code   RO         5845    i.__set_errno       mc_w.l(errno.o)
    0x080043c0   0x080043c0   0x00000184   Code   RO         5775    i._fp_digits        mc_w.l(printfa.o)
    0x08004544   0x08004544   0x0000000e   Code   RO         5902    i._is_digit         mc_w.l(scanf_fp.o)
    0x08004552   0x08004552   0x00000002   PAD
    0x08004554   0x08004554   0x000006b4   Code   RO         5776    i._printf_core      mc_w.l(printfa.o)
    0x08004c08   0x08004c08   0x00000024   Code   RO         5777    i._printf_post_padding  mc_w.l(printfa.o)
    0x08004c2c   0x08004c2c   0x0000002e   Code   RO         5778    i._printf_pre_padding  mc_w.l(printfa.o)
    0x08004c5a   0x08004c5a   0x0000000a   Code   RO         5780    i._sputc            mc_w.l(printfa.o)
    0x08004c64   0x08004c64   0x0000001e   Code   RO          214    i.checkTimeoutExpired  vl53l0x.o
    0x08004c82   0x08004c82   0x0000000c   Code   RO          215    i.decodeTimeout     vl53l0x.o
    0x08004c8e   0x08004c8e   0x00000008   Code   RO          216    i.decodeVcselPeriod  vl53l0x.o
    0x08004c96   0x08004c96   0x0000001c   Code   RO          217    i.encodeTimeout     vl53l0x.o
    0x08004cb2   0x08004cb2   0x0000006a   Code   RO          220    i.getMeasurementTimingBudget  vl53l0x.o
    0x08004d1c   0x08004d1c   0x00000028   Code   RO          221    i.getSequenceStepEnables  vl53l0x.o
    0x08004d44   0x08004d44   0x00000068   Code   RO          222    i.getSequenceStepTimeouts  vl53l0x.o
    0x08004dac   0x08004dac   0x00000104   Code   RO          224    i.getSpadInfo       vl53l0x.o
    0x08004eb0   0x08004eb0   0x0000001e   Code   RO          226    i.getVcselPulsePeriod  vl53l0x.o
    0x08004ece   0x08004ece   0x000004f4   Code   RO          228    i.init              vl53l0x.o
    0x080053c2   0x080053c2   0x00000002   PAD
    0x080053c4   0x080053c4   0x00000130   Code   RO          478    i.inverse_kinematics  main.o
    0x080054f4   0x080054f4   0x00000460   Code   RO          479    i.main              main.o
    0x08005954   0x08005954   0x00000034   Code   RO         4942    i.osDelay           cmsis_os2.o
    0x08005988   0x08005988   0x00000034   Code   RO         4956    i.osKernelInitialize  cmsis_os2.o
    0x080059bc   0x080059bc   0x0000003c   Code   RO         4959    i.osKernelStart     cmsis_os2.o
    0x080059f8   0x080059f8   0x000000a4   Code   RO         4992    i.osThreadNew       cmsis_os2.o
    0x08005a9c   0x08005a9c   0x00000046   Code   RO          229    i.performSingleRefCalibration  vl53l0x.o
    0x08005ae2   0x08005ae2   0x00000002   PAD
    0x08005ae4   0x08005ae4   0x0000005c   Code   RO         4423    i.prvAddCurrentTaskToDelayedList  tasks.o
    0x08005b40   0x08005b40   0x000000d0   Code   RO         4424    i.prvAddNewTaskToReadyList  tasks.o
    0x08005c10   0x08005c10   0x00000058   Code   RO         4776    i.prvCheckForValidListAndQueue  timers.o
    0x08005c68   0x08005c68   0x00000026   Code   RO         4020    i.prvCopyDataFromQueue  queue.o
    0x08005c8e   0x08005c8e   0x0000006c   Code   RO         4021    i.prvCopyDataToQueue  queue.o
    0x08005cfa   0x08005cfa   0x00000034   Code   RO         4425    i.prvDeleteTCB      tasks.o
    0x08005d2e   0x08005d2e   0x00000002   PAD
    0x08005d30   0x08005d30   0x0000004c   Code   RO         5372    i.prvHeapInit       heap_4.o
    0x08005d7c   0x08005d7c   0x00000060   Code   RO         4426    i.prvIdleTask       tasks.o
    0x08005ddc   0x08005ddc   0x00000022   Code   RO         4023    i.prvInitialiseNewQueue  queue.o
    0x08005dfe   0x08005dfe   0x00000002   PAD
    0x08005e00   0x08005e00   0x000000b0   Code   RO         4427    i.prvInitialiseNewTask  tasks.o
    0x08005eb0   0x08005eb0   0x0000004c   Code   RO         5373    i.prvInsertBlockIntoFreeList  heap_4.o
    0x08005efc   0x08005efc   0x00000038   Code   RO         4778    i.prvInsertTimerInActiveList  timers.o
    0x08005f34   0x08005f34   0x0000001c   Code   RO         4024    i.prvIsQueueEmpty   queue.o
    0x08005f50   0x08005f50   0x000000fc   Code   RO         4779    i.prvProcessReceivedCommands  timers.o
    0x0800604c   0x0800604c   0x000000c0   Code   RO         4780    i.prvProcessTimerOrBlockTask  timers.o
    0x0800610c   0x0800610c   0x00000020   Code   RO         4429    i.prvResetNextTaskUnblockTime  tasks.o
    0x0800612c   0x0800612c   0x00000028   Code   RO         4781    i.prvSampleTimeNow  timers.o
    0x08006154   0x08006154   0x0000006c   Code   RO         4782    i.prvSwitchTimerLists  timers.o
    0x080061c0   0x080061c0   0x00000028   Code   RO         5423    i.prvTaskExitError  port.o
    0x080061e8   0x080061e8   0x00000024   Code   RO         4783    i.prvTimerTask      timers.o
    0x0800620c   0x0800620c   0x0000006a   Code   RO         4025    i.prvUnlockQueue    queue.o
    0x08006276   0x08006276   0x00000002   PAD
    0x08006278   0x08006278   0x000000d8   Code   RO         5374    i.pvPortMalloc      heap_4.o
    0x08006350   0x08006350   0x0000002c   Code   RO         5424    i.pxPortInitialiseStack  port.o
    0x0800637c   0x0800637c   0x0000001a   Code   RO          230    i.readBytes         vl53l0x.o
    0x08006396   0x08006396   0x00000002   PAD
    0x08006398   0x08006398   0x00000030   Code   RO          480    i.readLaser         main.o
    0x080063c8   0x080063c8   0x00000030   Code   RO          481    i.readMulti         main.o
    0x080063f8   0x080063f8   0x0000004c   Code   RO          231    i.readRangeContinuousMillimeters  vl53l0x.o
    0x08006444   0x08006444   0x0000002c   Code   RO          233    i.readReg           vl53l0x.o
    0x08006470   0x08006470   0x0000002c   Code   RO          234    i.readReg16Bit      vl53l0x.o
    0x0800649c   0x0800649c   0x00000024   Code   RO          482    i.safe_unsigned_subtract  main.o
    0x080064c0   0x080064c0   0x00000014   Code   RO          236    i.setAddress        vl53l0x.o
    0x080064d4   0x080064d4   0x000000a4   Code   RO          237    i.setMeasurementTimingBudget  vl53l0x.o
    0x08006578   0x08006578   0x00000040   Code   RO          238    i.setSignalRateLimit  vl53l0x.o
    0x080065b8   0x080065b8   0x00000004   Code   RO          239    i.setTimeout        vl53l0x.o
    0x080065bc   0x080065bc   0x000001de   Code   RO          240    i.setVcselPulsePeriod  vl53l0x.o
    0x0800679a   0x0800679a   0x0000000c   Code   RO          241    i.setup_VL53L0X     vl53l0x.o
    0x080067a6   0x080067a6   0x00000074   Code   RO          242    i.startContinuous   vl53l0x.o
    0x0800681a   0x0800681a   0x0000000c   Code   RO          243    i.startTimeout      vl53l0x.o
    0x08006826   0x08006826   0x00000022   Code   RO          245    i.timeoutMclksToMicroseconds  vl53l0x.o
    0x08006848   0x08006848   0x00000022   Code   RO          246    i.timeoutMicrosecondsToMclks  vl53l0x.o
    0x0800686a   0x0800686a   0x00000002   PAD
    0x0800686c   0x0800686c   0x00000280   Code   RO          483    i.updateMotor       main.o
    0x08006aec   0x08006aec   0x0000012c   Code   RO          484    i.update_motor_direction  main.o
    0x08006c18   0x08006c18   0x00000030   Code   RO          485    i.update_motor_pid  main.o
    0x08006c48   0x08006c48   0x00000006   Code   RO          486    i.update_servo_angle  main.o
    0x08006c4e   0x08006c4e   0x00000026   Code   RO         3980    i.uxListRemove      list.o
    0x08006c74   0x08006c74   0x00000014   Code   RO         5004    i.vApplicationGetIdleTaskMemory  cmsis_os2.o
    0x08006c88   0x08006c88   0x00000018   Code   RO         5005    i.vApplicationGetTimerTaskMemory  cmsis_os2.o
    0x08006ca0   0x08006ca0   0x00000016   Code   RO         3981    i.vListInitialise   list.o
    0x08006cb6   0x08006cb6   0x00000006   Code   RO         3982    i.vListInitialiseItem  list.o
    0x08006cbc   0x08006cbc   0x00000030   Code   RO         3983    i.vListInsert       list.o
    0x08006cec   0x08006cec   0x00000018   Code   RO         3984    i.vListInsertEnd    list.o
    0x08006d04   0x08006d04   0x00000040   Code   RO         5426    i.vPortEnterCritical  port.o
    0x08006d44   0x08006d44   0x00000028   Code   RO         5427    i.vPortExitCritical  port.o
    0x08006d6c   0x08006d6c   0x0000005c   Code   RO         5375    i.vPortFree         heap_4.o
    0x08006dc8   0x08006dc8   0x00000024   Code   RO         5428    i.vPortSetupTimerInterrupt  port.o
    0x08006dec   0x08006dec   0x00000054   Code   RO         5429    i.vPortValidateInterruptPriority  port.o
    0x08006e40   0x08006e40   0x00000028   Code   RO         4031    i.vQueueAddToRegistry  queue.o
    0x08006e68   0x08006e68   0x00000044   Code   RO         4035    i.vQueueWaitForMessageRestricted  queue.o
    0x08006eac   0x08006eac   0x0000004c   Code   RO         4441    i.vTaskDelay        tasks.o
    0x08006ef8   0x08006ef8   0x00000010   Code   RO         4446    i.vTaskInternalSetTimeOutState  tasks.o
    0x08006f08   0x08006f08   0x0000000c   Code   RO         4447    i.vTaskMissedYield  tasks.o
    0x08006f14   0x08006f14   0x00000030   Code   RO         4449    i.vTaskPlaceOnEventList  tasks.o
    0x08006f44   0x08006f44   0x00000038   Code   RO         4450    i.vTaskPlaceOnEventListRestricted  tasks.o
    0x08006f7c   0x08006f7c   0x00000088   Code   RO         4458    i.vTaskStartScheduler  tasks.o
    0x08007004   0x08007004   0x00000010   Code   RO         4460    i.vTaskSuspendAll   tasks.o
    0x08007014   0x08007014   0x00000064   Code   RO         4461    i.vTaskSwitchContext  tasks.o
    0x08007078   0x08007078   0x00000018   Code   RO          248    i.writeBytes        vl53l0x.o
    0x08007090   0x08007090   0x00000020   Code   RO          487    i.writeMulti        main.o
    0x080070b0   0x080070b0   0x00000028   Code   RO          249    i.writeReg          vl53l0x.o
    0x080070d8   0x080070d8   0x00000028   Code   RO          250    i.writeReg16Bit     vl53l0x.o
    0x08007100   0x08007100   0x00000030   Code   RO          251    i.writeReg32Bit     vl53l0x.o
    0x08007130   0x08007130   0x000000f4   Code   RO         5430    i.xPortStartScheduler  port.o
    0x08007224   0x08007224   0x00000066   Code   RO         4041    i.xQueueGenericCreateStatic  queue.o
    0x0800728a   0x0800728a   0x00000002   PAD
    0x0800728c   0x0800728c   0x00000088   Code   RO         4042    i.xQueueGenericReset  queue.o
    0x08007314   0x08007314   0x00000160   Code   RO         4043    i.xQueueGenericSend  queue.o
    0x08007474   0x08007474   0x000000bc   Code   RO         4044    i.xQueueGenericSendFromISR  queue.o
    0x08007530   0x08007530   0x00000138   Code   RO         4053    i.xQueueReceive     queue.o
    0x08007668   0x08007668   0x00000074   Code   RO         4462    i.xTaskCheckForTimeOut  tasks.o
    0x080076dc   0x080076dc   0x0000005a   Code   RO         4463    i.xTaskCreate       tasks.o
    0x08007736   0x08007736   0x00000056   Code   RO         4464    i.xTaskCreateStatic  tasks.o
    0x0800778c   0x0800778c   0x0000001c   Code   RO         4468    i.xTaskGetSchedulerState  tasks.o
    0x080077a8   0x080077a8   0x0000000c   Code   RO         4469    i.xTaskGetTickCount  tasks.o
    0x080077b4   0x080077b4   0x000000c8   Code   RO         4471    i.xTaskIncrementTick  tasks.o
    0x0800787c   0x0800787c   0x00000080   Code   RO         4474    i.xTaskPriorityDisinherit  tasks.o
    0x080078fc   0x080078fc   0x00000070   Code   RO         4476    i.xTaskRemoveFromEventList  tasks.o
    0x0800796c   0x0800796c   0x000000c4   Code   RO         4477    i.xTaskResumeAll    tasks.o
    0x08007a30   0x08007a30   0x00000060   Code   RO         4791    i.xTimerCreateTimerTask  timers.o
    0x08007a90   0x08007a90   0x00000068   Code   RO         4792    i.xTimerGenericCommand  timers.o
    0x08007af8   0x08007af8   0x00000090   Data   RO          490    .constdata          main.o
    0x08007b88   0x08007b88   0x00000008   Data   RO         1427    .constdata          stm32f4xx_hal_dma.o
    0x08007b90   0x08007b90   0x00000010   Data   RO         3816    .constdata          system_stm32f4xx.o
    0x08007ba0   0x08007ba0   0x00000008   Data   RO         3817    .constdata          system_stm32f4xx.o
    0x08007ba8   0x08007ba8   0x00000081   Data   RO         5873    .constdata          mc_w.l(ctype_o.o)
    0x08007c29   0x08007c29   0x00000003   PAD
    0x08007c2c   0x08007c2c   0x00000004   Data   RO         5874    .constdata          mc_w.l(ctype_o.o)
    0x08007c30   0x08007c30   0x00000040   Data   RO          495    .conststring        main.o
    0x08007c70   0x08007c70   0x00000020   Data   RO         5916    Region$$Table       anon$$obj.o


    Execution Region RW_IRAM1 (Exec base: 0x20000000, Load base: 0x08007c90, Size: 0x00005928, Max: 0x00020000, ABSOLUTE)

    Exec Addr    Load Addr    Size         Type   Attr      Idx    E Section Name        Object

    0x20000000   0x08007c90   0x00000004   Data   RW           25    .data               pca9685.o
    0x20000004   0x08007c94   0x00000038   Data   RW          496    .data               main.o
    0x2000003c   0x08007ccc   0x0000000c   Data   RW         1872    .data               stm32f4xx_hal.o
    0x20000048   0x08007cd8   0x00000004   Data   RW         3818    .data               system_stm32f4xx.o
    0x2000004c   0x08007cdc   0x0000003c   Data   RW         4480    .data               tasks.o
    0x20000088   0x08007d18   0x00000014   Data   RW         4800    .data               timers.o
    0x2000009c   0x08007d2c   0x00000004   Data   RW         5007    .data               cmsis_os2.o
    0x200000a0   0x08007d30   0x00000018   Data   RW         5380    .data               heap_4.o
    0x200000b8   0x08007d48   0x0000000c   Data   RW         5431    .data               port.o
    0x200000c4   0x08007d54   0x00000004   Data   RW         5528    .data               mc_w.l(strtok.o)
    0x200000c8   0x08007d58   0x00000004   Data   RW         5846    .data               mc_w.l(errno.o)
    0x200000cc        -       0x00000ae8   Zero   RW          488    .bss                main.o
    0x20000bb4        -       0x00000060   Zero   RW          489    .bss                main.o
    0x20000c14        -       0x00000040   Zero   RW          833    .bss                stm32f4xx_hal_timebase_tim.o
    0x20000c54        -       0x00000040   Zero   RW         4057    .bss                queue.o
    0x20000c94        -       0x000004c4   Zero   RW         4479    .bss                tasks.o
    0x20001158        -       0x00000118   Zero   RW         4799    .bss                timers.o
    0x20001270        -       0x000006b8   Zero   RW         5006    .bss                cmsis_os2.o
    0x20001928        -       0x00003c00   Zero   RW         5379    .bss                heap_4.o
    0x20005528        -       0x00000400   Zero   RW            1    STACK               startup_stm32f446xx.o


==============================================================================

Image component sizes


      Code (inc. data)   RO Data    RW Data    ZI Data      Debug   Object Name

       372         30          0          4       1720      30390   cmsis_os2.o
         0          0          0          0          0      18384   event_groups.o
       460         24          0         24      15360       4811   heap_4.o
       138          0          0          0          0       3582   list.o
      4192        414        208         56       2888      29957   main.o
       682         94          0          4          0     722458   pca9685.o
       786         82          0         12          0      11665   port.o
      1512         20          0          0         64      17488   queue.o
        36          8        452          0       1024        844   startup_stm32f446xx.o
       116         18          0         12          0       8626   stm32f4xx_hal.o
       158         14          0          0          0      33186   stm32f4xx_hal_cortex.o
       938         16          8          0          0       6514   stm32f4xx_hal_dma.o
       434         40          0          0          0       2412   stm32f4xx_hal_gpio.o
      3346         86          0          0          0      17697   stm32f4xx_hal_i2c.o
       772         70          0          0          0       3746   stm32f4xx_hal_msp.o
       112         14          0          0          0       1300   stm32f4xx_hal_pwr_ex.o
       436         54          0          0          0       3583   stm32f4xx_hal_rcc.o
       988         34          0          0          0       2730   stm32f4xx_hal_rcc_ex.o
       886         44          0          0          0       9563   stm32f4xx_hal_tim.o
       148         28          0          0          0       2481   stm32f4xx_hal_tim_ex.o
       116         16          0          0         64       1443   stm32f4xx_hal_timebase_tim.o
      1570         30          0          0          0      13496   stm32f4xx_hal_uart.o
        48         18          0          0          0       4274   stm32f4xx_it.o
         0          0          0          0          0        392   stream_buffer.o
        28          6         24          4          0       1179   system_stm32f4xx.o
      2084        170          0         60       1220      27088   tasks.o
       972         80          0         20        280      32127   timers.o
      3236         34          0          0          0      27472   vl53l0x.o

    ----------------------------------------------------------------------
     24606       1444        724        196      22620    1038888   Object Totals
         0          0         32          0          0          0   (incl. Generated)
        40          0          0          0          0          0   (incl. Padding)

    ----------------------------------------------------------------------

      Code (inc. data)   RO Data    RW Data    ZI Data      Debug   Library Member Name

        56         12          0          0          0        132   atof.o
       280         28          0          0          0        156   floor.o
       224         30          0          0          0        172   round.o
        28          0          0          0          0         68   _chval.o
        64          0          0          0          0         84   _sgetc.o
       158          0          0          0          0         92   _strtoul.o
        26          0          0          0          0         80   atoi.o
         8          4        133          0          0         68   ctype_o.o
         0          0          0          0          0          0   entry.o
         0          0          0          0          0          0   entry10a.o
         0          0          0          0          0          0   entry11a.o
         4          0          0          0          0          0   entry12b.o
         8          4          0          0          0          0   entry2.o
         4          0          0          0          0          0   entry5.o
         0          0          0          0          0          0   entry7b.o
         0          0          0          0          0          0   entry8b.o
         8          4          0          0          0          0   entry9a.o
        32         16          0          4          0        204   errno.o
        30          0          0          0          0          0   handlers.o
        36          8          0          0          0         68   init.o
        18          0          0          0          0         76   isspace_o.o
         0          0          0          0          0          0   iusefp.o
        30          0          0          0          0         68   llshl.o
        36          0          0          0          0         68   llsshr.o
        32          0          0          0          0         68   llushr.o
        36          0          0          0          0         68   memcpya.o
        36          0          0          0          0        108   memseta.o
      2236         86          0          0          0        532   printfa.o
       878         12          0          0          0        216   scanf_fp.o
        14          0          0          0          0         68   strlen.o
       156         12          0          0          0        120   strtod.o
        68          6          0          4          0         80   strtok.o
       112          0          0          0          0         88   strtol.o
        44          0          0          0          0         80   uidiv.o
        98          0          0          0          0         92   uldiv.o
        48          0          0          0          0         68   cdcmple.o
        48          0          0          0          0         68   cdrcmple.o
        56          0          0          0          0         88   d2f.o
       334          0          0          0          0        148   dadd.o
       222          0          0          0          0        100   ddiv.o
       186          0          0          0          0        176   depilogue.o
        62          0          0          0          0         80   dfixi.o
        50          0          0          0          0         76   dfixui.o
        48          0          0          0          0         68   dfixul.o
        34          0          0          0          0         76   dflti.o
        26          0          0          0          0         76   dfltui.o
        24          0          0          0          0         76   dfltul.o
       228          0          0          0          0         96   dmul.o
       136          4          0          0          0         92   drnd.o
        38          0          0          0          0         68   f2d.o
       110          0          0          0          0        168   fepilogue.o

    ----------------------------------------------------------------------
      6422        230        136          8          0       4380   Library Totals
        12          4          3          0          0          0   (incl. Padding)

    ----------------------------------------------------------------------

      Code (inc. data)   RO Data    RW Data    ZI Data      Debug   Library Name

       560         70          0          0          0        460   m_wm.l
      4200        152        133          8          0       2396   mc_w.l
      1650          4          0          0          0       1524   mf_w.l

    ----------------------------------------------------------------------
      6422        230        136          8          0       4380   Library Totals

    ----------------------------------------------------------------------

==============================================================================


      Code (inc. data)   RO Data    RW Data    ZI Data      Debug   

     31028       1674        860        204      22620    1020440   Grand Totals
     31028       1674        860        204      22620    1020440   ELF Image Totals
     31028       1674        860        204          0          0   ROM Totals

==============================================================================

    Total RO  Size (Code + RO Data)                31888 (  31.14kB)
    Total RW  Size (RW Data + ZI Data)             22824 (  22.29kB)
    Total ROM Size (Code + RO Data + RW Data)      32092 (  31.34kB)

==============================================================================

